{
	"StonersTown Contract/STW.sol": {
		"StonersTownWtf": {
			"abi": [
				{
					"inputs": [
						{
							"internalType": "uint256",
							"name": "price",
							"type": "uint256"
						},
						{
							"internalType": "uint256",
							"name": "maxSupply",
							"type": "uint256"
						},
						{
							"internalType": "string",
							"name": "baseUri",
							"type": "string"
						},
						{
							"internalType": "uint256",
							"name": "freeMintAllowance",
							"type": "uint256"
						},
						{
							"internalType": "uint256",
							"name": "maxMintPerTx",
							"type": "uint256"
						},
						{
							"internalType": "bool",
							"name": "isSaleActive",
							"type": "bool"
						},
						{
							"internalType": "uint256",
							"name": "freeMintIsAllowedUntil",
							"type": "uint256"
						}
					],
					"stateMutability": "nonpayable",
					"type": "constructor"
				},
				{
					"inputs": [],
					"name": "ApprovalCallerNotOwnerNorApproved",
					"type": "error"
				},
				{
					"inputs": [],
					"name": "ApprovalQueryForNonexistentToken",
					"type": "error"
				},
				{
					"inputs": [],
					"name": "ApprovalToCurrentOwner",
					"type": "error"
				},
				{
					"inputs": [],
					"name": "ApproveToCaller",
					"type": "error"
				},
				{
					"inputs": [],
					"name": "BalanceQueryForZeroAddress",
					"type": "error"
				},
				{
					"inputs": [],
					"name": "MintToZeroAddress",
					"type": "error"
				},
				{
					"inputs": [],
					"name": "MintZeroQuantity",
					"type": "error"
				},
				{
					"inputs": [],
					"name": "OwnerQueryForNonexistentToken",
					"type": "error"
				},
				{
					"inputs": [],
					"name": "TransferCallerNotOwnerNorApproved",
					"type": "error"
				},
				{
					"inputs": [],
					"name": "TransferFromIncorrectOwner",
					"type": "error"
				},
				{
					"inputs": [],
					"name": "TransferToNonERC721ReceiverImplementer",
					"type": "error"
				},
				{
					"inputs": [],
					"name": "TransferToZeroAddress",
					"type": "error"
				},
				{
					"inputs": [],
					"name": "URIQueryForNonexistentToken",
					"type": "error"
				},
				{
					"anonymous": false,
					"inputs": [
						{
							"indexed": true,
							"internalType": "address",
							"name": "owner",
							"type": "address"
						},
						{
							"indexed": true,
							"internalType": "address",
							"name": "approved",
							"type": "address"
						},
						{
							"indexed": true,
							"internalType": "uint256",
							"name": "tokenId",
							"type": "uint256"
						}
					],
					"name": "Approval",
					"type": "event"
				},
				{
					"anonymous": false,
					"inputs": [
						{
							"indexed": true,
							"internalType": "address",
							"name": "owner",
							"type": "address"
						},
						{
							"indexed": true,
							"internalType": "address",
							"name": "operator",
							"type": "address"
						},
						{
							"indexed": false,
							"internalType": "bool",
							"name": "approved",
							"type": "bool"
						}
					],
					"name": "ApprovalForAll",
					"type": "event"
				},
				{
					"anonymous": false,
					"inputs": [
						{
							"indexed": true,
							"internalType": "address",
							"name": "previousOwner",
							"type": "address"
						},
						{
							"indexed": true,
							"internalType": "address",
							"name": "newOwner",
							"type": "address"
						}
					],
					"name": "OwnershipTransferred",
					"type": "event"
				},
				{
					"anonymous": false,
					"inputs": [
						{
							"indexed": true,
							"internalType": "address",
							"name": "from",
							"type": "address"
						},
						{
							"indexed": true,
							"internalType": "address",
							"name": "to",
							"type": "address"
						},
						{
							"indexed": true,
							"internalType": "uint256",
							"name": "tokenId",
							"type": "uint256"
						}
					],
					"name": "Transfer",
					"type": "event"
				},
				{
					"inputs": [],
					"name": "IS_SALE_ACTIVE",
					"outputs": [
						{
							"internalType": "bool",
							"name": "",
							"type": "bool"
						}
					],
					"stateMutability": "view",
					"type": "function"
				},
				{
					"inputs": [],
					"name": "METADATA_FROZEN",
					"outputs": [
						{
							"internalType": "bool",
							"name": "",
							"type": "bool"
						}
					],
					"stateMutability": "view",
					"type": "function"
				},
				{
					"inputs": [
						{
							"internalType": "address",
							"name": "to",
							"type": "address"
						},
						{
							"internalType": "uint256",
							"name": "tokenId",
							"type": "uint256"
						}
					],
					"name": "approve",
					"outputs": [],
					"stateMutability": "nonpayable",
					"type": "function"
				},
				{
					"inputs": [
						{
							"internalType": "address",
							"name": "owner",
							"type": "address"
						}
					],
					"name": "balanceOf",
					"outputs": [
						{
							"internalType": "uint256",
							"name": "",
							"type": "uint256"
						}
					],
					"stateMutability": "view",
					"type": "function"
				},
				{
					"inputs": [],
					"name": "budPrice",
					"outputs": [
						{
							"internalType": "uint256",
							"name": "",
							"type": "uint256"
						}
					],
					"stateMutability": "view",
					"type": "function"
				},
				{
					"inputs": [],
					"name": "freeBudAllowedUntil",
					"outputs": [
						{
							"internalType": "uint256",
							"name": "",
							"type": "uint256"
						}
					],
					"stateMutability": "view",
					"type": "function"
				},
				{
					"inputs": [],
					"name": "freeBudPerWallet",
					"outputs": [
						{
							"internalType": "uint256",
							"name": "",
							"type": "uint256"
						}
					],
					"stateMutability": "view",
					"type": "function"
				},
				{
					"inputs": [],
					"name": "freezeMetadata",
					"outputs": [],
					"stateMutability": "nonpayable",
					"type": "function"
				},
				{
					"inputs": [
						{
							"internalType": "uint256",
							"name": "tokenId",
							"type": "uint256"
						}
					],
					"name": "getApproved",
					"outputs": [
						{
							"internalType": "address",
							"name": "",
							"type": "address"
						}
					],
					"stateMutability": "view",
					"type": "function"
				},
				{
					"inputs": [
						{
							"internalType": "address",
							"name": "owner",
							"type": "address"
						},
						{
							"internalType": "address",
							"name": "operator",
							"type": "address"
						}
					],
					"name": "isApprovedForAll",
					"outputs": [
						{
							"internalType": "bool",
							"name": "",
							"type": "bool"
						}
					],
					"stateMutability": "view",
					"type": "function"
				},
				{
					"inputs": [
						{
							"internalType": "uint256",
							"name": "newMaxSupply",
							"type": "uint256"
						}
					],
					"name": "lowerMaxSupply",
					"outputs": [],
					"stateMutability": "nonpayable",
					"type": "function"
				},
				{
					"inputs": [],
					"name": "maxBudPerTrans",
					"outputs": [
						{
							"internalType": "uint256",
							"name": "",
							"type": "uint256"
						}
					],
					"stateMutability": "view",
					"type": "function"
				},
				{
					"inputs": [],
					"name": "maxbuds",
					"outputs": [
						{
							"internalType": "uint256",
							"name": "",
							"type": "uint256"
						}
					],
					"stateMutability": "view",
					"type": "function"
				},
				{
					"inputs": [
						{
							"internalType": "uint256",
							"name": "_mintAmount",
							"type": "uint256"
						}
					],
					"name": "mint",
					"outputs": [],
					"stateMutability": "payable",
					"type": "function"
				},
				{
					"inputs": [
						{
							"internalType": "address",
							"name": "_to",
							"type": "address"
						},
						{
							"internalType": "uint256",
							"name": "_mintAmount",
							"type": "uint256"
						}
					],
					"name": "mintOwner",
					"outputs": [],
					"stateMutability": "nonpayable",
					"type": "function"
				},
				{
					"inputs": [],
					"name": "name",
					"outputs": [
						{
							"internalType": "string",
							"name": "",
							"type": "string"
						}
					],
					"stateMutability": "view",
					"type": "function"
				},
				{
					"inputs": [],
					"name": "owner",
					"outputs": [
						{
							"internalType": "address",
							"name": "",
							"type": "address"
						}
					],
					"stateMutability": "view",
					"type": "function"
				},
				{
					"inputs": [
						{
							"internalType": "uint256",
							"name": "tokenId",
							"type": "uint256"
						}
					],
					"name": "ownerOf",
					"outputs": [
						{
							"internalType": "address",
							"name": "",
							"type": "address"
						}
					],
					"stateMutability": "view",
					"type": "function"
				},
				{
					"inputs": [],
					"name": "renounceOwnership",
					"outputs": [],
					"stateMutability": "nonpayable",
					"type": "function"
				},
				{
					"inputs": [
						{
							"internalType": "address",
							"name": "from",
							"type": "address"
						},
						{
							"internalType": "address",
							"name": "to",
							"type": "address"
						},
						{
							"internalType": "uint256",
							"name": "tokenId",
							"type": "uint256"
						}
					],
					"name": "safeTransferFrom",
					"outputs": [],
					"stateMutability": "nonpayable",
					"type": "function"
				},
				{
					"inputs": [
						{
							"internalType": "address",
							"name": "from",
							"type": "address"
						},
						{
							"internalType": "address",
							"name": "to",
							"type": "address"
						},
						{
							"internalType": "uint256",
							"name": "tokenId",
							"type": "uint256"
						},
						{
							"internalType": "bytes",
							"name": "_data",
							"type": "bytes"
						}
					],
					"name": "safeTransferFrom",
					"outputs": [],
					"stateMutability": "nonpayable",
					"type": "function"
				},
				{
					"inputs": [
						{
							"internalType": "address",
							"name": "operator",
							"type": "address"
						},
						{
							"internalType": "bool",
							"name": "approved",
							"type": "bool"
						}
					],
					"name": "setApprovalForAll",
					"outputs": [],
					"stateMutability": "nonpayable",
					"type": "function"
				},
				{
					"inputs": [
						{
							"internalType": "string",
							"name": "customBaseURI_",
							"type": "string"
						}
					],
					"name": "setBaseURI",
					"outputs": [],
					"stateMutability": "nonpayable",
					"type": "function"
				},
				{
					"inputs": [
						{
							"internalType": "uint256",
							"name": "freeMintAllowance",
							"type": "uint256"
						}
					],
					"name": "setFreeMintAllowance",
					"outputs": [],
					"stateMutability": "nonpayable",
					"type": "function"
				},
				{
					"inputs": [
						{
							"internalType": "uint256",
							"name": "freeMintIsAllowedUntil",
							"type": "uint256"
						}
					],
					"name": "setFreeMintAllowedUntil",
					"outputs": [],
					"stateMutability": "nonpayable",
					"type": "function"
				},
				{
					"inputs": [
						{
							"internalType": "uint256",
							"name": "maxMintPerTx",
							"type": "uint256"
						}
					],
					"name": "setMaxMintPerTx",
					"outputs": [],
					"stateMutability": "nonpayable",
					"type": "function"
				},
				{
					"inputs": [
						{
							"internalType": "uint256",
							"name": "customPrice",
							"type": "uint256"
						}
					],
					"name": "setPrice",
					"outputs": [],
					"stateMutability": "nonpayable",
					"type": "function"
				},
				{
					"inputs": [
						{
							"internalType": "bool",
							"name": "saleIsActive",
							"type": "bool"
						}
					],
					"name": "setSaleActive",
					"outputs": [],
					"stateMutability": "nonpayable",
					"type": "function"
				},
				{
					"inputs": [
						{
							"internalType": "bytes4",
							"name": "interfaceId",
							"type": "bytes4"
						}
					],
					"name": "supportsInterface",
					"outputs": [
						{
							"internalType": "bool",
							"name": "",
							"type": "bool"
						}
					],
					"stateMutability": "view",
					"type": "function"
				},
				{
					"inputs": [],
					"name": "symbol",
					"outputs": [
						{
							"internalType": "string",
							"name": "",
							"type": "string"
						}
					],
					"stateMutability": "view",
					"type": "function"
				},
				{
					"inputs": [
						{
							"internalType": "uint256",
							"name": "tokenId",
							"type": "uint256"
						}
					],
					"name": "tokenURI",
					"outputs": [
						{
							"internalType": "string",
							"name": "",
							"type": "string"
						}
					],
					"stateMutability": "view",
					"type": "function"
				},
				{
					"inputs": [],
					"name": "totalSupply",
					"outputs": [
						{
							"internalType": "uint256",
							"name": "",
							"type": "uint256"
						}
					],
					"stateMutability": "view",
					"type": "function"
				},
				{
					"inputs": [
						{
							"internalType": "address",
							"name": "from",
							"type": "address"
						},
						{
							"internalType": "address",
							"name": "to",
							"type": "address"
						},
						{
							"internalType": "uint256",
							"name": "tokenId",
							"type": "uint256"
						}
					],
					"name": "transferFrom",
					"outputs": [],
					"stateMutability": "nonpayable",
					"type": "function"
				},
				{
					"inputs": [
						{
							"internalType": "address",
							"name": "newOwner",
							"type": "address"
						}
					],
					"name": "transferOwnership",
					"outputs": [],
					"stateMutability": "nonpayable",
					"type": "function"
				},
				{
					"inputs": [],
					"name": "withdraw",
					"outputs": [],
					"stateMutability": "nonpayable",
					"type": "function"
				}
			],
			"devdoc": {
				"kind": "dev",
				"methods": {
					"approve(address,uint256)": {
						"details": "See {IERC721-approve}."
					},
					"balanceOf(address)": {
						"details": "See {IERC721-balanceOf}."
					},
					"getApproved(uint256)": {
						"details": "See {IERC721-getApproved}."
					},
					"isApprovedForAll(address,address)": {
						"details": "See {IERC721-isApprovedForAll}."
					},
					"name()": {
						"details": "See {IERC721Metadata-name}."
					},
					"owner()": {
						"details": "Returns the address of the current owner."
					},
					"ownerOf(uint256)": {
						"details": "See {IERC721-ownerOf}."
					},
					"renounceOwnership()": {
						"details": "Leaves the contract without owner. It will not be possible to call `onlyOwner` functions anymore. Can only be called by the current owner. NOTE: Renouncing ownership will leave the contract without an owner, thereby removing any functionality that is only available to the owner."
					},
					"safeTransferFrom(address,address,uint256)": {
						"details": "See {IERC721-safeTransferFrom}."
					},
					"safeTransferFrom(address,address,uint256,bytes)": {
						"details": "See {IERC721-safeTransferFrom}."
					},
					"setApprovalForAll(address,bool)": {
						"details": "See {IERC721-setApprovalForAll}."
					},
					"supportsInterface(bytes4)": {
						"details": "See {IERC165-supportsInterface}."
					},
					"symbol()": {
						"details": "See {IERC721Metadata-symbol}."
					},
					"tokenURI(uint256)": {
						"details": "See {IERC721Metadata-tokenURI}."
					},
					"totalSupply()": {
						"details": "See {IERC721Enumerable-totalSupply}.Burned tokens are calculated here, use _totalMinted() if you want to count just minted tokens."
					},
					"transferFrom(address,address,uint256)": {
						"details": "See {IERC721-transferFrom}."
					},
					"transferOwnership(address)": {
						"details": "Transfers ownership of the contract to a new account (`newOwner`). Can only be called by the current owner."
					}
				},
				"version": 1
			},
			"evm": {
				"assembly": "    /* \"StonersTown Contract/STW.sol\":49335:53467  contract StonersTownWtf is ERC721A, Ownable, ReentrancyGuard {... */\n  mstore(0x40, 0x80)\n    /* \"StonersTown Contract/STW.sol\":49758:50291  constructor(... */\n  callvalue\n  dup1\n  iszero\n  tag_1\n  jumpi\n  0x00\n  dup1\n  revert\ntag_1:\n  pop\n  mload(0x40)\n  sub(codesize, bytecodeSize)\n  dup1\n  bytecodeSize\n  dup4\n  codecopy\n  dup2\n  add\n  0x40\n  dup2\n  swap1\n  mstore\n  tag_2\n  swap2\n  tag_3\n  jump\t// in\ntag_2:\n    /* \"StonersTown Contract/STW.sol\":31037:31191  constructor(string memory name_, string memory symbol_) {... */\n  0x40\n  dup1\n  mload\n  dup1\n  dup3\n  add\n  dup3\n  mstore\n  0x0e\n  dup2\n  mstore\n  shl(0x91, 0x29ba37b732b939aa37bbb72bba33)\n  0x20\n  dup1\n  dup4\n  add\n  swap2\n  dup3\n  mstore\n  dup4\n  mload\n  dup1\n  dup6\n  add\n  swap1\n  swap5\n  mstore\n  0x03\n  dup5\n  mstore\n  shl(0xe8, 0x535457)\n  swap1\n  dup5\n  add\n  mstore\n    /* \"StonersTown Contract/STW.sol\":31103:31116  _name = name_ */\n  dup2\n  mload\n    /* \"StonersTown Contract/STW.sol\":31037:31191  constructor(string memory name_, string memory symbol_) {... */\n  swap2\n  swap3\n  swap2\n    /* \"StonersTown Contract/STW.sol\":31103:31116  _name = name_ */\n  tag_9\n  swap2\n    /* \"StonersTown Contract/STW.sol\":31103:31108  _name */\n  0x02\n  swap2\n    /* \"StonersTown Contract/STW.sol\":31103:31116  _name = name_ */\n  tag_10\n  jump\t// in\ntag_9:\n  pop\n    /* \"StonersTown Contract/STW.sol\":31126:31143  _symbol = symbol_ */\n  dup1\n  mload\n  tag_11\n  swap1\n    /* \"StonersTown Contract/STW.sol\":31126:31133  _symbol */\n  0x03\n  swap1\n    /* \"StonersTown Contract/STW.sol\":31126:31143  _symbol = symbol_ */\n  0x20\n  dup5\n  add\n  swap1\n  tag_10\n  jump\t// in\ntag_11:\n  pop\n  pop\n    /* \"StonersTown Contract/STW.sol\":31365:31366  1 */\n  0x01\n    /* \"StonersTown Contract/STW.sol\":31153:31166  _currentIndex */\n  0x00\n    /* \"StonersTown Contract/STW.sol\":31153:31184  _currentIndex = _startTokenId() */\n  sstore\n  pop\n    /* \"StonersTown Contract/STW.sol\":8670:8702  _transferOwnership(_msgSender()) */\n  tag_15\n    /* \"StonersTown Contract/STW.sol\":7632:7642  msg.sender */\n  caller\n    /* \"StonersTown Contract/STW.sol\":8670:8688  _transferOwnership */\n  tag_18\n    /* \"StonersTown Contract/STW.sol\":8670:8702  _transferOwnership(_msgSender()) */\n  jump\t// in\ntag_15:\n    /* \"StonersTown Contract/STW.sol\":3878:3879  1 */\n  0x01\n    /* \"StonersTown Contract/STW.sol\":3983:3990  _status */\n  0x09\n    /* \"StonersTown Contract/STW.sol\":3983:4005  _status = _NOT_ENTERED */\n  sstore\n    /* \"StonersTown Contract/STW.sol\":50032:50040  budPrice */\n  0x0a\n    /* \"StonersTown Contract/STW.sol\":50032:50048  budPrice = price */\n  dup8\n  swap1\n  sstore\n    /* \"StonersTown Contract/STW.sol\":50058:50065  maxbuds */\n  0x0b\n    /* \"StonersTown Contract/STW.sol\":50058:50077  maxbuds = maxSupply */\n  dup7\n  swap1\n  sstore\n    /* \"StonersTown Contract/STW.sol\":50087:50106  weedStore = baseUri */\n  dup5\n  mload\n  tag_21\n  swap1\n    /* \"StonersTown Contract/STW.sol\":50087:50096  weedStore */\n  0x0c\n  swap1\n    /* \"StonersTown Contract/STW.sol\":50087:50106  weedStore = baseUri */\n  0x20\n  dup9\n  add\n  swap1\n  tag_10\n  jump\t// in\ntag_21:\n  pop\n    /* \"StonersTown Contract/STW.sol\":50116:50132  freeBudPerWallet */\n  0x0d\n    /* \"StonersTown Contract/STW.sol\":50116:50152  freeBudPerWallet = freeMintAllowance */\n  swap4\n  swap1\n  swap4\n  sstore\n    /* \"StonersTown Contract/STW.sol\":50162:50176  maxBudPerTrans */\n  0x0e\n    /* \"StonersTown Contract/STW.sol\":50162:50191  maxBudPerTrans = maxMintPerTx */\n  swap2\n  swap1\n  swap2\n  sstore\n    /* \"StonersTown Contract/STW.sol\":50201:50215  IS_SALE_ACTIVE */\n  0x0f\n    /* \"StonersTown Contract/STW.sol\":50201:50230  IS_SALE_ACTIVE = isSaleActive */\n  dup1\n  sload\n  not(0xff)\n  and\n  swap2\n  iszero\n  iszero\n  swap2\n  swap1\n  swap2\n  or\n  swap1\n  sstore\n    /* \"StonersTown Contract/STW.sol\":50240:50259  freeBudAllowedUntil */\n  0x10\n    /* \"StonersTown Contract/STW.sol\":50240:50284  freeBudAllowedUntil = freeMintIsAllowedUntil */\n  sstore\n  pop\n    /* \"StonersTown Contract/STW.sol\":49335:53467  contract StonersTownWtf is ERC721A, Ownable, ReentrancyGuard {... */\n  tag_37\n  swap2\n  pop\n  pop\n  jump\n    /* \"StonersTown Contract/STW.sol\":10019:10206  function _transferOwnership(address newOwner) internal virtual {... */\ntag_18:\n    /* \"StonersTown Contract/STW.sol\":10111:10117  _owner */\n  0x08\n  dup1\n  sload\n  sub(shl(0xa0, 0x01), 0x01)\n    /* \"StonersTown Contract/STW.sol\":10127:10144  _owner = newOwner */\n  dup4\n  dup2\n  and\n  not(sub(shl(0xa0, 0x01), 0x01))\n  dup4\n  and\n  dup2\n  or\n  swap1\n  swap4\n  sstore\n    /* \"StonersTown Contract/STW.sol\":10159:10199  OwnershipTransferred(oldOwner, newOwner) */\n  mload(0x40)\n    /* \"StonersTown Contract/STW.sol\":10111:10117  _owner */\n  swap2\n  and\n  swap2\n    /* \"StonersTown Contract/STW.sol\":10127:10144  _owner = newOwner */\n  swap1\n    /* \"StonersTown Contract/STW.sol\":10111:10117  _owner */\n  dup3\n  swap1\n    /* \"StonersTown Contract/STW.sol\":10159:10199  OwnershipTransferred(oldOwner, newOwner) */\n  0x8be0079c531659141344cd1fd0a4f28419497f9722a3daafe3b4186f6b6457e0\n  swap1\n    /* \"StonersTown Contract/STW.sol\":10092:10108  address oldOwner */\n  0x00\n  swap1\n    /* \"StonersTown Contract/STW.sol\":10159:10199  OwnershipTransferred(oldOwner, newOwner) */\n  log3\n    /* \"StonersTown Contract/STW.sol\":10082:10206  {... */\n  pop\n    /* \"StonersTown Contract/STW.sol\":10019:10206  function _transferOwnership(address newOwner) internal virtual {... */\n  pop\n  jump\t// out\n    /* \"StonersTown Contract/STW.sol\":49335:53467  contract StonersTownWtf is ERC721A, Ownable, ReentrancyGuard {... */\ntag_10:\n  dup3\n  dup1\n  sload\n  tag_26\n  swap1\n  tag_27\n  jump\t// in\ntag_26:\n  swap1\n  0x00\n  mstore\n  keccak256(0x00, 0x20)\n  swap1\n  0x1f\n  add\n  0x20\n  swap1\n  div\n  dup2\n  add\n  swap3\n  dup3\n  tag_29\n  jumpi\n  0x00\n  dup6\n  sstore\n  jump(tag_32)\ntag_29:\n  dup3\n  0x1f\n  lt\n  tag_30\n  jumpi\n  dup1\n  mload\n  not(0xff)\n  and\n  dup4\n  dup1\n  add\n  or\n  dup6\n  sstore\n  jump(tag_32)\ntag_30:\n  dup3\n  dup1\n  add\n  0x01\n  add\n  dup6\n  sstore\n  dup3\n  iszero\n  tag_32\n  jumpi\n  swap2\n  dup3\n  add\ntag_31:\n  dup3\n  dup2\n  gt\n  iszero\n  tag_32\n  jumpi\n  dup3\n  mload\n  dup3\n  sstore\n  swap2\n  0x20\n  add\n  swap2\n  swap1\n  0x01\n  add\n  swap1\n  jump(tag_31)\ntag_32:\n  pop\n  tag_33\n  swap3\n  swap2\n  pop\n  tag_34\n  jump\t// in\ntag_33:\n  pop\n  swap1\n  jump\t// out\ntag_34:\ntag_35:\n  dup1\n  dup3\n  gt\n  iszero\n  tag_33\n  jumpi\n  0x00\n  dup2\n  sstore\n  0x01\n  add\n  jump(tag_35)\n    /* \"#utility.yul\":14:178   */\ntag_38:\n    /* \"#utility.yul\":90:103   */\n  dup1\n  mload\n    /* \"#utility.yul\":139:152   */\n  dup1\n  iszero\n    /* \"#utility.yul\":132:153   */\n  iszero\n    /* \"#utility.yul\":122:154   */\n  dup2\n  eq\n    /* \"#utility.yul\":112:172   */\n  tag_40\n  jumpi\n    /* \"#utility.yul\":168:169   */\n  0x00\n    /* \"#utility.yul\":165:166   */\n  dup1\n    /* \"#utility.yul\":158:170   */\n  revert\n    /* \"#utility.yul\":112:172   */\ntag_40:\n    /* \"#utility.yul\":14:178   */\n  swap2\n  swap1\n  pop\n  jump\t// out\n    /* \"#utility.yul\":183:1658   */\ntag_3:\n    /* \"#utility.yul\":314:320   */\n  0x00\n    /* \"#utility.yul\":322:328   */\n  dup1\n    /* \"#utility.yul\":330:336   */\n  0x00\n    /* \"#utility.yul\":338:344   */\n  dup1\n    /* \"#utility.yul\":346:352   */\n  0x00\n    /* \"#utility.yul\":354:360   */\n  dup1\n    /* \"#utility.yul\":362:368   */\n  0x00\n    /* \"#utility.yul\":415:418   */\n  0xe0\n    /* \"#utility.yul\":403:412   */\n  dup9\n    /* \"#utility.yul\":394:401   */\n  dup11\n    /* \"#utility.yul\":390:413   */\n  sub\n    /* \"#utility.yul\":386:419   */\n  slt\n    /* \"#utility.yul\":383:436   */\n  iszero\n  tag_42\n  jumpi\n    /* \"#utility.yul\":432:433   */\n  0x00\n    /* \"#utility.yul\":429:430   */\n  dup1\n    /* \"#utility.yul\":422:434   */\n  revert\n    /* \"#utility.yul\":383:436   */\ntag_42:\n    /* \"#utility.yul\":455:471   */\n  dup8\n  mload\n    /* \"#utility.yul\":490:492   */\n  0x20\n    /* \"#utility.yul\":517:535   */\n  dup1\n  dup11\n  add\n    /* \"#utility.yul\":511:536   */\n  mload\n    /* \"#utility.yul\":580:582   */\n  0x40\n    /* \"#utility.yul\":565:583   */\n  dup12\n  add\n    /* \"#utility.yul\":559:584   */\n  mload\n    /* \"#utility.yul\":455:471   */\n  swap3\n  swap10\n  pop\n    /* \"#utility.yul\":511:536   */\n  swap8\n  pop\n    /* \"#utility.yul\":490:492   */\n  swap1\n  sub(shl(0x40, 0x01), 0x01)\n    /* \"#utility.yul\":633:647   */\n  dup1\n  dup3\n  gt\n    /* \"#utility.yul\":630:664   */\n  iszero\n  tag_43\n  jumpi\n    /* \"#utility.yul\":660:661   */\n  0x00\n    /* \"#utility.yul\":657:658   */\n  dup1\n    /* \"#utility.yul\":650:662   */\n  revert\n    /* \"#utility.yul\":630:664   */\ntag_43:\n    /* \"#utility.yul\":698:704   */\n  dup2\n    /* \"#utility.yul\":687:696   */\n  dup12\n    /* \"#utility.yul\":683:705   */\n  add\n    /* \"#utility.yul\":673:705   */\n  swap2\n  pop\n    /* \"#utility.yul\":743:750   */\n  dup12\n    /* \"#utility.yul\":736:740   */\n  0x1f\n    /* \"#utility.yul\":732:734   */\n  dup4\n    /* \"#utility.yul\":728:741   */\n  add\n    /* \"#utility.yul\":724:751   */\n  slt\n    /* \"#utility.yul\":714:769   */\n  tag_44\n  jumpi\n    /* \"#utility.yul\":765:766   */\n  0x00\n    /* \"#utility.yul\":762:763   */\n  dup1\n    /* \"#utility.yul\":755:767   */\n  revert\n    /* \"#utility.yul\":714:769   */\ntag_44:\n    /* \"#utility.yul\":794:796   */\n  dup2\n    /* \"#utility.yul\":788:797   */\n  mload\n    /* \"#utility.yul\":816:818   */\n  dup2\n    /* \"#utility.yul\":812:814   */\n  dup2\n    /* \"#utility.yul\":809:819   */\n  gt\n    /* \"#utility.yul\":806:842   */\n  iszero\n  tag_46\n  jumpi\n    /* \"#utility.yul\":822:840   */\n  tag_46\n  tag_47\n  jump\t// in\ntag_46:\n    /* \"#utility.yul\":897:899   */\n  0x40\n    /* \"#utility.yul\":891:900   */\n  mload\n    /* \"#utility.yul\":865:867   */\n  0x1f\n    /* \"#utility.yul\":951:964   */\n  dup3\n  add\n  not(0x1f)\n    /* \"#utility.yul\":947:969   */\n  swap1\n  dup2\n  and\n    /* \"#utility.yul\":971:973   */\n  0x3f\n    /* \"#utility.yul\":943:974   */\n  add\n    /* \"#utility.yul\":939:979   */\n  and\n    /* \"#utility.yul\":927:980   */\n  dup2\n  add\n  swap1\n    /* \"#utility.yul\":995:1013   */\n  dup4\n  dup3\n  gt\n    /* \"#utility.yul\":1015:1037   */\n  dup2\n  dup4\n  lt\n    /* \"#utility.yul\":992:1038   */\n  or\n    /* \"#utility.yul\":989:1061   */\n  iszero\n  tag_49\n  jumpi\n    /* \"#utility.yul\":1041:1059   */\n  tag_49\n  tag_47\n  jump\t// in\ntag_49:\n    /* \"#utility.yul\":1081:1091   */\n  dup2\n    /* \"#utility.yul\":1077:1079   */\n  0x40\n    /* \"#utility.yul\":1070:1092   */\n  mstore\n    /* \"#utility.yul\":1116:1118   */\n  dup3\n    /* \"#utility.yul\":1108:1114   */\n  dup2\n    /* \"#utility.yul\":1101:1119   */\n  mstore\n    /* \"#utility.yul\":1156:1163   */\n  dup15\n    /* \"#utility.yul\":1151:1153   */\n  dup7\n    /* \"#utility.yul\":1146:1148   */\n  dup5\n    /* \"#utility.yul\":1142:1144   */\n  dup8\n    /* \"#utility.yul\":1138:1149   */\n  add\n    /* \"#utility.yul\":1134:1154   */\n  add\n    /* \"#utility.yul\":1131:1164   */\n  gt\n    /* \"#utility.yul\":1128:1181   */\n  iszero\n  tag_50\n  jumpi\n    /* \"#utility.yul\":1177:1178   */\n  0x00\n    /* \"#utility.yul\":1174:1175   */\n  dup1\n    /* \"#utility.yul\":1167:1179   */\n  revert\n    /* \"#utility.yul\":1128:1181   */\ntag_50:\n    /* \"#utility.yul\":1199:1200   */\n  0x00\n    /* \"#utility.yul\":1190:1200   */\n  swap4\n  pop\n    /* \"#utility.yul\":1209:1338   */\ntag_51:\n    /* \"#utility.yul\":1223:1225   */\n  dup3\n    /* \"#utility.yul\":1220:1221   */\n  dup5\n    /* \"#utility.yul\":1217:1226   */\n  lt\n    /* \"#utility.yul\":1209:1338   */\n  iszero\n  tag_53\n  jumpi\n    /* \"#utility.yul\":1311:1321   */\n  dup5\n  dup5\n  add\n    /* \"#utility.yul\":1307:1326   */\n  dup7\n  add\n    /* \"#utility.yul\":1301:1327   */\n  mload\n    /* \"#utility.yul\":1280:1294   */\n  dup2\n  dup6\n  add\n    /* \"#utility.yul\":1276:1299   */\n  dup8\n  add\n    /* \"#utility.yul\":1269:1328   */\n  mstore\n    /* \"#utility.yul\":1234:1244   */\n  swap3\n  dup6\n  add\n  swap3\n    /* \"#utility.yul\":1209:1338   */\n  jump(tag_51)\ntag_53:\n    /* \"#utility.yul\":1356:1358   */\n  dup3\n    /* \"#utility.yul\":1353:1354   */\n  dup5\n    /* \"#utility.yul\":1350:1359   */\n  gt\n    /* \"#utility.yul\":1347:1427   */\n  iszero\n  tag_54\n  jumpi\n    /* \"#utility.yul\":1415:1416   */\n  0x00\n    /* \"#utility.yul\":1410:1412   */\n  dup7\n    /* \"#utility.yul\":1405:1407   */\n  dup5\n    /* \"#utility.yul\":1397:1403   */\n  dup4\n    /* \"#utility.yul\":1393:1408   */\n  add\n    /* \"#utility.yul\":1389:1413   */\n  add\n    /* \"#utility.yul\":1382:1417   */\n  mstore\n    /* \"#utility.yul\":1347:1427   */\ntag_54:\n    /* \"#utility.yul\":1446:1452   */\n  dup1\n    /* \"#utility.yul\":1436:1452   */\n  swap11\n  pop\n  pop\n  pop\n  pop\n  pop\n  pop\n  pop\n    /* \"#utility.yul\":1492:1494   */\n  0x60\n    /* \"#utility.yul\":1481:1490   */\n  dup9\n    /* \"#utility.yul\":1477:1495   */\n  add\n    /* \"#utility.yul\":1471:1496   */\n  mload\n    /* \"#utility.yul\":1461:1496   */\n  swap4\n  pop\n    /* \"#utility.yul\":1536:1539   */\n  0x80\n    /* \"#utility.yul\":1525:1534   */\n  dup9\n    /* \"#utility.yul\":1521:1540   */\n  add\n    /* \"#utility.yul\":1515:1541   */\n  mload\n    /* \"#utility.yul\":1505:1541   */\n  swap3\n  pop\n    /* \"#utility.yul\":1560:1607   */\n  tag_55\n    /* \"#utility.yul\":1602:1605   */\n  0xa0\n    /* \"#utility.yul\":1591:1600   */\n  dup10\n    /* \"#utility.yul\":1587:1606   */\n  add\n    /* \"#utility.yul\":1560:1607   */\n  tag_38\n  jump\t// in\ntag_55:\n    /* \"#utility.yul\":1550:1607   */\n  swap2\n  pop\n    /* \"#utility.yul\":1647:1650   */\n  0xc0\n    /* \"#utility.yul\":1636:1645   */\n  dup9\n    /* \"#utility.yul\":1632:1651   */\n  add\n    /* \"#utility.yul\":1626:1652   */\n  mload\n    /* \"#utility.yul\":1616:1652   */\n  swap1\n  pop\n    /* \"#utility.yul\":183:1658   */\n  swap3\n  swap6\n  swap9\n  swap2\n  swap5\n  swap8\n  pop\n  swap3\n  swap6\n  pop\n  jump\t// out\n    /* \"#utility.yul\":1663:2043   */\ntag_27:\n    /* \"#utility.yul\":1742:1743   */\n  0x01\n    /* \"#utility.yul\":1738:1750   */\n  dup2\n  dup2\n  shr\n  swap1\n    /* \"#utility.yul\":1785:1797   */\n  dup3\n  and\n  dup1\n    /* \"#utility.yul\":1806:1867   */\n  tag_57\n  jumpi\n    /* \"#utility.yul\":1860:1864   */\n  0x7f\n    /* \"#utility.yul\":1852:1858   */\n  dup3\n    /* \"#utility.yul\":1848:1865   */\n  and\n    /* \"#utility.yul\":1838:1865   */\n  swap2\n  pop\n    /* \"#utility.yul\":1806:1867   */\ntag_57:\n    /* \"#utility.yul\":1913:1915   */\n  0x20\n    /* \"#utility.yul\":1905:1911   */\n  dup3\n    /* \"#utility.yul\":1902:1916   */\n  lt\n    /* \"#utility.yul\":1882:1900   */\n  dup2\n    /* \"#utility.yul\":1879:1917   */\n  eq\n    /* \"#utility.yul\":1876:2037   */\n  iszero\n  tag_58\n  jumpi\n    /* \"#utility.yul\":1959:1969   */\n  0x4e487b71\n    /* \"#utility.yul\":1954:1957   */\n  0xe0\n    /* \"#utility.yul\":1950:1970   */\n  shl\n    /* \"#utility.yul\":1947:1948   */\n  0x00\n    /* \"#utility.yul\":1940:1971   */\n  mstore\n    /* \"#utility.yul\":1994:1998   */\n  0x22\n    /* \"#utility.yul\":1991:1992   */\n  0x04\n    /* \"#utility.yul\":1984:1999   */\n  mstore\n    /* \"#utility.yul\":2022:2026   */\n  0x24\n    /* \"#utility.yul\":2019:2020   */\n  0x00\n    /* \"#utility.yul\":2012:2027   */\n  revert\n    /* \"#utility.yul\":1876:2037   */\ntag_58:\n  pop\n    /* \"#utility.yul\":1663:2043   */\n  swap2\n  swap1\n  pop\n  jump\t// out\n    /* \"#utility.yul\":2048:2175   */\ntag_47:\n    /* \"#utility.yul\":2109:2119   */\n  0x4e487b71\n    /* \"#utility.yul\":2104:2107   */\n  0xe0\n    /* \"#utility.yul\":2100:2120   */\n  shl\n    /* \"#utility.yul\":2097:2098   */\n  0x00\n    /* \"#utility.yul\":2090:2121   */\n  mstore\n    /* \"#utility.yul\":2140:2144   */\n  0x41\n    /* \"#utility.yul\":2137:2138   */\n  0x04\n    /* \"#utility.yul\":2130:2145   */\n  mstore\n    /* \"#utility.yul\":2164:2168   */\n  0x24\n    /* \"#utility.yul\":2161:2162   */\n  0x00\n    /* \"#utility.yul\":2154:2169   */\n  revert\n    /* \"#utility.yul\":2048:2175   */\ntag_37:\n    /* \"StonersTown Contract/STW.sol\":49335:53467  contract StonersTownWtf is ERC721A, Ownable, ReentrancyGuard {... */\n  dataSize(sub_0)\n  dup1\n  dataOffset(sub_0)\n  0x00\n  codecopy\n  0x00\n  return\nstop\n\nsub_0: assembly {\n        /* \"StonersTown Contract/STW.sol\":49335:53467  contract StonersTownWtf is ERC721A, Ownable, ReentrancyGuard {... */\n      mstore(0x40, 0x80)\n      jumpi(tag_1, lt(calldatasize, 0x04))\n      shr(0xe0, calldataload(0x00))\n      dup1\n      0x841718a6\n      gt\n      tag_37\n      jumpi\n      dup1\n      0xc4e9374d\n      gt\n      tag_38\n      jumpi\n      dup1\n      0xe1b5a272\n      gt\n      tag_39\n      jumpi\n      dup1\n      0xe1b5a272\n      eq\n      tag_32\n      jumpi\n      dup1\n      0xe985e9c5\n      eq\n      tag_33\n      jumpi\n      dup1\n      0xeae9c95d\n      eq\n      tag_34\n      jumpi\n      dup1\n      0xf2fde38b\n      eq\n      tag_35\n      jumpi\n      dup1\n      0xfdb4953a\n      eq\n      tag_36\n      jumpi\n      0x00\n      dup1\n      revert\n    tag_39:\n      dup1\n      0xc4e9374d\n      eq\n      tag_28\n      jumpi\n      dup1\n      0xc87b56dd\n      eq\n      tag_29\n      jumpi\n      dup1\n      0xc8eca562\n      eq\n      tag_30\n      jumpi\n      dup1\n      0xd111515d\n      eq\n      tag_31\n      jumpi\n      0x00\n      dup1\n      revert\n    tag_38:\n      dup1\n      0x95d89b41\n      gt\n      tag_40\n      jumpi\n      dup1\n      0x95d89b41\n      eq\n      tag_23\n      jumpi\n      dup1\n      0xa0712d68\n      eq\n      tag_24\n      jumpi\n      dup1\n      0xa22cb465\n      eq\n      tag_25\n      jumpi\n      dup1\n      0xb0551ac4\n      eq\n      tag_26\n      jumpi\n      dup1\n      0xb88d4fde\n      eq\n      tag_27\n      jumpi\n      0x00\n      dup1\n      revert\n    tag_40:\n      dup1\n      0x841718a6\n      eq\n      tag_19\n      jumpi\n      dup1\n      0x8b85e43d\n      eq\n      tag_20\n      jumpi\n      dup1\n      0x8da5cb5b\n      eq\n      tag_21\n      jumpi\n      dup1\n      0x91b7f5ed\n      eq\n      tag_22\n      jumpi\n      0x00\n      dup1\n      revert\n    tag_37:\n      dup1\n      0x408cbf94\n      gt\n      tag_41\n      jumpi\n      dup1\n      0x616cdb1e\n      gt\n      tag_42\n      jumpi\n      dup1\n      0x616cdb1e\n      eq\n      tag_14\n      jumpi\n      dup1\n      0x6352211e\n      eq\n      tag_15\n      jumpi\n      dup1\n      0x70a08231\n      eq\n      tag_16\n      jumpi\n      dup1\n      0x715018a6\n      eq\n      tag_17\n      jumpi\n      dup1\n      0x76d02b71\n      eq\n      tag_18\n      jumpi\n      0x00\n      dup1\n      revert\n    tag_42:\n      dup1\n      0x408cbf94\n      eq\n      tag_10\n      jumpi\n      dup1\n      0x42842e0e\n      eq\n      tag_11\n      jumpi\n      dup1\n      0x5381f6e2\n      eq\n      tag_12\n      jumpi\n      dup1\n      0x55f804b3\n      eq\n      tag_13\n      jumpi\n      0x00\n      dup1\n      revert\n    tag_41:\n      dup1\n      0x18160ddd\n      gt\n      tag_43\n      jumpi\n      dup1\n      0x18160ddd\n      eq\n      tag_6\n      jumpi\n      dup1\n      0x23b872dd\n      eq\n      tag_7\n      jumpi\n      dup1\n      0x28cb250f\n      eq\n      tag_8\n      jumpi\n      dup1\n      0x3ccfd60b\n      eq\n      tag_9\n      jumpi\n      0x00\n      dup1\n      revert\n    tag_43:\n      dup1\n      0x01ffc9a7\n      eq\n      tag_2\n      jumpi\n      dup1\n      0x06fdde03\n      eq\n      tag_3\n      jumpi\n      dup1\n      0x081812fc\n      eq\n      tag_4\n      jumpi\n      dup1\n      0x095ea7b3\n      eq\n      tag_5\n      jumpi\n    tag_1:\n      0x00\n      dup1\n      revert\n        /* \"StonersTown Contract/STW.sol\":32280:32580  function supportsInterface(bytes4 interfaceId) public view virtual override(ERC165, IERC165) returns (bool) {... */\n    tag_2:\n      callvalue\n      dup1\n      iszero\n      tag_44\n      jumpi\n      0x00\n      dup1\n      revert\n    tag_44:\n      pop\n      tag_45\n      tag_46\n      calldatasize\n      0x04\n      tag_47\n      jump\t// in\n    tag_46:\n      tag_48\n      jump\t// in\n    tag_45:\n      mload(0x40)\n        /* \"#utility.yul\":6280:6294   */\n      swap1\n      iszero\n        /* \"#utility.yul\":6273:6295   */\n      iszero\n        /* \"#utility.yul\":6255:6296   */\n      dup2\n      mstore\n        /* \"#utility.yul\":6243:6245   */\n      0x20\n        /* \"#utility.yul\":6228:6246   */\n      add\n        /* \"StonersTown Contract/STW.sol\":32280:32580  function supportsInterface(bytes4 interfaceId) public view virtual override(ERC165, IERC165) returns (bool) {... */\n    tag_49:\n      mload(0x40)\n      dup1\n      swap2\n      sub\n      swap1\n      return\n        /* \"StonersTown Contract/STW.sol\":35576:35674  function name() public view virtual override returns (string memory) {... */\n    tag_3:\n      callvalue\n      dup1\n      iszero\n      tag_51\n      jumpi\n      0x00\n      dup1\n      revert\n    tag_51:\n      pop\n      tag_52\n      tag_53\n      jump\t// in\n    tag_52:\n      mload(0x40)\n      tag_49\n      swap2\n      swap1\n      tag_55\n      jump\t// in\n        /* \"StonersTown Contract/STW.sol\":37041:37241  function getApproved(uint256 tokenId) public view override returns (address) {... */\n    tag_4:\n      callvalue\n      dup1\n      iszero\n      tag_56\n      jumpi\n      0x00\n      dup1\n      revert\n    tag_56:\n      pop\n      tag_57\n      tag_58\n      calldatasize\n      0x04\n      tag_59\n      jump\t// in\n    tag_58:\n      tag_60\n      jump\t// in\n    tag_57:\n      mload(0x40)\n      sub(shl(0xa0, 0x01), 0x01)\n        /* \"#utility.yul\":5578:5610   */\n      swap1\n      swap2\n      and\n        /* \"#utility.yul\":5560:5611   */\n      dup2\n      mstore\n        /* \"#utility.yul\":5548:5550   */\n      0x20\n        /* \"#utility.yul\":5533:5551   */\n      add\n        /* \"StonersTown Contract/STW.sol\":37041:37241  function getApproved(uint256 tokenId) public view override returns (address) {... */\n      tag_49\n        /* \"#utility.yul\":5414:5617   */\n      jump\n        /* \"StonersTown Contract/STW.sol\":36618:36980  function approve(address to, uint256 tokenId) public override {... */\n    tag_5:\n      callvalue\n      dup1\n      iszero\n      tag_63\n      jumpi\n      0x00\n      dup1\n      revert\n    tag_63:\n      pop\n      tag_64\n      tag_65\n      calldatasize\n      0x04\n      tag_66\n      jump\t// in\n    tag_65:\n      tag_67\n      jump\t// in\n    tag_64:\n      stop\n        /* \"StonersTown Contract/STW.sol\":31551:31848  function totalSupply() public view returns (uint256) {... */\n    tag_6:\n      callvalue\n      dup1\n      iszero\n      tag_68\n      jumpi\n      0x00\n      dup1\n      revert\n    tag_68:\n      pop\n        /* \"StonersTown Contract/STW.sol\":31365:31366  1 */\n      0x01\n        /* \"StonersTown Contract/STW.sol\":31801:31813  _burnCounter */\n      sload\n        /* \"StonersTown Contract/STW.sol\":31595:31602  uint256 */\n      0x00\n        /* \"StonersTown Contract/STW.sol\":31785:31798  _currentIndex */\n      sload\n        /* \"StonersTown Contract/STW.sol\":31785:31813  _currentIndex - _burnCounter */\n      sub\n      not(0x00)\n        /* \"StonersTown Contract/STW.sol\":31785:31831  _currentIndex - _burnCounter - _startTokenId() */\n      add\n        /* \"StonersTown Contract/STW.sol\":31551:31848  function totalSupply() public view returns (uint256) {... */\n    tag_69:\n      mload(0x40)\n        /* \"#utility.yul\":10680:10705   */\n      swap1\n      dup2\n      mstore\n        /* \"#utility.yul\":10668:10670   */\n      0x20\n        /* \"#utility.yul\":10653:10671   */\n      add\n        /* \"StonersTown Contract/STW.sol\":31551:31848  function totalSupply() public view returns (uint256) {... */\n      tag_49\n        /* \"#utility.yul\":10534:10711   */\n      jump\n        /* \"StonersTown Contract/STW.sol\":37872:38036  function transferFrom(... */\n    tag_7:\n      callvalue\n      dup1\n      iszero\n      tag_73\n      jumpi\n      0x00\n      dup1\n      revert\n    tag_73:\n      pop\n      tag_64\n      tag_75\n      calldatasize\n      0x04\n      tag_76\n      jump\t// in\n    tag_75:\n      tag_77\n      jump\t// in\n        /* \"StonersTown Contract/STW.sol\":49558:49587  uint256 public maxBudPerTrans */\n    tag_8:\n      callvalue\n      dup1\n      iszero\n      tag_78\n      jumpi\n      0x00\n      dup1\n      revert\n    tag_78:\n      pop\n      tag_69\n      sload(0x0e)\n      dup2\n      jump\n        /* \"StonersTown Contract/STW.sol\":53298:53465  function withdraw() public onlyOwner nonReentrant {... */\n    tag_9:\n      callvalue\n      dup1\n      iszero\n      tag_82\n      jumpi\n      0x00\n      dup1\n      revert\n    tag_82:\n      pop\n      tag_64\n      tag_84\n      jump\t// in\n        /* \"StonersTown Contract/STW.sol\":53002:53172  function mintOwner(address _to, uint256 _mintAmount)... */\n    tag_10:\n      callvalue\n      dup1\n      iszero\n      tag_85\n      jumpi\n      0x00\n      dup1\n      revert\n    tag_85:\n      pop\n      tag_64\n      tag_87\n      calldatasize\n      0x04\n      tag_66\n      jump\t// in\n    tag_87:\n      tag_88\n      jump\t// in\n        /* \"StonersTown Contract/STW.sol\":38102:38281  function safeTransferFrom(... */\n    tag_11:\n      callvalue\n      dup1\n      iszero\n      tag_89\n      jumpi\n      0x00\n      dup1\n      revert\n    tag_89:\n      pop\n      tag_64\n      tag_91\n      calldatasize\n      0x04\n      tag_76\n      jump\t// in\n    tag_91:\n      tag_92\n      jump\t// in\n        /* \"StonersTown Contract/STW.sol\":49521:49552  uint256 public freeBudPerWallet */\n    tag_12:\n      callvalue\n      dup1\n      iszero\n      tag_93\n      jumpi\n      0x00\n      dup1\n      revert\n    tag_93:\n      pop\n      tag_69\n      sload(0x0d)\n      dup2\n      jump\n        /* \"StonersTown Contract/STW.sol\":50954:51121  function setBaseURI(string memory customBaseURI_) external onlyOwner {... */\n    tag_13:\n      callvalue\n      dup1\n      iszero\n      tag_97\n      jumpi\n      0x00\n      dup1\n      revert\n    tag_97:\n      pop\n      tag_64\n      tag_99\n      calldatasize\n      0x04\n      tag_100\n      jump\t// in\n    tag_99:\n      tag_101\n      jump\t// in\n        /* \"StonersTown Contract/STW.sol\":51282:51394  function setMaxMintPerTx(uint256 maxMintPerTx) external onlyOwner {... */\n    tag_14:\n      callvalue\n      dup1\n      iszero\n      tag_102\n      jumpi\n      0x00\n      dup1\n      revert\n    tag_102:\n      pop\n      tag_64\n      tag_104\n      calldatasize\n      0x04\n      tag_59\n      jump\t// in\n    tag_104:\n      tag_105\n      jump\t// in\n        /* \"StonersTown Contract/STW.sol\":35392:35514  function ownerOf(uint256 tokenId) public view override returns (address) {... */\n    tag_15:\n      callvalue\n      dup1\n      iszero\n      tag_106\n      jumpi\n      0x00\n      dup1\n      revert\n    tag_106:\n      pop\n      tag_57\n      tag_108\n      calldatasize\n      0x04\n      tag_59\n      jump\t// in\n    tag_108:\n      tag_109\n      jump\t// in\n        /* \"StonersTown Contract/STW.sol\":32639:32842  function balanceOf(address owner) public view override returns (uint256) {... */\n    tag_16:\n      callvalue\n      dup1\n      iszero\n      tag_111\n      jumpi\n      0x00\n      dup1\n      revert\n    tag_111:\n      pop\n      tag_69\n      tag_113\n      calldatasize\n      0x04\n      tag_114\n      jump\t// in\n    tag_113:\n      tag_115\n      jump\t// in\n        /* \"StonersTown Contract/STW.sol\":9417:9518  function renounceOwnership() public virtual onlyOwner {... */\n    tag_17:\n      callvalue\n      dup1\n      iszero\n      tag_117\n      jumpi\n      0x00\n      dup1\n      revert\n    tag_117:\n      pop\n      tag_64\n      tag_119\n      jump\t// in\n        /* \"StonersTown Contract/STW.sol\":49593:49619  bool public IS_SALE_ACTIVE */\n    tag_18:\n      callvalue\n      dup1\n      iszero\n      tag_120\n      jumpi\n      0x00\n      dup1\n      revert\n    tag_120:\n      pop\n      sload(0x0f)\n      tag_45\n      swap1\n      0xff\n      and\n      dup2\n      jump\n        /* \"StonersTown Contract/STW.sol\":51400:51507  function setSaleActive(bool saleIsActive) external onlyOwner {... */\n    tag_19:\n      callvalue\n      dup1\n      iszero\n      tag_124\n      jumpi\n      0x00\n      dup1\n      revert\n    tag_124:\n      pop\n      tag_64\n      tag_126\n      calldatasize\n      0x04\n      tag_127\n      jump\t// in\n    tag_126:\n      tag_128\n      jump\t// in\n        /* \"StonersTown Contract/STW.sol\":51513:51678  function setFreeMintAllowedUntil(uint256 freeMintIsAllowedUntil)... */\n    tag_20:\n      callvalue\n      dup1\n      iszero\n      tag_129\n      jumpi\n      0x00\n      dup1\n      revert\n    tag_129:\n      pop\n      tag_64\n      tag_131\n      calldatasize\n      0x04\n      tag_59\n      jump\t// in\n    tag_131:\n      tag_132\n      jump\t// in\n        /* \"StonersTown Contract/STW.sol\":8785:8870  function owner() public view virtual returns (address) {... */\n    tag_21:\n      callvalue\n      dup1\n      iszero\n      tag_133\n      jumpi\n      0x00\n      dup1\n      revert\n    tag_133:\n      pop\n        /* \"StonersTown Contract/STW.sol\":8857:8863  _owner */\n      and(sub(shl(0xa0, 0x01), 0x01), sload(0x08))\n        /* \"StonersTown Contract/STW.sol\":8785:8870  function owner() public view virtual returns (address) {... */\n      jump(tag_57)\n        /* \"StonersTown Contract/STW.sol\":50600:50697  function setPrice(uint256 customPrice) external onlyOwner {... */\n    tag_22:\n      callvalue\n      dup1\n      iszero\n      tag_137\n      jumpi\n      0x00\n      dup1\n      revert\n    tag_137:\n      pop\n      tag_64\n      tag_139\n      calldatasize\n      0x04\n      tag_59\n      jump\t// in\n    tag_139:\n      tag_140\n      jump\t// in\n        /* \"StonersTown Contract/STW.sol\":35738:35840  function symbol() public view virtual override returns (string memory) {... */\n    tag_23:\n      callvalue\n      dup1\n      iszero\n      tag_141\n      jumpi\n      0x00\n      dup1\n      revert\n    tag_141:\n      pop\n      tag_52\n      tag_143\n      jump\t// in\n        /* \"StonersTown Contract/STW.sol\":52101:52996  function mint(uint256 _mintAmount)... */\n    tag_24:\n      tag_64\n      tag_146\n      calldatasize\n      0x04\n      tag_59\n      jump\t// in\n    tag_146:\n      tag_147\n      jump\t// in\n        /* \"StonersTown Contract/STW.sol\":37308:37582  function setApprovalForAll(address operator, bool approved) public override {... */\n    tag_25:\n      callvalue\n      dup1\n      iszero\n      tag_148\n      jumpi\n      0x00\n      dup1\n      revert\n    tag_148:\n      pop\n      tag_64\n      tag_150\n      calldatasize\n      0x04\n      tag_151\n      jump\t// in\n    tag_150:\n      tag_152\n      jump\t// in\n        /* \"StonersTown Contract/STW.sol\":51127:51276  function setFreeMintAllowance(uint256 freeMintAllowance)... */\n    tag_26:\n      callvalue\n      dup1\n      iszero\n      tag_153\n      jumpi\n      0x00\n      dup1\n      revert\n    tag_153:\n      pop\n      tag_64\n      tag_155\n      calldatasize\n      0x04\n      tag_59\n      jump\t// in\n    tag_155:\n      tag_156\n      jump\t// in\n        /* \"StonersTown Contract/STW.sol\":38347:38706  function safeTransferFrom(... */\n    tag_27:\n      callvalue\n      dup1\n      iszero\n      tag_157\n      jumpi\n      0x00\n      dup1\n      revert\n    tag_157:\n      pop\n      tag_64\n      tag_159\n      calldatasize\n      0x04\n      tag_160\n      jump\t// in\n    tag_159:\n      tag_161\n      jump\t// in\n        /* \"StonersTown Contract/STW.sol\":50703:50948  function lowerMaxSupply(uint256 newMaxSupply) external onlyOwner {... */\n    tag_28:\n      callvalue\n      dup1\n      iszero\n      tag_162\n      jumpi\n      0x00\n      dup1\n      revert\n    tag_162:\n      pop\n      tag_64\n      tag_164\n      calldatasize\n      0x04\n      tag_59\n      jump\t// in\n    tag_164:\n      tag_165\n      jump\t// in\n        /* \"StonersTown Contract/STW.sol\":35906:36228  function tokenURI(uint256 tokenId) public view virtual override returns (string memory) {... */\n    tag_29:\n      callvalue\n      dup1\n      iszero\n      tag_166\n      jumpi\n      0x00\n      dup1\n      revert\n    tag_166:\n      pop\n      tag_52\n      tag_168\n      calldatasize\n      0x04\n      tag_59\n      jump\t// in\n    tag_168:\n      tag_169\n      jump\t// in\n        /* \"StonersTown Contract/STW.sol\":49434:49457  uint256 public budPrice */\n    tag_30:\n      callvalue\n      dup1\n      iszero\n      tag_171\n      jumpi\n      0x00\n      dup1\n      revert\n    tag_171:\n      pop\n      tag_69\n      sload(0x0a)\n      dup2\n      jump\n        /* \"StonersTown Contract/STW.sol\":51684:51768  function freezeMetadata() external onlyOwner {... */\n    tag_31:\n      callvalue\n      dup1\n      iszero\n      tag_175\n      jumpi\n      0x00\n      dup1\n      revert\n    tag_175:\n      pop\n      tag_64\n      tag_177\n      jump\t// in\n        /* \"StonersTown Contract/STW.sol\":49625:49659  uint256 public freeBudAllowedUntil */\n    tag_32:\n      callvalue\n      dup1\n      iszero\n      tag_178\n      jumpi\n      0x00\n      dup1\n      revert\n    tag_178:\n      pop\n      tag_69\n      sload(0x10)\n      dup2\n      jump\n        /* \"StonersTown Contract/STW.sol\":37648:37810  function isApprovedForAll(address owner, address operator) public view virtual override returns (bool) {... */\n    tag_33:\n      callvalue\n      dup1\n      iszero\n      tag_182\n      jumpi\n      0x00\n      dup1\n      revert\n    tag_182:\n      pop\n      tag_45\n      tag_184\n      calldatasize\n      0x04\n      tag_185\n      jump\t// in\n    tag_184:\n      sub(shl(0xa0, 0x01), 0x01)\n        /* \"StonersTown Contract/STW.sol\":37768:37793  _operatorApprovals[owner] */\n      swap2\n      dup3\n      and\n        /* \"StonersTown Contract/STW.sol\":37745:37749  bool */\n      0x00\n        /* \"StonersTown Contract/STW.sol\":37768:37793  _operatorApprovals[owner] */\n      swap1\n      dup2\n      mstore\n        /* \"StonersTown Contract/STW.sol\":37768:37786  _operatorApprovals */\n      0x07\n        /* \"StonersTown Contract/STW.sol\":37768:37793  _operatorApprovals[owner] */\n      0x20\n      swap1\n      dup2\n      mstore\n      0x40\n      dup1\n      dup4\n      keccak256\n        /* \"StonersTown Contract/STW.sol\":37768:37803  _operatorApprovals[owner][operator] */\n      swap4\n      swap1\n      swap5\n      and\n      dup3\n      mstore\n      swap2\n      swap1\n      swap2\n      mstore\n      keccak256\n      sload\n      0xff\n      and\n      swap1\n        /* \"StonersTown Contract/STW.sol\":37648:37810  function isApprovedForAll(address owner, address operator) public view virtual override returns (bool) {... */\n      jump\n        /* \"StonersTown Contract/STW.sol\":49463:49485  uint256 public maxbuds */\n    tag_34:\n      callvalue\n      dup1\n      iszero\n      tag_188\n      jumpi\n      0x00\n      dup1\n      revert\n    tag_188:\n      pop\n      tag_69\n      sload(0x0b)\n      dup2\n      jump\n        /* \"StonersTown Contract/STW.sol\":9667:9865  function transferOwnership(address newOwner) public virtual onlyOwner {... */\n    tag_35:\n      callvalue\n      dup1\n      iszero\n      tag_192\n      jumpi\n      0x00\n      dup1\n      revert\n    tag_192:\n      pop\n      tag_64\n      tag_194\n      calldatasize\n      0x04\n      tag_114\n      jump\t// in\n    tag_194:\n      tag_195\n      jump\t// in\n        /* \"StonersTown Contract/STW.sol\":49665:49692  bool public METADATA_FROZEN */\n    tag_36:\n      callvalue\n      dup1\n      iszero\n      tag_196\n      jumpi\n      0x00\n      dup1\n      revert\n    tag_196:\n      pop\n      sload(0x11)\n      tag_45\n      swap1\n      0xff\n      and\n      dup2\n      jump\n        /* \"StonersTown Contract/STW.sol\":32280:32580  function supportsInterface(bytes4 interfaceId) public view virtual override(ERC165, IERC165) returns (bool) {... */\n    tag_48:\n        /* \"StonersTown Contract/STW.sol\":32382:32386  bool */\n      0x00\n      not(sub(shl(0xe0, 0x01), 0x01))\n        /* \"StonersTown Contract/STW.sol\":32417:32457  interfaceId == type(IERC721).interfaceId */\n      dup3\n      and\n      shl(0xe0, 0x80ac58cd)\n      eq\n      dup1\n        /* \"StonersTown Contract/STW.sol\":32417:32521  interfaceId == type(IERC721).interfaceId ||... */\n      tag_201\n      jumpi\n      pop\n      not(sub(shl(0xe0, 0x01), 0x01))\n        /* \"StonersTown Contract/STW.sol\":32473:32521  interfaceId == type(IERC721Metadata).interfaceId */\n      dup3\n      and\n      shl(0xe0, 0x5b5e139f)\n      eq\n        /* \"StonersTown Contract/STW.sol\":32417:32521  interfaceId == type(IERC721).interfaceId ||... */\n    tag_201:\n        /* \"StonersTown Contract/STW.sol\":32417:32573  interfaceId == type(IERC721).interfaceId ||... */\n      dup1\n      tag_203\n      jumpi\n      pop\n      shl(0xe0, 0x01ffc9a7)\n      not(sub(shl(0xe0, 0x01), 0x01))\n        /* \"StonersTown Contract/STW.sol\":21325:21365  interfaceId == type(IERC165).interfaceId */\n      dup4\n      and\n      eq\n        /* \"StonersTown Contract/STW.sol\":32537:32573  super.supportsInterface(interfaceId) */\n    tag_203:\n        /* \"StonersTown Contract/STW.sol\":32398:32573  return... */\n      swap3\n        /* \"StonersTown Contract/STW.sol\":32280:32580  function supportsInterface(bytes4 interfaceId) public view virtual override(ERC165, IERC165) returns (bool) {... */\n      swap2\n      pop\n      pop\n      jump\t// out\n        /* \"StonersTown Contract/STW.sol\":35576:35674  function name() public view virtual override returns (string memory) {... */\n    tag_53:\n        /* \"StonersTown Contract/STW.sol\":35630:35643  string memory */\n      0x60\n        /* \"StonersTown Contract/STW.sol\":35662:35667  _name */\n      0x02\n        /* \"StonersTown Contract/STW.sol\":35655:35667  return _name */\n      dup1\n      sload\n      tag_206\n      swap1\n      tag_207\n      jump\t// in\n    tag_206:\n      dup1\n      0x1f\n      add\n      0x20\n      dup1\n      swap2\n      div\n      mul\n      0x20\n      add\n      mload(0x40)\n      swap1\n      dup2\n      add\n      0x40\n      mstore\n      dup1\n      swap3\n      swap2\n      swap1\n      dup2\n      dup2\n      mstore\n      0x20\n      add\n      dup3\n      dup1\n      sload\n      tag_208\n      swap1\n      tag_207\n      jump\t// in\n    tag_208:\n      dup1\n      iszero\n      tag_209\n      jumpi\n      dup1\n      0x1f\n      lt\n      tag_210\n      jumpi\n      0x0100\n      dup1\n      dup4\n      sload\n      div\n      mul\n      dup4\n      mstore\n      swap2\n      0x20\n      add\n      swap2\n      jump(tag_209)\n    tag_210:\n      dup3\n      add\n      swap2\n      swap1\n      0x00\n      mstore\n      keccak256(0x00, 0x20)\n      swap1\n    tag_211:\n      dup2\n      sload\n      dup2\n      mstore\n      swap1\n      0x01\n      add\n      swap1\n      0x20\n      add\n      dup1\n      dup4\n      gt\n      tag_211\n      jumpi\n      dup3\n      swap1\n      sub\n      0x1f\n      and\n      dup3\n      add\n      swap2\n    tag_209:\n      pop\n      pop\n      pop\n      pop\n      pop\n      swap1\n      pop\n        /* \"StonersTown Contract/STW.sol\":35576:35674  function name() public view virtual override returns (string memory) {... */\n      swap1\n      jump\t// out\n        /* \"StonersTown Contract/STW.sol\":37041:37241  function getApproved(uint256 tokenId) public view override returns (address) {... */\n    tag_60:\n        /* \"StonersTown Contract/STW.sol\":37109:37116  address */\n      0x00\n        /* \"StonersTown Contract/STW.sol\":37133:37149  _exists(tokenId) */\n      tag_213\n        /* \"StonersTown Contract/STW.sol\":37141:37148  tokenId */\n      dup3\n        /* \"StonersTown Contract/STW.sol\":37133:37140  _exists */\n      tag_214\n        /* \"StonersTown Contract/STW.sol\":37133:37149  _exists(tokenId) */\n      jump\t// in\n    tag_213:\n        /* \"StonersTown Contract/STW.sol\":37128:37192  if (!_exists(tokenId)) revert ApprovalQueryForNonexistentToken() */\n      tag_215\n      jumpi\n        /* \"StonersTown Contract/STW.sol\":37158:37192  ApprovalQueryForNonexistentToken() */\n      mload(0x40)\n      shl(0xe2, 0x33d1c039)\n      dup2\n      mstore\n      0x04\n      add\n      mload(0x40)\n      dup1\n      swap2\n      sub\n      swap1\n      revert\n        /* \"StonersTown Contract/STW.sol\":37128:37192  if (!_exists(tokenId)) revert ApprovalQueryForNonexistentToken() */\n    tag_215:\n      pop\n        /* \"StonersTown Contract/STW.sol\":37210:37234  _tokenApprovals[tokenId] */\n      0x00\n      swap1\n      dup2\n      mstore\n        /* \"StonersTown Contract/STW.sol\":37210:37225  _tokenApprovals */\n      0x06\n        /* \"StonersTown Contract/STW.sol\":37210:37234  _tokenApprovals[tokenId] */\n      0x20\n      mstore\n      0x40\n      swap1\n      keccak256\n      sload\n      sub(shl(0xa0, 0x01), 0x01)\n      and\n      swap1\n        /* \"StonersTown Contract/STW.sol\":37041:37241  function getApproved(uint256 tokenId) public view override returns (address) {... */\n      jump\t// out\n        /* \"StonersTown Contract/STW.sol\":36618:36980  function approve(address to, uint256 tokenId) public override {... */\n    tag_67:\n        /* \"StonersTown Contract/STW.sol\":36690:36703  address owner */\n      0x00\n        /* \"StonersTown Contract/STW.sol\":36706:36730  ERC721A.ownerOf(tokenId) */\n      tag_217\n        /* \"StonersTown Contract/STW.sol\":36722:36729  tokenId */\n      dup3\n        /* \"StonersTown Contract/STW.sol\":36706:36721  ERC721A.ownerOf */\n      tag_109\n        /* \"StonersTown Contract/STW.sol\":36706:36730  ERC721A.ownerOf(tokenId) */\n      jump\t// in\n    tag_217:\n        /* \"StonersTown Contract/STW.sol\":36690:36730  address owner = ERC721A.ownerOf(tokenId) */\n      swap1\n      pop\n        /* \"StonersTown Contract/STW.sol\":36750:36755  owner */\n      dup1\n      sub(shl(0xa0, 0x01), 0x01)\n        /* \"StonersTown Contract/STW.sol\":36744:36755  to == owner */\n      and\n        /* \"StonersTown Contract/STW.sol\":36744:36746  to */\n      dup4\n      sub(shl(0xa0, 0x01), 0x01)\n        /* \"StonersTown Contract/STW.sol\":36744:36755  to == owner */\n      and\n      eq\n        /* \"StonersTown Contract/STW.sol\":36740:36788  if (to == owner) revert ApprovalToCurrentOwner() */\n      iszero\n      tag_218\n      jumpi\n        /* \"StonersTown Contract/STW.sol\":36764:36788  ApprovalToCurrentOwner() */\n      mload(0x40)\n      shl(0xe2, 0x250fdee3)\n      dup2\n      mstore\n      0x04\n      add\n      mload(0x40)\n      dup1\n      swap2\n      sub\n      swap1\n      revert\n        /* \"StonersTown Contract/STW.sol\":36740:36788  if (to == owner) revert ApprovalToCurrentOwner() */\n    tag_218:\n        /* \"StonersTown Contract/STW.sol\":7632:7642  msg.sender */\n      caller\n      sub(shl(0xa0, 0x01), 0x01)\n        /* \"StonersTown Contract/STW.sol\":36803:36824  _msgSender() != owner */\n      dup3\n      and\n      eq\n      dup1\n      iszero\n      swap1\n        /* \"StonersTown Contract/STW.sol\":36803:36866  _msgSender() != owner && !isApprovedForAll(owner, _msgSender()) */\n      tag_221\n      jumpi\n      pop\n        /* \"StonersTown Contract/STW.sol\":36829:36866  isApprovedForAll(owner, _msgSender()) */\n      tag_222\n        /* \"StonersTown Contract/STW.sol\":36846:36851  owner */\n      dup2\n        /* \"StonersTown Contract/STW.sol\":7632:7642  msg.sender */\n      caller\n        /* \"StonersTown Contract/STW.sol\":37648:37810  function isApprovedForAll(address owner, address operator) public view virtual override returns (bool) {... */\n      tag_184\n      jump\t// in\n        /* \"StonersTown Contract/STW.sol\":36829:36866  isApprovedForAll(owner, _msgSender()) */\n    tag_222:\n        /* \"StonersTown Contract/STW.sol\":36828:36866  !isApprovedForAll(owner, _msgSender()) */\n      iszero\n        /* \"StonersTown Contract/STW.sol\":36803:36866  _msgSender() != owner && !isApprovedForAll(owner, _msgSender()) */\n    tag_221:\n        /* \"StonersTown Contract/STW.sol\":36799:36935  if (_msgSender() != owner && !isApprovedForAll(owner, _msgSender())) {... */\n      iszero\n      tag_224\n      jumpi\n        /* \"StonersTown Contract/STW.sol\":36889:36924  ApprovalCallerNotOwnerNorApproved() */\n      mload(0x40)\n      shl(0xe1, 0x67d9dca1)\n      dup2\n      mstore\n      0x04\n      add\n      mload(0x40)\n      dup1\n      swap2\n      sub\n      swap1\n      revert\n        /* \"StonersTown Contract/STW.sol\":36799:36935  if (_msgSender() != owner && !isApprovedForAll(owner, _msgSender())) {... */\n    tag_224:\n        /* \"StonersTown Contract/STW.sol\":36945:36973  _approve(to, tokenId, owner) */\n      tag_225\n        /* \"StonersTown Contract/STW.sol\":36954:36956  to */\n      dup4\n        /* \"StonersTown Contract/STW.sol\":36958:36965  tokenId */\n      dup4\n        /* \"StonersTown Contract/STW.sol\":36967:36972  owner */\n      dup4\n        /* \"StonersTown Contract/STW.sol\":36945:36953  _approve */\n      tag_226\n        /* \"StonersTown Contract/STW.sol\":36945:36973  _approve(to, tokenId, owner) */\n      jump\t// in\n    tag_225:\n        /* \"StonersTown Contract/STW.sol\":36680:36980  {... */\n      pop\n        /* \"StonersTown Contract/STW.sol\":36618:36980  function approve(address to, uint256 tokenId) public override {... */\n      pop\n      pop\n      jump\t// out\n        /* \"StonersTown Contract/STW.sol\":37872:38036  function transferFrom(... */\n    tag_77:\n        /* \"StonersTown Contract/STW.sol\":38001:38029  _transfer(from, to, tokenId) */\n      tag_225\n        /* \"StonersTown Contract/STW.sol\":38011:38015  from */\n      dup4\n        /* \"StonersTown Contract/STW.sol\":38017:38019  to */\n      dup4\n        /* \"StonersTown Contract/STW.sol\":38021:38028  tokenId */\n      dup4\n        /* \"StonersTown Contract/STW.sol\":38001:38010  _transfer */\n      tag_232\n        /* \"StonersTown Contract/STW.sol\":38001:38029  _transfer(from, to, tokenId) */\n      jump\t// in\n        /* \"StonersTown Contract/STW.sol\":53298:53465  function withdraw() public onlyOwner nonReentrant {... */\n    tag_84:\n        /* \"StonersTown Contract/STW.sol\":8857:8863  _owner */\n      and(sub(shl(0xa0, 0x01), 0x01), sload(0x08))\n        /* \"StonersTown Contract/STW.sol\":7632:7642  msg.sender */\n      caller\n        /* \"StonersTown Contract/STW.sol\":8997:9020  owner() == _msgSender() */\n      eq\n        /* \"StonersTown Contract/STW.sol\":8989:9057  require(owner() == _msgSender(), \"Ownable: caller is not the owner\") */\n      tag_236\n      jumpi\n      mload(0x40)\n      shl(0xe5, 0x461bcd)\n      dup2\n      mstore\n      0x04\n      add\n      tag_237\n      swap1\n      tag_238\n      jump\t// in\n    tag_237:\n      mload(0x40)\n      dup1\n      swap2\n      sub\n      swap1\n      revert\n    tag_236:\n        /* \"StonersTown Contract/STW.sol\":3921:3922  2 */\n      0x02\n        /* \"StonersTown Contract/STW.sol\":4502:4509  _status */\n      sload(0x09)\n        /* \"StonersTown Contract/STW.sol\":4502:4521  _status != _ENTERED */\n      eq\n      iszero\n        /* \"StonersTown Contract/STW.sol\":4494:4557  require(_status != _ENTERED, \"ReentrancyGuard: reentrant call\") */\n      tag_240\n      jumpi\n      mload(0x40)\n      shl(0xe5, 0x461bcd)\n      dup2\n      mstore\n        /* \"#utility.yul\":10028:10030   */\n      0x20\n        /* \"StonersTown Contract/STW.sol\":4494:4557  require(_status != _ENTERED, \"ReentrancyGuard: reentrant call\") */\n      0x04\n      dup3\n      add\n        /* \"#utility.yul\":10010:10031   */\n      mstore\n        /* \"#utility.yul\":10067:10069   */\n      0x1f\n        /* \"#utility.yul\":10047:10065   */\n      0x24\n      dup3\n      add\n        /* \"#utility.yul\":10040:10070   */\n      mstore\n        /* \"#utility.yul\":10106:10139   */\n      0x5265656e7472616e637947756172643a207265656e7472616e742063616c6c00\n        /* \"#utility.yul\":10086:10104   */\n      0x44\n      dup3\n      add\n        /* \"#utility.yul\":10079:10140   */\n      mstore\n        /* \"#utility.yul\":10157:10175   */\n      0x64\n      add\n        /* \"StonersTown Contract/STW.sol\":4494:4557  require(_status != _ENTERED, \"ReentrancyGuard: reentrant call\") */\n      tag_237\n        /* \"#utility.yul\":9826:10181   */\n      jump\n        /* \"StonersTown Contract/STW.sol\":4494:4557  require(_status != _ENTERED, \"ReentrancyGuard: reentrant call\") */\n    tag_240:\n        /* \"StonersTown Contract/STW.sol\":3921:3922  2 */\n      0x02\n        /* \"StonersTown Contract/STW.sol\":4632:4639  _status */\n      0x09\n        /* \"StonersTown Contract/STW.sol\":4632:4650  _status = _ENTERED */\n      sstore\n        /* \"StonersTown Contract/STW.sol\":53376:53397  address(this).balance */\n      selfbalance\n        /* \"StonersTown Contract/STW.sol\":53407:53458  Address.sendValue(payable(payoutAddress1), balance) */\n      tag_244\n        /* \"StonersTown Contract/STW.sol\":53248:53290  0x2e45A3053639CE97f43b4761CA9332Ea7B5aDB8a */\n      0x2e45a3053639ce97f43b4761ca9332ea7b5adb8a\n        /* \"StonersTown Contract/STW.sol\":53376:53397  address(this).balance */\n      dup3\n        /* \"StonersTown Contract/STW.sol\":53407:53424  Address.sendValue */\n      tag_245\n        /* \"StonersTown Contract/STW.sol\":53407:53458  Address.sendValue(payable(payoutAddress1), balance) */\n      jump\t// in\n    tag_244:\n      pop\n        /* \"StonersTown Contract/STW.sol\":3878:3879  1 */\n      0x01\n        /* \"StonersTown Contract/STW.sol\":4805:4812  _status */\n      0x09\n        /* \"StonersTown Contract/STW.sol\":4805:4827  _status = _NOT_ENTERED */\n      sstore\n        /* \"StonersTown Contract/STW.sol\":53298:53465  function withdraw() public onlyOwner nonReentrant {... */\n      jump\t// out\n        /* \"StonersTown Contract/STW.sol\":53002:53172  function mintOwner(address _to, uint256 _mintAmount)... */\n    tag_88:\n        /* \"StonersTown Contract/STW.sol\":53093:53104  _mintAmount */\n      dup1\n        /* \"StonersTown Contract/STW.sol\":51882:51883  0 */\n      0x00\n        /* \"StonersTown Contract/STW.sol\":51868:51879  _mintAmount */\n      dup2\n        /* \"StonersTown Contract/STW.sol\":51868:51883  _mintAmount > 0 */\n      gt\n        /* \"StonersTown Contract/STW.sol\":51868:51916  _mintAmount > 0 && _mintAmount <= maxBudPerTrans */\n      dup1\n      iszero\n      tag_247\n      jumpi\n      pop\n        /* \"StonersTown Contract/STW.sol\":51902:51916  maxBudPerTrans */\n      sload(0x0e)\n        /* \"StonersTown Contract/STW.sol\":51887:51898  _mintAmount */\n      dup2\n        /* \"StonersTown Contract/STW.sol\":51887:51916  _mintAmount <= maxBudPerTrans */\n      gt\n      iszero\n        /* \"StonersTown Contract/STW.sol\":51868:51916  _mintAmount > 0 && _mintAmount <= maxBudPerTrans */\n    tag_247:\n        /* \"StonersTown Contract/STW.sol\":51847:51962  require(... */\n      tag_248\n      jumpi\n      mload(0x40)\n      shl(0xe5, 0x461bcd)\n      dup2\n      mstore\n        /* \"#utility.yul\":7140:7142   */\n      0x20\n        /* \"StonersTown Contract/STW.sol\":51847:51962  require(... */\n      0x04\n      dup3\n      add\n        /* \"#utility.yul\":7122:7143   */\n      mstore\n        /* \"#utility.yul\":7179:7181   */\n      0x14\n        /* \"#utility.yul\":7159:7177   */\n      0x24\n      dup3\n      add\n        /* \"#utility.yul\":7152:7182   */\n      mstore\n      shl(0x60, 0x496e76616c6964206d696e7420616d6f756e7421)\n        /* \"#utility.yul\":7198:7216   */\n      0x44\n      dup3\n      add\n        /* \"#utility.yul\":7191:7241   */\n      mstore\n        /* \"#utility.yul\":7258:7276   */\n      0x64\n      add\n        /* \"StonersTown Contract/STW.sol\":51847:51962  require(... */\n      tag_237\n        /* \"#utility.yul\":6938:7282   */\n      jump\n        /* \"StonersTown Contract/STW.sol\":51847:51962  require(... */\n    tag_248:\n        /* \"StonersTown Contract/STW.sol\":52024:52031  maxbuds */\n      sload(0x0b)\n        /* \"StonersTown Contract/STW.sol\":52009:52020  _mintAmount */\n      dup2\n        /* \"StonersTown Contract/STW.sol\":51993:52006  _currentIndex */\n      sload(0x00)\n        /* \"StonersTown Contract/STW.sol\":51993:52020  _currentIndex + _mintAmount */\n      tag_251\n      swap2\n      swap1\n      tag_252\n      jump\t// in\n    tag_251:\n        /* \"StonersTown Contract/STW.sol\":51993:52031  _currentIndex + _mintAmount <= maxbuds */\n      gt\n      iszero\n        /* \"StonersTown Contract/STW.sol\":51972:52077  require(... */\n      tag_253\n      jumpi\n      mload(0x40)\n      shl(0xe5, 0x461bcd)\n      dup2\n      mstore\n        /* \"#utility.yul\":9679:9681   */\n      0x20\n        /* \"StonersTown Contract/STW.sol\":51972:52077  require(... */\n      0x04\n      dup3\n      add\n        /* \"#utility.yul\":9661:9682   */\n      mstore\n        /* \"#utility.yul\":9718:9720   */\n      0x14\n        /* \"#utility.yul\":9698:9716   */\n      0x24\n      dup3\n      add\n        /* \"#utility.yul\":9691:9721   */\n      mstore\n      shl(0x60, 0x4d617820737570706c7920657863656564656421)\n        /* \"#utility.yul\":9737:9755   */\n      0x44\n      dup3\n      add\n        /* \"#utility.yul\":9730:9780   */\n      mstore\n        /* \"#utility.yul\":9797:9815   */\n      0x64\n      add\n        /* \"StonersTown Contract/STW.sol\":51972:52077  require(... */\n      tag_237\n        /* \"#utility.yul\":9477:9821   */\n      jump\n        /* \"StonersTown Contract/STW.sol\":51972:52077  require(... */\n    tag_253:\n        /* \"StonersTown Contract/STW.sol\":8857:8863  _owner */\n      and(sub(shl(0xa0, 0x01), 0x01), sload(0x08))\n        /* \"StonersTown Contract/STW.sol\":7632:7642  msg.sender */\n      caller\n        /* \"StonersTown Contract/STW.sol\":8997:9020  owner() == _msgSender() */\n      eq\n        /* \"StonersTown Contract/STW.sol\":8989:9057  require(owner() == _msgSender(), \"Ownable: caller is not the owner\") */\n      tag_259\n      jumpi\n      mload(0x40)\n      shl(0xe5, 0x461bcd)\n      dup2\n      mstore\n      0x04\n      add\n      tag_237\n      swap1\n      tag_238\n      jump\t// in\n    tag_259:\n        /* \"StonersTown Contract/STW.sol\":53138:53165  _safeMint(_to, _mintAmount) */\n      tag_225\n        /* \"StonersTown Contract/STW.sol\":53148:53151  _to */\n      dup4\n        /* \"StonersTown Contract/STW.sol\":53153:53164  _mintAmount */\n      dup4\n        /* \"StonersTown Contract/STW.sol\":53138:53147  _safeMint */\n      tag_263\n        /* \"StonersTown Contract/STW.sol\":53138:53165  _safeMint(_to, _mintAmount) */\n      jump\t// in\n        /* \"StonersTown Contract/STW.sol\":38102:38281  function safeTransferFrom(... */\n    tag_92:\n        /* \"StonersTown Contract/STW.sol\":38235:38274  safeTransferFrom(from, to, tokenId, '') */\n      tag_225\n        /* \"StonersTown Contract/STW.sol\":38252:38256  from */\n      dup4\n        /* \"StonersTown Contract/STW.sol\":38258:38260  to */\n      dup4\n        /* \"StonersTown Contract/STW.sol\":38262:38269  tokenId */\n      dup4\n        /* \"StonersTown Contract/STW.sol\":38235:38274  safeTransferFrom(from, to, tokenId, '') */\n      mload(0x40)\n      dup1\n      0x20\n      add\n      0x40\n      mstore\n      dup1\n      0x00\n      dup2\n      mstore\n      pop\n        /* \"StonersTown Contract/STW.sol\":38235:38251  safeTransferFrom */\n      tag_161\n        /* \"StonersTown Contract/STW.sol\":38235:38274  safeTransferFrom(from, to, tokenId, '') */\n      jump\t// in\n        /* \"StonersTown Contract/STW.sol\":50954:51121  function setBaseURI(string memory customBaseURI_) external onlyOwner {... */\n    tag_101:\n        /* \"StonersTown Contract/STW.sol\":8857:8863  _owner */\n      and(sub(shl(0xa0, 0x01), 0x01), sload(0x08))\n        /* \"StonersTown Contract/STW.sol\":7632:7642  msg.sender */\n      caller\n        /* \"StonersTown Contract/STW.sol\":8997:9020  owner() == _msgSender() */\n      eq\n        /* \"StonersTown Contract/STW.sol\":8989:9057  require(owner() == _msgSender(), \"Ownable: caller is not the owner\") */\n      tag_269\n      jumpi\n      mload(0x40)\n      shl(0xe5, 0x461bcd)\n      dup2\n      mstore\n      0x04\n      add\n      tag_237\n      swap1\n      tag_238\n      jump\t// in\n    tag_269:\n        /* \"StonersTown Contract/STW.sol\":51042:51057  METADATA_FROZEN */\n      and(0xff, sload(0x11))\n        /* \"StonersTown Contract/STW.sol\":51041:51057  !METADATA_FROZEN */\n      iszero\n        /* \"StonersTown Contract/STW.sol\":51033:51078  require(!METADATA_FROZEN, \"Metadata frozen!\") */\n      tag_272\n      jumpi\n      mload(0x40)\n      shl(0xe5, 0x461bcd)\n      dup2\n      mstore\n        /* \"#utility.yul\":9334:9336   */\n      0x20\n        /* \"StonersTown Contract/STW.sol\":51033:51078  require(!METADATA_FROZEN, \"Metadata frozen!\") */\n      0x04\n      dup3\n      add\n        /* \"#utility.yul\":9316:9337   */\n      mstore\n        /* \"#utility.yul\":9373:9375   */\n      0x10\n        /* \"#utility.yul\":9353:9371   */\n      0x24\n      dup3\n      add\n        /* \"#utility.yul\":9346:9376   */\n      mstore\n      shl(0x80, 0x4d657461646174612066726f7a656e21)\n        /* \"#utility.yul\":9392:9410   */\n      0x44\n      dup3\n      add\n        /* \"#utility.yul\":9385:9431   */\n      mstore\n        /* \"#utility.yul\":9448:9466   */\n      0x64\n      add\n        /* \"StonersTown Contract/STW.sol\":51033:51078  require(!METADATA_FROZEN, \"Metadata frozen!\") */\n      tag_237\n        /* \"#utility.yul\":9132:9472   */\n      jump\n        /* \"StonersTown Contract/STW.sol\":51033:51078  require(!METADATA_FROZEN, \"Metadata frozen!\") */\n    tag_272:\n        /* \"StonersTown Contract/STW.sol\":51088:51114  weedStore = customBaseURI_ */\n      dup1\n      mload\n      tag_275\n      swap1\n        /* \"StonersTown Contract/STW.sol\":51088:51097  weedStore */\n      0x0c\n      swap1\n        /* \"StonersTown Contract/STW.sol\":51088:51114  weedStore = customBaseURI_ */\n      0x20\n      dup5\n      add\n      swap1\n      tag_276\n      jump\t// in\n    tag_275:\n      pop\n        /* \"StonersTown Contract/STW.sol\":50954:51121  function setBaseURI(string memory customBaseURI_) external onlyOwner {... */\n      pop\n      jump\t// out\n        /* \"StonersTown Contract/STW.sol\":51282:51394  function setMaxMintPerTx(uint256 maxMintPerTx) external onlyOwner {... */\n    tag_105:\n        /* \"StonersTown Contract/STW.sol\":8857:8863  _owner */\n      and(sub(shl(0xa0, 0x01), 0x01), sload(0x08))\n        /* \"StonersTown Contract/STW.sol\":7632:7642  msg.sender */\n      caller\n        /* \"StonersTown Contract/STW.sol\":8997:9020  owner() == _msgSender() */\n      eq\n        /* \"StonersTown Contract/STW.sol\":8989:9057  require(owner() == _msgSender(), \"Ownable: caller is not the owner\") */\n      tag_280\n      jumpi\n      mload(0x40)\n      shl(0xe5, 0x461bcd)\n      dup2\n      mstore\n      0x04\n      add\n      tag_237\n      swap1\n      tag_238\n      jump\t// in\n    tag_280:\n        /* \"StonersTown Contract/STW.sol\":51358:51372  maxBudPerTrans */\n      0x0e\n        /* \"StonersTown Contract/STW.sol\":51358:51387  maxBudPerTrans = maxMintPerTx */\n      sstore\n        /* \"StonersTown Contract/STW.sol\":51282:51394  function setMaxMintPerTx(uint256 maxMintPerTx) external onlyOwner {... */\n      jump\t// out\n        /* \"StonersTown Contract/STW.sol\":35392:35514  function ownerOf(uint256 tokenId) public view override returns (address) {... */\n    tag_109:\n        /* \"StonersTown Contract/STW.sol\":35456:35463  address */\n      0x00\n        /* \"StonersTown Contract/STW.sol\":35482:35502  ownershipOf(tokenId) */\n      tag_284\n        /* \"StonersTown Contract/STW.sol\":35494:35501  tokenId */\n      dup3\n        /* \"StonersTown Contract/STW.sol\":35482:35493  ownershipOf */\n      tag_285\n        /* \"StonersTown Contract/STW.sol\":35482:35502  ownershipOf(tokenId) */\n      jump\t// in\n    tag_284:\n        /* \"StonersTown Contract/STW.sol\":35482:35507  ownershipOf(tokenId).addr */\n      mload\n      swap3\n        /* \"StonersTown Contract/STW.sol\":35392:35514  function ownerOf(uint256 tokenId) public view override returns (address) {... */\n      swap2\n      pop\n      pop\n      jump\t// out\n        /* \"StonersTown Contract/STW.sol\":32639:32842  function balanceOf(address owner) public view override returns (uint256) {... */\n    tag_115:\n        /* \"StonersTown Contract/STW.sol\":32703:32710  uint256 */\n      0x00\n      sub(shl(0xa0, 0x01), 0x01)\n        /* \"StonersTown Contract/STW.sol\":32726:32745  owner == address(0) */\n      dup3\n      and\n        /* \"StonersTown Contract/STW.sol\":32722:32782  if (owner == address(0)) revert BalanceQueryForZeroAddress() */\n      tag_287\n      jumpi\n        /* \"StonersTown Contract/STW.sol\":32754:32782  BalanceQueryForZeroAddress() */\n      mload(0x40)\n      shl(0xe2, 0x23d3ad81)\n      dup2\n      mstore\n      0x04\n      add\n      mload(0x40)\n      dup1\n      swap2\n      sub\n      swap1\n      revert\n        /* \"StonersTown Contract/STW.sol\":32722:32782  if (owner == address(0)) revert BalanceQueryForZeroAddress() */\n    tag_287:\n      pop\n      sub(shl(0xa0, 0x01), 0x01)\n        /* \"StonersTown Contract/STW.sol\":32807:32826  _addressData[owner] */\n      and\n      0x00\n      swap1\n      dup2\n      mstore\n        /* \"StonersTown Contract/STW.sol\":32807:32819  _addressData */\n      0x05\n        /* \"StonersTown Contract/STW.sol\":32807:32826  _addressData[owner] */\n      0x20\n      mstore\n      0x40\n      swap1\n      keccak256\n        /* \"StonersTown Contract/STW.sol\":32807:32834  _addressData[owner].balance */\n      sload\n      0xffffffffffffffff\n      and\n      swap1\n        /* \"StonersTown Contract/STW.sol\":32639:32842  function balanceOf(address owner) public view override returns (uint256) {... */\n      jump\t// out\n        /* \"StonersTown Contract/STW.sol\":9417:9518  function renounceOwnership() public virtual onlyOwner {... */\n    tag_119:\n        /* \"StonersTown Contract/STW.sol\":8857:8863  _owner */\n      and(sub(shl(0xa0, 0x01), 0x01), sload(0x08))\n        /* \"StonersTown Contract/STW.sol\":7632:7642  msg.sender */\n      caller\n        /* \"StonersTown Contract/STW.sol\":8997:9020  owner() == _msgSender() */\n      eq\n        /* \"StonersTown Contract/STW.sol\":8989:9057  require(owner() == _msgSender(), \"Ownable: caller is not the owner\") */\n      tag_291\n      jumpi\n      mload(0x40)\n      shl(0xe5, 0x461bcd)\n      dup2\n      mstore\n      0x04\n      add\n      tag_237\n      swap1\n      tag_238\n      jump\t// in\n    tag_291:\n        /* \"StonersTown Contract/STW.sol\":9481:9511  _transferOwnership(address(0)) */\n      tag_294\n        /* \"StonersTown Contract/STW.sol\":9508:9509  0 */\n      0x00\n        /* \"StonersTown Contract/STW.sol\":9481:9499  _transferOwnership */\n      tag_295\n        /* \"StonersTown Contract/STW.sol\":9481:9511  _transferOwnership(address(0)) */\n      jump\t// in\n    tag_294:\n        /* \"StonersTown Contract/STW.sol\":9417:9518  function renounceOwnership() public virtual onlyOwner {... */\n      jump\t// out\n        /* \"StonersTown Contract/STW.sol\":51400:51507  function setSaleActive(bool saleIsActive) external onlyOwner {... */\n    tag_128:\n        /* \"StonersTown Contract/STW.sol\":8857:8863  _owner */\n      and(sub(shl(0xa0, 0x01), 0x01), sload(0x08))\n        /* \"StonersTown Contract/STW.sol\":7632:7642  msg.sender */\n      caller\n        /* \"StonersTown Contract/STW.sol\":8997:9020  owner() == _msgSender() */\n      eq\n        /* \"StonersTown Contract/STW.sol\":8989:9057  require(owner() == _msgSender(), \"Ownable: caller is not the owner\") */\n      tag_299\n      jumpi\n      mload(0x40)\n      shl(0xe5, 0x461bcd)\n      dup2\n      mstore\n      0x04\n      add\n      tag_237\n      swap1\n      tag_238\n      jump\t// in\n    tag_299:\n        /* \"StonersTown Contract/STW.sol\":51471:51485  IS_SALE_ACTIVE */\n      0x0f\n        /* \"StonersTown Contract/STW.sol\":51471:51500  IS_SALE_ACTIVE = saleIsActive */\n      dup1\n      sload\n      not(0xff)\n      and\n      swap2\n      iszero\n      iszero\n      swap2\n      swap1\n      swap2\n      or\n      swap1\n      sstore\n        /* \"StonersTown Contract/STW.sol\":51400:51507  function setSaleActive(bool saleIsActive) external onlyOwner {... */\n      jump\t// out\n        /* \"StonersTown Contract/STW.sol\":51513:51678  function setFreeMintAllowedUntil(uint256 freeMintIsAllowedUntil)... */\n    tag_132:\n        /* \"StonersTown Contract/STW.sol\":8857:8863  _owner */\n      and(sub(shl(0xa0, 0x01), 0x01), sload(0x08))\n        /* \"StonersTown Contract/STW.sol\":7632:7642  msg.sender */\n      caller\n        /* \"StonersTown Contract/STW.sol\":8997:9020  owner() == _msgSender() */\n      eq\n        /* \"StonersTown Contract/STW.sol\":8989:9057  require(owner() == _msgSender(), \"Ownable: caller is not the owner\") */\n      tag_305\n      jumpi\n      mload(0x40)\n      shl(0xe5, 0x461bcd)\n      dup2\n      mstore\n      0x04\n      add\n      tag_237\n      swap1\n      tag_238\n      jump\t// in\n    tag_305:\n        /* \"StonersTown Contract/STW.sol\":51627:51646  freeBudAllowedUntil */\n      0x10\n        /* \"StonersTown Contract/STW.sol\":51627:51671  freeBudAllowedUntil = freeMintIsAllowedUntil */\n      sstore\n        /* \"StonersTown Contract/STW.sol\":51513:51678  function setFreeMintAllowedUntil(uint256 freeMintIsAllowedUntil)... */\n      jump\t// out\n        /* \"StonersTown Contract/STW.sol\":50600:50697  function setPrice(uint256 customPrice) external onlyOwner {... */\n    tag_140:\n        /* \"StonersTown Contract/STW.sol\":8857:8863  _owner */\n      and(sub(shl(0xa0, 0x01), 0x01), sload(0x08))\n        /* \"StonersTown Contract/STW.sol\":7632:7642  msg.sender */\n      caller\n        /* \"StonersTown Contract/STW.sol\":8997:9020  owner() == _msgSender() */\n      eq\n        /* \"StonersTown Contract/STW.sol\":8989:9057  require(owner() == _msgSender(), \"Ownable: caller is not the owner\") */\n      tag_312\n      jumpi\n      mload(0x40)\n      shl(0xe5, 0x461bcd)\n      dup2\n      mstore\n      0x04\n      add\n      tag_237\n      swap1\n      tag_238\n      jump\t// in\n    tag_312:\n        /* \"StonersTown Contract/STW.sol\":50668:50676  budPrice */\n      0x0a\n        /* \"StonersTown Contract/STW.sol\":50668:50690  budPrice = customPrice */\n      sstore\n        /* \"StonersTown Contract/STW.sol\":50600:50697  function setPrice(uint256 customPrice) external onlyOwner {... */\n      jump\t// out\n        /* \"StonersTown Contract/STW.sol\":35738:35840  function symbol() public view virtual override returns (string memory) {... */\n    tag_143:\n        /* \"StonersTown Contract/STW.sol\":35794:35807  string memory */\n      0x60\n        /* \"StonersTown Contract/STW.sol\":35826:35833  _symbol */\n      0x03\n        /* \"StonersTown Contract/STW.sol\":35819:35833  return _symbol */\n      dup1\n      sload\n      tag_206\n      swap1\n      tag_207\n      jump\t// in\n        /* \"StonersTown Contract/STW.sol\":52101:52996  function mint(uint256 _mintAmount)... */\n    tag_147:\n        /* \"StonersTown Contract/STW.sol\":52190:52201  _mintAmount */\n      dup1\n        /* \"StonersTown Contract/STW.sol\":51882:51883  0 */\n      0x00\n        /* \"StonersTown Contract/STW.sol\":51868:51879  _mintAmount */\n      dup2\n        /* \"StonersTown Contract/STW.sol\":51868:51883  _mintAmount > 0 */\n      gt\n        /* \"StonersTown Contract/STW.sol\":51868:51916  _mintAmount > 0 && _mintAmount <= maxBudPerTrans */\n      dup1\n      iszero\n      tag_322\n      jumpi\n      pop\n        /* \"StonersTown Contract/STW.sol\":51902:51916  maxBudPerTrans */\n      sload(0x0e)\n        /* \"StonersTown Contract/STW.sol\":51887:51898  _mintAmount */\n      dup2\n        /* \"StonersTown Contract/STW.sol\":51887:51916  _mintAmount <= maxBudPerTrans */\n      gt\n      iszero\n        /* \"StonersTown Contract/STW.sol\":51868:51916  _mintAmount > 0 && _mintAmount <= maxBudPerTrans */\n    tag_322:\n        /* \"StonersTown Contract/STW.sol\":51847:51962  require(... */\n      tag_323\n      jumpi\n      mload(0x40)\n      shl(0xe5, 0x461bcd)\n      dup2\n      mstore\n        /* \"#utility.yul\":7140:7142   */\n      0x20\n        /* \"StonersTown Contract/STW.sol\":51847:51962  require(... */\n      0x04\n      dup3\n      add\n        /* \"#utility.yul\":7122:7143   */\n      mstore\n        /* \"#utility.yul\":7179:7181   */\n      0x14\n        /* \"#utility.yul\":7159:7177   */\n      0x24\n      dup3\n      add\n        /* \"#utility.yul\":7152:7182   */\n      mstore\n      shl(0x60, 0x496e76616c6964206d696e7420616d6f756e7421)\n        /* \"#utility.yul\":7198:7216   */\n      0x44\n      dup3\n      add\n        /* \"#utility.yul\":7191:7241   */\n      mstore\n        /* \"#utility.yul\":7258:7276   */\n      0x64\n      add\n        /* \"StonersTown Contract/STW.sol\":51847:51962  require(... */\n      tag_237\n        /* \"#utility.yul\":6938:7282   */\n      jump\n        /* \"StonersTown Contract/STW.sol\":51847:51962  require(... */\n    tag_323:\n        /* \"StonersTown Contract/STW.sol\":52024:52031  maxbuds */\n      sload(0x0b)\n        /* \"StonersTown Contract/STW.sol\":52009:52020  _mintAmount */\n      dup2\n        /* \"StonersTown Contract/STW.sol\":51993:52006  _currentIndex */\n      sload(0x00)\n        /* \"StonersTown Contract/STW.sol\":51993:52020  _currentIndex + _mintAmount */\n      tag_325\n      swap2\n      swap1\n      tag_252\n      jump\t// in\n    tag_325:\n        /* \"StonersTown Contract/STW.sol\":51993:52031  _currentIndex + _mintAmount <= maxbuds */\n      gt\n      iszero\n        /* \"StonersTown Contract/STW.sol\":51972:52077  require(... */\n      tag_326\n      jumpi\n      mload(0x40)\n      shl(0xe5, 0x461bcd)\n      dup2\n      mstore\n        /* \"#utility.yul\":9679:9681   */\n      0x20\n        /* \"StonersTown Contract/STW.sol\":51972:52077  require(... */\n      0x04\n      dup3\n      add\n        /* \"#utility.yul\":9661:9682   */\n      mstore\n        /* \"#utility.yul\":9718:9720   */\n      0x14\n        /* \"#utility.yul\":9698:9716   */\n      0x24\n      dup3\n      add\n        /* \"#utility.yul\":9691:9721   */\n      mstore\n      shl(0x60, 0x4d617820737570706c7920657863656564656421)\n        /* \"#utility.yul\":9737:9755   */\n      0x44\n      dup3\n      add\n        /* \"#utility.yul\":9730:9780   */\n      mstore\n        /* \"#utility.yul\":9797:9815   */\n      0x64\n      add\n        /* \"StonersTown Contract/STW.sol\":51972:52077  require(... */\n      tag_237\n        /* \"#utility.yul\":9477:9821   */\n      jump\n        /* \"StonersTown Contract/STW.sol\":51972:52077  require(... */\n    tag_326:\n        /* \"StonersTown Contract/STW.sol\":52225:52239  IS_SALE_ACTIVE */\n      and(0xff, sload(0x0f))\n        /* \"StonersTown Contract/STW.sol\":52217:52263  require(IS_SALE_ACTIVE, \"Sale is not active!\") */\n      tag_329\n      jumpi\n      mload(0x40)\n      shl(0xe5, 0x461bcd)\n      dup2\n      mstore\n        /* \"#utility.yul\":8635:8637   */\n      0x20\n        /* \"StonersTown Contract/STW.sol\":52217:52263  require(IS_SALE_ACTIVE, \"Sale is not active!\") */\n      0x04\n      dup3\n      add\n        /* \"#utility.yul\":8617:8638   */\n      mstore\n        /* \"#utility.yul\":8674:8676   */\n      0x13\n        /* \"#utility.yul\":8654:8672   */\n      0x24\n      dup3\n      add\n        /* \"#utility.yul\":8647:8677   */\n      mstore\n      shl(0x68, 0x53616c65206973206e6f742061637469766521)\n        /* \"#utility.yul\":8693:8711   */\n      0x44\n      dup3\n      add\n        /* \"#utility.yul\":8686:8735   */\n      mstore\n        /* \"#utility.yul\":8752:8770   */\n      0x64\n      add\n        /* \"StonersTown Contract/STW.sol\":52217:52263  require(IS_SALE_ACTIVE, \"Sale is not active!\") */\n      tag_237\n        /* \"#utility.yul\":8433:8776   */\n      jump\n        /* \"StonersTown Contract/STW.sol\":52217:52263  require(IS_SALE_ACTIVE, \"Sale is not active!\") */\n    tag_329:\n        /* \"StonersTown Contract/STW.sol\":52274:52287  uint256 price */\n      0x00\n        /* \"StonersTown Contract/STW.sol\":52301:52312  _mintAmount */\n      dup3\n        /* \"StonersTown Contract/STW.sol\":52290:52298  budPrice */\n      sload(0x0a)\n        /* \"StonersTown Contract/STW.sol\":52290:52312  budPrice * _mintAmount */\n      tag_332\n      swap2\n      swap1\n      tag_333\n      jump\t// in\n    tag_332:\n        /* \"StonersTown Contract/STW.sol\":52274:52312  uint256 price = budPrice * _mintAmount */\n      swap1\n      pop\n        /* \"StonersTown Contract/STW.sol\":52343:52362  freeBudAllowedUntil */\n      sload(0x10)\n        /* \"StonersTown Contract/STW.sol\":52327:52340  _currentIndex */\n      sload(0x00)\n        /* \"StonersTown Contract/STW.sol\":52327:52362  _currentIndex < freeBudAllowedUntil */\n      lt\n        /* \"StonersTown Contract/STW.sol\":52323:52884  if (_currentIndex < freeBudAllowedUntil) {... */\n      iszero\n      tag_334\n      jumpi\n        /* \"StonersTown Contract/STW.sol\":52458:52468  msg.sender */\n      caller\n        /* \"StonersTown Contract/STW.sol\":52378:52403  uint256 remainingFreeMint */\n      0x00\n        /* \"StonersTown Contract/STW.sol\":52441:52469  freeMintCountMap[msg.sender] */\n      swap1\n      dup2\n      mstore\n        /* \"StonersTown Contract/STW.sol\":52441:52457  freeMintCountMap */\n      0x12\n        /* \"StonersTown Contract/STW.sol\":52441:52469  freeMintCountMap[msg.sender] */\n      0x20\n      mstore\n      0x40\n      dup2\n      keccak256\n      sload\n        /* \"StonersTown Contract/STW.sol\":52406:52422  freeBudPerWallet */\n      sload(0x0d)\n        /* \"StonersTown Contract/STW.sol\":52406:52469  freeBudPerWallet -... */\n      tag_335\n      swap2\n        /* \"StonersTown Contract/STW.sol\":52441:52469  freeMintCountMap[msg.sender] */\n      swap1\n        /* \"StonersTown Contract/STW.sol\":52406:52469  freeBudPerWallet -... */\n      tag_336\n      jump\t// in\n    tag_335:\n        /* \"StonersTown Contract/STW.sol\":52378:52469  uint256 remainingFreeMint = freeBudPerWallet -... */\n      swap1\n      pop\n        /* \"StonersTown Contract/STW.sol\":52487:52508  remainingFreeMint > 0 */\n      dup1\n      iszero\n        /* \"StonersTown Contract/STW.sol\":52483:52874  if (remainingFreeMint > 0) {... */\n      tag_346\n      jumpi\n        /* \"StonersTown Contract/STW.sol\":52547:52564  remainingFreeMint */\n      dup1\n        /* \"StonersTown Contract/STW.sol\":52532:52543  _mintAmount */\n      dup5\n        /* \"StonersTown Contract/STW.sol\":52532:52564  _mintAmount >= remainingFreeMint */\n      lt\n        /* \"StonersTown Contract/STW.sol\":52528:52860  if (_mintAmount >= remainingFreeMint) {... */\n      tag_338\n      jumpi\n        /* \"StonersTown Contract/STW.sol\":52617:52625  budPrice */\n      sload(0x0a)\n        /* \"StonersTown Contract/STW.sol\":52597:52625  remainingFreeMint * budPrice */\n      tag_339\n      swap1\n        /* \"StonersTown Contract/STW.sol\":52597:52614  remainingFreeMint */\n      dup3\n        /* \"StonersTown Contract/STW.sol\":52597:52625  remainingFreeMint * budPrice */\n      tag_333\n      jump\t// in\n    tag_339:\n        /* \"StonersTown Contract/STW.sol\":52588:52625  price -= remainingFreeMint * budPrice */\n      tag_340\n      swap1\n      dup4\n      tag_336\n      jump\t// in\n    tag_340:\n      swap2\n      pop\n        /* \"StonersTown Contract/STW.sol\":52647:52697  updateFreeMintCount(msg.sender, remainingFreeMint) */\n      tag_341\n        /* \"StonersTown Contract/STW.sol\":52667:52677  msg.sender */\n      caller\n        /* \"StonersTown Contract/STW.sol\":52679:52696  remainingFreeMint */\n      dup3\n        /* \"StonersTown Contract/STW.sol\":52647:52666  updateFreeMintCount */\n      tag_342\n        /* \"StonersTown Contract/STW.sol\":52647:52697  updateFreeMintCount(msg.sender, remainingFreeMint) */\n      jump\t// in\n    tag_341:\n        /* \"StonersTown Contract/STW.sol\":52528:52860  if (_mintAmount >= remainingFreeMint) {... */\n      jump(tag_346)\n    tag_338:\n        /* \"StonersTown Contract/STW.sol\":52767:52775  budPrice */\n      sload(0x0a)\n        /* \"StonersTown Contract/STW.sol\":52753:52775  _mintAmount * budPrice */\n      tag_344\n      swap1\n        /* \"StonersTown Contract/STW.sol\":52753:52764  _mintAmount */\n      dup6\n        /* \"StonersTown Contract/STW.sol\":52753:52775  _mintAmount * budPrice */\n      tag_333\n      jump\t// in\n    tag_344:\n        /* \"StonersTown Contract/STW.sol\":52744:52775  price -= _mintAmount * budPrice */\n      tag_345\n      swap1\n      dup4\n      tag_336\n      jump\t// in\n    tag_345:\n      swap2\n      pop\n        /* \"StonersTown Contract/STW.sol\":52797:52841  updateFreeMintCount(msg.sender, _mintAmount) */\n      tag_346\n        /* \"StonersTown Contract/STW.sol\":52817:52827  msg.sender */\n      caller\n        /* \"StonersTown Contract/STW.sol\":52829:52840  _mintAmount */\n      dup6\n        /* \"StonersTown Contract/STW.sol\":52797:52816  updateFreeMintCount */\n      tag_342\n        /* \"StonersTown Contract/STW.sol\":52797:52841  updateFreeMintCount(msg.sender, _mintAmount) */\n      jump\t// in\n    tag_346:\n        /* \"StonersTown Contract/STW.sol\":52364:52884  {... */\n      pop\n        /* \"StonersTown Contract/STW.sol\":52323:52884  if (_currentIndex < freeBudAllowedUntil) {... */\n    tag_334:\n        /* \"StonersTown Contract/STW.sol\":52915:52920  price */\n      dup1\n        /* \"StonersTown Contract/STW.sol\":52902:52911  msg.value */\n      callvalue\n        /* \"StonersTown Contract/STW.sol\":52902:52920  msg.value >= price */\n      lt\n      iszero\n        /* \"StonersTown Contract/STW.sol\":52894:52944  require(msg.value >= price, \"Insufficient funds!\") */\n      tag_347\n      jumpi\n      mload(0x40)\n      shl(0xe5, 0x461bcd)\n      dup2\n      mstore\n        /* \"#utility.yul\":10388:10390   */\n      0x20\n        /* \"StonersTown Contract/STW.sol\":52894:52944  require(msg.value >= price, \"Insufficient funds!\") */\n      0x04\n      dup3\n      add\n        /* \"#utility.yul\":10370:10391   */\n      mstore\n        /* \"#utility.yul\":10427:10429   */\n      0x13\n        /* \"#utility.yul\":10407:10425   */\n      0x24\n      dup3\n      add\n        /* \"#utility.yul\":10400:10430   */\n      mstore\n      shl(0x68, 0x496e73756666696369656e742066756e647321)\n        /* \"#utility.yul\":10446:10464   */\n      0x44\n      dup3\n      add\n        /* \"#utility.yul\":10439:10488   */\n      mstore\n        /* \"#utility.yul\":10505:10523   */\n      0x64\n      add\n        /* \"StonersTown Contract/STW.sol\":52894:52944  require(msg.value >= price, \"Insufficient funds!\") */\n      tag_237\n        /* \"#utility.yul\":10186:10529   */\n      jump\n        /* \"StonersTown Contract/STW.sol\":52894:52944  require(msg.value >= price, \"Insufficient funds!\") */\n    tag_347:\n        /* \"StonersTown Contract/STW.sol\":52955:52989  _safeMint(msg.sender, _mintAmount) */\n      tag_225\n        /* \"StonersTown Contract/STW.sol\":52965:52975  msg.sender */\n      caller\n        /* \"StonersTown Contract/STW.sol\":52977:52988  _mintAmount */\n      dup5\n        /* \"StonersTown Contract/STW.sol\":52955:52964  _safeMint */\n      tag_263\n        /* \"StonersTown Contract/STW.sol\":52955:52989  _safeMint(msg.sender, _mintAmount) */\n      jump\t// in\n        /* \"StonersTown Contract/STW.sol\":37308:37582  function setApprovalForAll(address operator, bool approved) public override {... */\n    tag_152:\n      sub(shl(0xa0, 0x01), 0x01)\n        /* \"StonersTown Contract/STW.sol\":37398:37422  operator == _msgSender() */\n      dup3\n      and\n        /* \"StonersTown Contract/STW.sol\":7632:7642  msg.sender */\n      caller\n        /* \"StonersTown Contract/STW.sol\":37398:37422  operator == _msgSender() */\n      eq\n        /* \"StonersTown Contract/STW.sol\":37394:37448  if (operator == _msgSender()) revert ApproveToCaller() */\n      iszero\n      tag_353\n      jumpi\n        /* \"StonersTown Contract/STW.sol\":37431:37448  ApproveToCaller() */\n      mload(0x40)\n      shl(0xe0, 0xb06307db)\n      dup2\n      mstore\n      0x04\n      add\n      mload(0x40)\n      dup1\n      swap2\n      sub\n      swap1\n      revert\n        /* \"StonersTown Contract/STW.sol\":37394:37448  if (operator == _msgSender()) revert ApproveToCaller() */\n    tag_353:\n        /* \"StonersTown Contract/STW.sol\":7632:7642  msg.sender */\n      caller\n        /* \"StonersTown Contract/STW.sol\":37459:37491  _operatorApprovals[_msgSender()] */\n      0x00\n      dup2\n      dup2\n      mstore\n        /* \"StonersTown Contract/STW.sol\":37459:37477  _operatorApprovals */\n      0x07\n        /* \"StonersTown Contract/STW.sol\":37459:37491  _operatorApprovals[_msgSender()] */\n      0x20\n      swap1\n      dup2\n      mstore\n      0x40\n      dup1\n      dup4\n      keccak256\n      sub(shl(0xa0, 0x01), 0x01)\n        /* \"StonersTown Contract/STW.sol\":37459:37501  _operatorApprovals[_msgSender()][operator] */\n      dup8\n      and\n      dup1\n      dup6\n      mstore\n      swap1\n      dup4\n      mstore\n      swap3\n      dup2\n      swap1\n      keccak256\n        /* \"StonersTown Contract/STW.sol\":37459:37512  _operatorApprovals[_msgSender()][operator] = approved */\n      dup1\n      sload\n      not(0xff)\n      and\n      dup7\n      iszero\n      iszero\n      swap1\n      dup2\n      or\n      swap1\n      swap2\n      sstore\n        /* \"StonersTown Contract/STW.sol\":37527:37575  ApprovalForAll(_msgSender(), operator, approved) */\n      swap1\n      mload\n        /* \"#utility.yul\":6255:6296   */\n      swap1\n      dup2\n      mstore\n        /* \"StonersTown Contract/STW.sol\":37459:37501  _operatorApprovals[_msgSender()][operator] */\n      swap2\n      swap3\n        /* \"StonersTown Contract/STW.sol\":7632:7642  msg.sender */\n      swap2\n        /* \"StonersTown Contract/STW.sol\":37527:37575  ApprovalForAll(_msgSender(), operator, approved) */\n      0x17307eab39ab6107e8899845ad3d59bd9653f200f220920489ca2b5937696c31\n      swap2\n        /* \"#utility.yul\":6228:6246   */\n      add\n        /* \"StonersTown Contract/STW.sol\":37527:37575  ApprovalForAll(_msgSender(), operator, approved) */\n      mload(0x40)\n      dup1\n      swap2\n      sub\n      swap1\n      log3\n        /* \"StonersTown Contract/STW.sol\":37308:37582  function setApprovalForAll(address operator, bool approved) public override {... */\n      pop\n      pop\n      jump\t// out\n        /* \"StonersTown Contract/STW.sol\":51127:51276  function setFreeMintAllowance(uint256 freeMintAllowance)... */\n    tag_156:\n        /* \"StonersTown Contract/STW.sol\":8857:8863  _owner */\n      and(sub(shl(0xa0, 0x01), 0x01), sload(0x08))\n        /* \"StonersTown Contract/STW.sol\":7632:7642  msg.sender */\n      caller\n        /* \"StonersTown Contract/STW.sol\":8997:9020  owner() == _msgSender() */\n      eq\n        /* \"StonersTown Contract/STW.sol\":8989:9057  require(owner() == _msgSender(), \"Ownable: caller is not the owner\") */\n      tag_360\n      jumpi\n      mload(0x40)\n      shl(0xe5, 0x461bcd)\n      dup2\n      mstore\n      0x04\n      add\n      tag_237\n      swap1\n      tag_238\n      jump\t// in\n    tag_360:\n        /* \"StonersTown Contract/STW.sol\":51233:51249  freeBudPerWallet */\n      0x0d\n        /* \"StonersTown Contract/STW.sol\":51233:51269  freeBudPerWallet = freeMintAllowance */\n      sstore\n        /* \"StonersTown Contract/STW.sol\":51127:51276  function setFreeMintAllowance(uint256 freeMintAllowance)... */\n      jump\t// out\n        /* \"StonersTown Contract/STW.sol\":38347:38706  function safeTransferFrom(... */\n    tag_161:\n        /* \"StonersTown Contract/STW.sol\":38508:38536  _transfer(from, to, tokenId) */\n      tag_364\n        /* \"StonersTown Contract/STW.sol\":38518:38522  from */\n      dup5\n        /* \"StonersTown Contract/STW.sol\":38524:38526  to */\n      dup5\n        /* \"StonersTown Contract/STW.sol\":38528:38535  tokenId */\n      dup5\n        /* \"StonersTown Contract/STW.sol\":38508:38517  _transfer */\n      tag_232\n        /* \"StonersTown Contract/STW.sol\":38508:38536  _transfer(from, to, tokenId) */\n      jump\t// in\n    tag_364:\n      sub(shl(0xa0, 0x01), 0x01)\n        /* \"StonersTown Contract/STW.sol\":38550:38563  to.isContract */\n      dup4\n      and\n        /* \"StonersTown Contract/STW.sol\":11696:11715  account.code.length */\n      extcodesize\n        /* \"StonersTown Contract/STW.sol\":11696:11719  account.code.length > 0 */\n      iszero\n      iszero\n        /* \"StonersTown Contract/STW.sol\":38550:38626  to.isContract() && !_checkContractOnERC721Received(from, to, tokenId, _data) */\n      dup1\n      iszero\n      tag_367\n      jumpi\n      pop\n        /* \"StonersTown Contract/STW.sol\":38570:38626  _checkContractOnERC721Received(from, to, tokenId, _data) */\n      tag_368\n        /* \"StonersTown Contract/STW.sol\":38601:38605  from */\n      dup5\n        /* \"StonersTown Contract/STW.sol\":38607:38609  to */\n      dup5\n        /* \"StonersTown Contract/STW.sol\":38611:38618  tokenId */\n      dup5\n        /* \"StonersTown Contract/STW.sol\":38620:38625  _data */\n      dup5\n        /* \"StonersTown Contract/STW.sol\":38570:38600  _checkContractOnERC721Received */\n      tag_369\n        /* \"StonersTown Contract/STW.sol\":38570:38626  _checkContractOnERC721Received(from, to, tokenId, _data) */\n      jump\t// in\n    tag_368:\n        /* \"StonersTown Contract/STW.sol\":38569:38626  !_checkContractOnERC721Received(from, to, tokenId, _data) */\n      iszero\n        /* \"StonersTown Contract/STW.sol\":38550:38626  to.isContract() && !_checkContractOnERC721Received(from, to, tokenId, _data) */\n    tag_367:\n        /* \"StonersTown Contract/STW.sol\":38546:38700  if (to.isContract() && !_checkContractOnERC721Received(from, to, tokenId, _data)) {... */\n      iszero\n      tag_370\n      jumpi\n        /* \"StonersTown Contract/STW.sol\":38649:38689  TransferToNonERC721ReceiverImplementer() */\n      mload(0x40)\n      shl(0xe1, 0x68d2bf6b)\n      dup2\n      mstore\n      0x04\n      add\n      mload(0x40)\n      dup1\n      swap2\n      sub\n      swap1\n      revert\n        /* \"StonersTown Contract/STW.sol\":38546:38700  if (to.isContract() && !_checkContractOnERC721Received(from, to, tokenId, _data)) {... */\n    tag_370:\n        /* \"StonersTown Contract/STW.sol\":38347:38706  function safeTransferFrom(... */\n      pop\n      pop\n      pop\n      pop\n      jump\t// out\n        /* \"StonersTown Contract/STW.sol\":50703:50948  function lowerMaxSupply(uint256 newMaxSupply) external onlyOwner {... */\n    tag_165:\n        /* \"StonersTown Contract/STW.sol\":8857:8863  _owner */\n      and(sub(shl(0xa0, 0x01), 0x01), sload(0x08))\n        /* \"StonersTown Contract/STW.sol\":7632:7642  msg.sender */\n      caller\n        /* \"StonersTown Contract/STW.sol\":8997:9020  owner() == _msgSender() */\n      eq\n        /* \"StonersTown Contract/STW.sol\":8989:9057  require(owner() == _msgSender(), \"Ownable: caller is not the owner\") */\n      tag_374\n      jumpi\n      mload(0x40)\n      shl(0xe5, 0x461bcd)\n      dup2\n      mstore\n      0x04\n      add\n      tag_237\n      swap1\n      tag_238\n      jump\t// in\n    tag_374:\n        /* \"StonersTown Contract/STW.sol\":50801:50808  maxbuds */\n      sload(0x0b)\n        /* \"StonersTown Contract/STW.sol\":50786:50798  newMaxSupply */\n      dup2\n        /* \"StonersTown Contract/STW.sol\":50786:50808  newMaxSupply < maxbuds */\n      lt\n        /* \"StonersTown Contract/STW.sol\":50778:50835  require(newMaxSupply < maxbuds, \"Invalid new max supply\") */\n      tag_377\n      jumpi\n      mload(0x40)\n      shl(0xe5, 0x461bcd)\n      dup2\n      mstore\n        /* \"#utility.yul\":8983:8985   */\n      0x20\n        /* \"StonersTown Contract/STW.sol\":50778:50835  require(newMaxSupply < maxbuds, \"Invalid new max supply\") */\n      0x04\n      dup3\n      add\n        /* \"#utility.yul\":8965:8986   */\n      mstore\n        /* \"#utility.yul\":9022:9024   */\n      0x16\n        /* \"#utility.yul\":9002:9020   */\n      0x24\n      dup3\n      add\n        /* \"#utility.yul\":8995:9025   */\n      mstore\n      shl(0x50, 0x496e76616c6964206e6577206d617820737570706c79)\n        /* \"#utility.yul\":9041:9059   */\n      0x44\n      dup3\n      add\n        /* \"#utility.yul\":9034:9086   */\n      mstore\n        /* \"#utility.yul\":9103:9121   */\n      0x64\n      add\n        /* \"StonersTown Contract/STW.sol\":50778:50835  require(newMaxSupply < maxbuds, \"Invalid new max supply\") */\n      tag_237\n        /* \"#utility.yul\":8781:9127   */\n      jump\n        /* \"StonersTown Contract/STW.sol\":50778:50835  require(newMaxSupply < maxbuds, \"Invalid new max supply\") */\n    tag_377:\n        /* \"StonersTown Contract/STW.sol\":50869:50882  _currentIndex */\n      sload(0x00)\n        /* \"StonersTown Contract/STW.sol\":50853:50865  newMaxSupply */\n      dup2\n        /* \"StonersTown Contract/STW.sol\":50853:50882  newMaxSupply >= _currentIndex */\n      lt\n      iszero\n        /* \"StonersTown Contract/STW.sol\":50845:50909  require(newMaxSupply >= _currentIndex, \"Invalid new max supply\") */\n      tag_380\n      jumpi\n      mload(0x40)\n      shl(0xe5, 0x461bcd)\n      dup2\n      mstore\n        /* \"#utility.yul\":8983:8985   */\n      0x20\n        /* \"StonersTown Contract/STW.sol\":50845:50909  require(newMaxSupply >= _currentIndex, \"Invalid new max supply\") */\n      0x04\n      dup3\n      add\n        /* \"#utility.yul\":8965:8986   */\n      mstore\n        /* \"#utility.yul\":9022:9024   */\n      0x16\n        /* \"#utility.yul\":9002:9020   */\n      0x24\n      dup3\n      add\n        /* \"#utility.yul\":8995:9025   */\n      mstore\n      shl(0x50, 0x496e76616c6964206e6577206d617820737570706c79)\n        /* \"#utility.yul\":9041:9059   */\n      0x44\n      dup3\n      add\n        /* \"#utility.yul\":9034:9086   */\n      mstore\n        /* \"#utility.yul\":9103:9121   */\n      0x64\n      add\n        /* \"StonersTown Contract/STW.sol\":50845:50909  require(newMaxSupply >= _currentIndex, \"Invalid new max supply\") */\n      tag_237\n        /* \"#utility.yul\":8781:9127   */\n      jump\n        /* \"StonersTown Contract/STW.sol\":50845:50909  require(newMaxSupply >= _currentIndex, \"Invalid new max supply\") */\n    tag_380:\n        /* \"StonersTown Contract/STW.sol\":50919:50926  maxbuds */\n      0x0b\n        /* \"StonersTown Contract/STW.sol\":50919:50941  maxbuds = newMaxSupply */\n      sstore\n        /* \"StonersTown Contract/STW.sol\":50703:50948  function lowerMaxSupply(uint256 newMaxSupply) external onlyOwner {... */\n      jump\t// out\n        /* \"StonersTown Contract/STW.sol\":35906:36228  function tokenURI(uint256 tokenId) public view virtual override returns (string memory) {... */\n    tag_169:\n        /* \"StonersTown Contract/STW.sol\":35979:35992  string memory */\n      0x60\n        /* \"StonersTown Contract/STW.sol\":36009:36025  _exists(tokenId) */\n      tag_383\n        /* \"StonersTown Contract/STW.sol\":36017:36024  tokenId */\n      dup3\n        /* \"StonersTown Contract/STW.sol\":36009:36016  _exists */\n      tag_214\n        /* \"StonersTown Contract/STW.sol\":36009:36025  _exists(tokenId) */\n      jump\t// in\n    tag_383:\n        /* \"StonersTown Contract/STW.sol\":36004:36063  if (!_exists(tokenId)) revert URIQueryForNonexistentToken() */\n      tag_384\n      jumpi\n        /* \"StonersTown Contract/STW.sol\":36034:36063  URIQueryForNonexistentToken() */\n      mload(0x40)\n      shl(0xe4, 0x0a14c4b5)\n      dup2\n      mstore\n      0x04\n      add\n      mload(0x40)\n      dup1\n      swap2\n      sub\n      swap1\n      revert\n        /* \"StonersTown Contract/STW.sol\":36004:36063  if (!_exists(tokenId)) revert URIQueryForNonexistentToken() */\n    tag_384:\n        /* \"StonersTown Contract/STW.sol\":36074:36095  string memory baseURI */\n      0x00\n        /* \"StonersTown Contract/STW.sol\":36098:36108  _baseURI() */\n      tag_385\n        /* \"StonersTown Contract/STW.sol\":36098:36106  _baseURI */\n      tag_386\n        /* \"StonersTown Contract/STW.sol\":36098:36108  _baseURI() */\n      jump\t// in\n    tag_385:\n        /* \"StonersTown Contract/STW.sol\":36074:36108  string memory baseURI = _baseURI() */\n      swap1\n      pop\n        /* \"StonersTown Contract/STW.sol\":36131:36138  baseURI */\n      dup1\n        /* \"StonersTown Contract/STW.sol\":36125:36146  bytes(baseURI).length */\n      mload\n        /* \"StonersTown Contract/STW.sol\":36150:36151  0 */\n      0x00\n        /* \"StonersTown Contract/STW.sol\":36125:36151  bytes(baseURI).length != 0 */\n      eq\n      iszero\n        /* \"StonersTown Contract/STW.sol\":36125:36221  bytes(baseURI).length != 0 ? string(abi.encodePacked(baseURI, tokenId.toString(), \".json\")) : '' */\n      tag_387\n      jumpi\n      mload(0x40)\n      dup1\n      0x20\n      add\n      0x40\n      mstore\n      dup1\n      0x00\n      dup2\n      mstore\n      pop\n      jump(tag_388)\n    tag_387:\n        /* \"StonersTown Contract/STW.sol\":36178:36185  baseURI */\n      dup1\n        /* \"StonersTown Contract/STW.sol\":36187:36205  tokenId.toString() */\n      tag_389\n        /* \"StonersTown Contract/STW.sol\":36187:36194  tokenId */\n      dup5\n        /* \"StonersTown Contract/STW.sol\":36187:36203  tokenId.toString */\n      tag_390\n        /* \"StonersTown Contract/STW.sol\":36187:36205  tokenId.toString() */\n      jump\t// in\n    tag_389:\n        /* \"StonersTown Contract/STW.sol\":36161:36215  abi.encodePacked(baseURI, tokenId.toString(), \".json\") */\n      add(0x20, mload(0x40))\n      tag_391\n      swap3\n      swap2\n      swap1\n      tag_392\n      jump\t// in\n    tag_391:\n      mload(0x40)\n      0x20\n      dup2\n      dup4\n      sub\n      sub\n      dup2\n      mstore\n      swap1\n      0x40\n      mstore\n        /* \"StonersTown Contract/STW.sol\":36125:36221  bytes(baseURI).length != 0 ? string(abi.encodePacked(baseURI, tokenId.toString(), \".json\")) : '' */\n    tag_388:\n        /* \"StonersTown Contract/STW.sol\":36118:36221  return bytes(baseURI).length != 0 ? string(abi.encodePacked(baseURI, tokenId.toString(), \".json\")) : '' */\n      swap4\n        /* \"StonersTown Contract/STW.sol\":35906:36228  function tokenURI(uint256 tokenId) public view virtual override returns (string memory) {... */\n      swap3\n      pop\n      pop\n      pop\n      jump\t// out\n        /* \"StonersTown Contract/STW.sol\":51684:51768  function freezeMetadata() external onlyOwner {... */\n    tag_177:\n        /* \"StonersTown Contract/STW.sol\":8857:8863  _owner */\n      and(sub(shl(0xa0, 0x01), 0x01), sload(0x08))\n        /* \"StonersTown Contract/STW.sol\":7632:7642  msg.sender */\n      caller\n        /* \"StonersTown Contract/STW.sol\":8997:9020  owner() == _msgSender() */\n      eq\n        /* \"StonersTown Contract/STW.sol\":8989:9057  require(owner() == _msgSender(), \"Ownable: caller is not the owner\") */\n      tag_396\n      jumpi\n      mload(0x40)\n      shl(0xe5, 0x461bcd)\n      dup2\n      mstore\n      0x04\n      add\n      tag_237\n      swap1\n      tag_238\n      jump\t// in\n    tag_396:\n        /* \"StonersTown Contract/STW.sol\":51739:51754  METADATA_FROZEN */\n      0x11\n        /* \"StonersTown Contract/STW.sol\":51739:51761  METADATA_FROZEN = true */\n      dup1\n      sload\n      not(0xff)\n      and\n        /* \"StonersTown Contract/STW.sol\":51757:51761  true */\n      0x01\n        /* \"StonersTown Contract/STW.sol\":51739:51761  METADATA_FROZEN = true */\n      or\n      swap1\n      sstore\n        /* \"StonersTown Contract/STW.sol\":51684:51768  function freezeMetadata() external onlyOwner {... */\n      jump\t// out\n        /* \"StonersTown Contract/STW.sol\":9667:9865  function transferOwnership(address newOwner) public virtual onlyOwner {... */\n    tag_195:\n        /* \"StonersTown Contract/STW.sol\":8857:8863  _owner */\n      and(sub(shl(0xa0, 0x01), 0x01), sload(0x08))\n        /* \"StonersTown Contract/STW.sol\":7632:7642  msg.sender */\n      caller\n        /* \"StonersTown Contract/STW.sol\":8997:9020  owner() == _msgSender() */\n      eq\n        /* \"StonersTown Contract/STW.sol\":8989:9057  require(owner() == _msgSender(), \"Ownable: caller is not the owner\") */\n      tag_403\n      jumpi\n      mload(0x40)\n      shl(0xe5, 0x461bcd)\n      dup2\n      mstore\n      0x04\n      add\n      tag_237\n      swap1\n      tag_238\n      jump\t// in\n    tag_403:\n      sub(shl(0xa0, 0x01), 0x01)\n        /* \"StonersTown Contract/STW.sol\":9755:9777  newOwner != address(0) */\n      dup2\n      and\n        /* \"StonersTown Contract/STW.sol\":9747:9820  require(newOwner != address(0), \"Ownable: new owner is the zero address\") */\n      tag_406\n      jumpi\n      mload(0x40)\n      shl(0xe5, 0x461bcd)\n      dup2\n      mstore\n        /* \"#utility.yul\":6733:6735   */\n      0x20\n        /* \"StonersTown Contract/STW.sol\":9747:9820  require(newOwner != address(0), \"Ownable: new owner is the zero address\") */\n      0x04\n      dup3\n      add\n        /* \"#utility.yul\":6715:6736   */\n      mstore\n        /* \"#utility.yul\":6772:6774   */\n      0x26\n        /* \"#utility.yul\":6752:6770   */\n      0x24\n      dup3\n      add\n        /* \"#utility.yul\":6745:6775   */\n      mstore\n        /* \"#utility.yul\":6811:6845   */\n      0x4f776e61626c653a206e6577206f776e657220697320746865207a65726f2061\n        /* \"#utility.yul\":6791:6809   */\n      0x44\n      dup3\n      add\n        /* \"#utility.yul\":6784:6846   */\n      mstore\n      shl(0xd0, 0x646472657373)\n        /* \"#utility.yul\":6862:6880   */\n      0x64\n      dup3\n      add\n        /* \"#utility.yul\":6855:6891   */\n      mstore\n        /* \"#utility.yul\":6908:6927   */\n      0x84\n      add\n        /* \"StonersTown Contract/STW.sol\":9747:9820  require(newOwner != address(0), \"Ownable: new owner is the zero address\") */\n      tag_237\n        /* \"#utility.yul\":6531:6933   */\n      jump\n        /* \"StonersTown Contract/STW.sol\":9747:9820  require(newOwner != address(0), \"Ownable: new owner is the zero address\") */\n    tag_406:\n        /* \"StonersTown Contract/STW.sol\":9830:9858  _transferOwnership(newOwner) */\n      tag_409\n        /* \"StonersTown Contract/STW.sol\":9849:9857  newOwner */\n      dup2\n        /* \"StonersTown Contract/STW.sol\":9830:9848  _transferOwnership */\n      tag_295\n        /* \"StonersTown Contract/STW.sol\":9830:9858  _transferOwnership(newOwner) */\n      jump\t// in\n    tag_409:\n        /* \"StonersTown Contract/STW.sol\":9667:9865  function transferOwnership(address newOwner) public virtual onlyOwner {... */\n      pop\n      jump\t// out\n        /* \"StonersTown Contract/STW.sol\":38952:39136  function _exists(uint256 tokenId) internal view returns (bool) {... */\n    tag_214:\n        /* \"StonersTown Contract/STW.sol\":39009:39013  bool */\n      0x00\n        /* \"StonersTown Contract/STW.sol\":39051:39058  tokenId */\n      dup2\n        /* \"StonersTown Contract/STW.sol\":31365:31366  1 */\n      0x01\n        /* \"StonersTown Contract/STW.sol\":39032:39058  _startTokenId() <= tokenId */\n      gt\n      iszero\n        /* \"StonersTown Contract/STW.sol\":39032:39085  _startTokenId() <= tokenId && tokenId < _currentIndex */\n      dup1\n      iszero\n      tag_413\n      jumpi\n      pop\n        /* \"StonersTown Contract/STW.sol\":39072:39085  _currentIndex */\n      sload(0x00)\n        /* \"StonersTown Contract/STW.sol\":39062:39069  tokenId */\n      dup3\n        /* \"StonersTown Contract/STW.sol\":39062:39085  tokenId < _currentIndex */\n      lt\n        /* \"StonersTown Contract/STW.sol\":39032:39085  _startTokenId() <= tokenId && tokenId < _currentIndex */\n    tag_413:\n        /* \"StonersTown Contract/STW.sol\":39032:39129  _startTokenId() <= tokenId && tokenId < _currentIndex &&... */\n      dup1\n      iszero\n      tag_203\n      jumpi\n      pop\n      pop\n        /* \"StonersTown Contract/STW.sol\":39102:39122  _ownerships[tokenId] */\n      0x00\n      swap1\n      dup2\n      mstore\n        /* \"StonersTown Contract/STW.sol\":39102:39113  _ownerships */\n      0x04\n        /* \"StonersTown Contract/STW.sol\":39102:39122  _ownerships[tokenId] */\n      0x20\n      mstore\n      0x40\n      swap1\n      keccak256\n        /* \"StonersTown Contract/STW.sol\":39102:39129  _ownerships[tokenId].burned */\n      sload\n      shl(0xe0, 0x01)\n      swap1\n      div\n      0xff\n      and\n        /* \"StonersTown Contract/STW.sol\":39101:39129  !_ownerships[tokenId].burned */\n      iszero\n      swap1\n        /* \"StonersTown Contract/STW.sol\":38952:39136  function _exists(uint256 tokenId) internal view returns (bool) {... */\n      jump\t// out\n        /* \"StonersTown Contract/STW.sol\":46368:46557  function _approve(... */\n    tag_226:\n        /* \"StonersTown Contract/STW.sol\":46478:46502  _tokenApprovals[tokenId] */\n      0x00\n      dup3\n      dup2\n      mstore\n        /* \"StonersTown Contract/STW.sol\":46478:46493  _tokenApprovals */\n      0x06\n        /* \"StonersTown Contract/STW.sol\":46478:46502  _tokenApprovals[tokenId] */\n      0x20\n      mstore\n      0x40\n      dup1\n      dup3\n      keccak256\n        /* \"StonersTown Contract/STW.sol\":46478:46507  _tokenApprovals[tokenId] = to */\n      dup1\n      sload\n      not(sub(shl(0xa0, 0x01), 0x01))\n      and\n      sub(shl(0xa0, 0x01), 0x01)\n      dup8\n      dup2\n      and\n      swap2\n      dup3\n      or\n      swap1\n      swap3\n      sstore\n        /* \"StonersTown Contract/STW.sol\":46522:46550  Approval(owner, to, tokenId) */\n      swap2\n      mload\n        /* \"StonersTown Contract/STW.sol\":46478:46502  _tokenApprovals[tokenId] */\n      dup6\n      swap4\n        /* \"StonersTown Contract/STW.sol\":46522:46550  Approval(owner, to, tokenId) */\n      swap2\n      dup6\n      and\n      swap2\n      0x8c5be1e5ebec7d5bd14f71427d1e84f3dd0314c0f7b2291e5b200ac8c7c3b925\n      swap2\n      log4\n        /* \"StonersTown Contract/STW.sol\":46368:46557  function _approve(... */\n      pop\n      pop\n      pop\n      jump\t// out\n        /* \"StonersTown Contract/STW.sol\":41974:44041  function _transfer(... */\n    tag_232:\n        /* \"StonersTown Contract/STW.sol\":42084:42119  TokenOwnership memory prevOwnership */\n      0x00\n        /* \"StonersTown Contract/STW.sol\":42122:42142  ownershipOf(tokenId) */\n      tag_419\n        /* \"StonersTown Contract/STW.sol\":42134:42141  tokenId */\n      dup3\n        /* \"StonersTown Contract/STW.sol\":42122:42133  ownershipOf */\n      tag_285\n        /* \"StonersTown Contract/STW.sol\":42122:42142  ownershipOf(tokenId) */\n      jump\t// in\n    tag_419:\n        /* \"StonersTown Contract/STW.sol\":42195:42213  prevOwnership.addr */\n      dup1\n      mload\n        /* \"StonersTown Contract/STW.sol\":42084:42142  TokenOwnership memory prevOwnership = ownershipOf(tokenId) */\n      swap1\n      swap2\n      pop\n        /* \"StonersTown Contract/STW.sol\":42153:42175  bool isApprovedOrOwner */\n      0x00\n      swap1\n      sub(shl(0xa0, 0x01), 0x01)\n        /* \"StonersTown Contract/STW.sol\":42179:42213  _msgSender() == prevOwnership.addr */\n      and\n        /* \"StonersTown Contract/STW.sol\":7632:7642  msg.sender */\n      caller\n      sub(shl(0xa0, 0x01), 0x01)\n        /* \"StonersTown Contract/STW.sol\":42179:42213  _msgSender() == prevOwnership.addr */\n      and\n      eq\n        /* \"StonersTown Contract/STW.sol\":42179:42279  _msgSender() == prevOwnership.addr ||... */\n      dup1\n      tag_422\n      jumpi\n      pop\n        /* \"StonersTown Contract/STW.sol\":42246:42264  prevOwnership.addr */\n      dup2\n      mload\n        /* \"StonersTown Contract/STW.sol\":42229:42279  isApprovedForAll(prevOwnership.addr, _msgSender()) */\n      tag_422\n      swap1\n        /* \"StonersTown Contract/STW.sol\":7632:7642  msg.sender */\n      caller\n        /* \"StonersTown Contract/STW.sol\":37648:37810  function isApprovedForAll(address owner, address operator) public view virtual override returns (bool) {... */\n      tag_184\n      jump\t// in\n        /* \"StonersTown Contract/STW.sol\":42229:42279  isApprovedForAll(prevOwnership.addr, _msgSender()) */\n    tag_422:\n        /* \"StonersTown Contract/STW.sol\":42179:42331  _msgSender() == prevOwnership.addr ||... */\n      dup1\n      tag_424\n      jumpi\n      pop\n        /* \"StonersTown Contract/STW.sol\":7632:7642  msg.sender */\n      caller\n        /* \"StonersTown Contract/STW.sol\":42295:42315  getApproved(tokenId) */\n      tag_426\n        /* \"StonersTown Contract/STW.sol\":42307:42314  tokenId */\n      dup5\n        /* \"StonersTown Contract/STW.sol\":42295:42306  getApproved */\n      tag_60\n        /* \"StonersTown Contract/STW.sol\":42295:42315  getApproved(tokenId) */\n      jump\t// in\n    tag_426:\n      sub(shl(0xa0, 0x01), 0x01)\n        /* \"StonersTown Contract/STW.sol\":42295:42331  getApproved(tokenId) == _msgSender() */\n      and\n      eq\n        /* \"StonersTown Contract/STW.sol\":42179:42331  _msgSender() == prevOwnership.addr ||... */\n    tag_424:\n        /* \"StonersTown Contract/STW.sol\":42153:42332  bool isApprovedOrOwner = (_msgSender() == prevOwnership.addr ||... */\n      swap1\n      pop\n        /* \"StonersTown Contract/STW.sol\":42348:42365  isApprovedOrOwner */\n      dup1\n        /* \"StonersTown Contract/STW.sol\":42343:42409  if (!isApprovedOrOwner) revert TransferCallerNotOwnerNorApproved() */\n      tag_427\n      jumpi\n        /* \"StonersTown Contract/STW.sol\":42374:42409  TransferCallerNotOwnerNorApproved() */\n      mload(0x40)\n      shl(0xe1, 0x2ce44b5f)\n      dup2\n      mstore\n      0x04\n      add\n      mload(0x40)\n      dup1\n      swap2\n      sub\n      swap1\n      revert\n        /* \"StonersTown Contract/STW.sol\":42343:42409  if (!isApprovedOrOwner) revert TransferCallerNotOwnerNorApproved() */\n    tag_427:\n        /* \"StonersTown Contract/STW.sol\":42445:42449  from */\n      dup5\n      sub(shl(0xa0, 0x01), 0x01)\n        /* \"StonersTown Contract/STW.sol\":42423:42449  prevOwnership.addr != from */\n      and\n        /* \"StonersTown Contract/STW.sol\":42423:42436  prevOwnership */\n      dup3\n        /* \"StonersTown Contract/STW.sol\":42423:42441  prevOwnership.addr */\n      0x00\n      add\n      mload\n      sub(shl(0xa0, 0x01), 0x01)\n        /* \"StonersTown Contract/STW.sol\":42423:42449  prevOwnership.addr != from */\n      and\n      eq\n        /* \"StonersTown Contract/STW.sol\":42419:42486  if (prevOwnership.addr != from) revert TransferFromIncorrectOwner() */\n      tag_428\n      jumpi\n        /* \"StonersTown Contract/STW.sol\":42458:42486  TransferFromIncorrectOwner() */\n      mload(0x40)\n      shl(0xe8, 0xa11481)\n      dup2\n      mstore\n      0x04\n      add\n      mload(0x40)\n      dup1\n      swap2\n      sub\n      swap1\n      revert\n        /* \"StonersTown Contract/STW.sol\":42419:42486  if (prevOwnership.addr != from) revert TransferFromIncorrectOwner() */\n    tag_428:\n      sub(shl(0xa0, 0x01), 0x01)\n        /* \"StonersTown Contract/STW.sol\":42500:42516  to == address(0) */\n      dup5\n      and\n        /* \"StonersTown Contract/STW.sol\":42496:42548  if (to == address(0)) revert TransferToZeroAddress() */\n      tag_429\n      jumpi\n        /* \"StonersTown Contract/STW.sol\":42525:42548  TransferToZeroAddress() */\n      mload(0x40)\n      shl(0xe2, 0x3a954ecd)\n      dup2\n      mstore\n      0x04\n      add\n      mload(0x40)\n      dup1\n      swap2\n      sub\n      swap1\n      revert\n        /* \"StonersTown Contract/STW.sol\":42496:42548  if (to == address(0)) revert TransferToZeroAddress() */\n    tag_429:\n        /* \"StonersTown Contract/STW.sol\":42664:42713  _approve(address(0), tokenId, prevOwnership.addr) */\n      tag_432\n        /* \"StonersTown Contract/STW.sol\":42681:42682  0 */\n      0x00\n        /* \"StonersTown Contract/STW.sol\":42685:42692  tokenId */\n      dup5\n        /* \"StonersTown Contract/STW.sol\":42694:42707  prevOwnership */\n      dup5\n        /* \"StonersTown Contract/STW.sol\":42694:42712  prevOwnership.addr */\n      0x00\n      add\n      mload\n        /* \"StonersTown Contract/STW.sol\":42664:42672  _approve */\n      tag_226\n        /* \"StonersTown Contract/STW.sol\":42664:42713  _approve(address(0), tokenId, prevOwnership.addr) */\n      jump\t// in\n    tag_432:\n      sub(shl(0xa0, 0x01), 0x01)\n        /* \"StonersTown Contract/STW.sol\":43003:43021  _addressData[from] */\n      dup6\n      dup2\n      and\n      0x00\n      swap1\n      dup2\n      mstore\n        /* \"StonersTown Contract/STW.sol\":43003:43015  _addressData */\n      0x05\n        /* \"StonersTown Contract/STW.sol\":43003:43021  _addressData[from] */\n      0x20\n      swap1\n      dup2\n      mstore\n      0x40\n      dup1\n      dup4\n      keccak256\n        /* \"StonersTown Contract/STW.sol\":43003:43034  _addressData[from].balance -= 1 */\n      dup1\n      sload\n      not(0xffffffffffffffff)\n      dup1\n      dup3\n      and\n      0xffffffffffffffff\n      swap3\n      dup4\n      and\n      not(0x00)\n      add\n      dup4\n      and\n      or\n      swap1\n      swap3\n      sstore\n        /* \"StonersTown Contract/STW.sol\":43048:43064  _addressData[to] */\n      dup10\n      dup7\n      and\n      dup1\n      dup7\n      mstore\n      dup4\n      dup7\n      keccak256\n        /* \"StonersTown Contract/STW.sol\":43048:43077  _addressData[to].balance += 1 */\n      dup1\n      sload\n      swap4\n      dup5\n      and\n      swap4\n      dup4\n      and\n      0x01\n      swap1\n      dup2\n      add\n      dup5\n      and\n      swap5\n      swap1\n      swap5\n      or\n      swap1\n      sstore\n        /* \"StonersTown Contract/STW.sol\":43092:43112  _ownerships[tokenId] */\n      dup10\n      dup7\n      mstore\n        /* \"StonersTown Contract/STW.sol\":43092:43103  _ownerships */\n      0x04\n        /* \"StonersTown Contract/STW.sol\":43092:43112  _ownerships[tokenId] */\n      swap1\n      swap5\n      mstore\n      dup3\n      dup6\n      keccak256\n        /* \"StonersTown Contract/STW.sol\":43092:43122  _ownerships[tokenId].addr = to */\n      dup1\n      sload\n      not(sub(shl(0xe0, 0x01), 0x01))\n        /* \"StonersTown Contract/STW.sol\":43136:43197  _ownerships[tokenId].startTimestamp = uint64(block.timestamp) */\n      and\n      swap1\n      swap5\n      or\n      shl(0xa0, 0x01)\n        /* \"StonersTown Contract/STW.sol\":43181:43196  block.timestamp */\n      timestamp\n        /* \"StonersTown Contract/STW.sol\":43136:43197  _ownerships[tokenId].startTimestamp = uint64(block.timestamp) */\n      swap1\n      swap3\n      and\n      swap2\n      swap1\n      swap2\n      mul\n      or\n      swap1\n      swap3\n      sstore\n        /* \"StonersTown Contract/STW.sol\":43467:43478  tokenId + 1 */\n      swap1\n      dup7\n      add\n        /* \"StonersTown Contract/STW.sol\":43496:43520  _ownerships[nextTokenId] */\n      dup1\n      dup4\n      mstore\n      swap2\n      keccak256\n        /* \"StonersTown Contract/STW.sol\":43496:43525  _ownerships[nextTokenId].addr */\n      sload\n        /* \"StonersTown Contract/STW.sol\":43467:43478  tokenId + 1 */\n      swap1\n      swap2\n        /* \"StonersTown Contract/STW.sol\":43496:43525  _ownerships[nextTokenId].addr */\n      and\n        /* \"StonersTown Contract/STW.sol\":43492:43930  if (_ownerships[nextTokenId].addr == address(0)) {... */\n      tag_434\n      jumpi\n        /* \"StonersTown Contract/STW.sol\":43718:43731  _currentIndex */\n      sload(0x00)\n        /* \"StonersTown Contract/STW.sol\":43704:43715  nextTokenId */\n      dup2\n        /* \"StonersTown Contract/STW.sol\":43704:43731  nextTokenId < _currentIndex */\n      lt\n        /* \"StonersTown Contract/STW.sol\":43700:43916  if (nextTokenId < _currentIndex) {... */\n      iszero\n      tag_434\n      jumpi\n        /* \"StonersTown Contract/STW.sol\":43787:43805  prevOwnership.addr */\n      dup3\n      mload\n      0x00\n        /* \"StonersTown Contract/STW.sol\":43755:43779  _ownerships[nextTokenId] */\n      dup3\n      dup2\n      mstore\n        /* \"StonersTown Contract/STW.sol\":43755:43766  _ownerships */\n      0x04\n        /* \"StonersTown Contract/STW.sol\":43755:43779  _ownerships[nextTokenId] */\n      0x20\n      swap1\n      dup2\n      mstore\n      0x40\n      swap1\n      swap2\n      keccak256\n        /* \"StonersTown Contract/STW.sol\":43755:43805  _ownerships[nextTokenId].addr = prevOwnership.addr */\n      dup1\n      sload\n        /* \"StonersTown Contract/STW.sol\":43869:43897  prevOwnership.startTimestamp */\n      swap2\n      dup7\n      add\n      mload\n        /* \"StonersTown Contract/STW.sol\":43827:43897  _ownerships[nextTokenId].startTimestamp = prevOwnership.startTimestamp */\n      0xffffffffffffffff\n      and\n      shl(0xa0, 0x01)\n      mul\n      not(sub(shl(0xe0, 0x01), 0x01))\n      swap1\n      swap3\n      and\n      sub(shl(0xa0, 0x01), 0x01)\n        /* \"StonersTown Contract/STW.sol\":43755:43805  _ownerships[nextTokenId].addr = prevOwnership.addr */\n      swap1\n      swap4\n      and\n        /* \"StonersTown Contract/STW.sol\":43827:43897  _ownerships[nextTokenId].startTimestamp = prevOwnership.startTimestamp */\n      swap3\n      swap1\n      swap3\n      or\n      or\n      swap1\n      sstore\n        /* \"StonersTown Contract/STW.sol\":43700:43916  if (nextTokenId < _currentIndex) {... */\n    tag_434:\n        /* \"StonersTown Contract/STW.sol\":42979:43940  unchecked {... */\n      pop\n        /* \"StonersTown Contract/STW.sol\":43974:43981  tokenId */\n      dup3\n        /* \"StonersTown Contract/STW.sol\":43970:43972  to */\n      dup5\n      sub(shl(0xa0, 0x01), 0x01)\n        /* \"StonersTown Contract/STW.sol\":43955:43982  Transfer(from, to, tokenId) */\n      and\n        /* \"StonersTown Contract/STW.sol\":43964:43968  from */\n      dup7\n      sub(shl(0xa0, 0x01), 0x01)\n        /* \"StonersTown Contract/STW.sol\":43955:43982  Transfer(from, to, tokenId) */\n      and\n      0xddf252ad1be2c89b69c2b068fc378daa952ba7f163c4a11628f55a4df523b3ef\n      mload(0x40)\n      mload(0x40)\n      dup1\n      swap2\n      sub\n      swap1\n      log4\n        /* \"StonersTown Contract/STW.sol\":43992:44034  _afterTokenTransfers(from, to, tokenId, 1) */\n    tag_435:\n        /* \"StonersTown Contract/STW.sol\":42074:44041  {... */\n      pop\n      pop\n        /* \"StonersTown Contract/STW.sol\":41974:44041  function _transfer(... */\n      pop\n      pop\n      pop\n      jump\t// out\n        /* \"StonersTown Contract/STW.sol\":12643:12955  function sendValue(address payable recipient, uint256 amount) internal {... */\n    tag_245:\n        /* \"StonersTown Contract/STW.sol\":12757:12763  amount */\n      dup1\n        /* \"StonersTown Contract/STW.sol\":12732:12753  address(this).balance */\n      selfbalance\n        /* \"StonersTown Contract/STW.sol\":12732:12763  address(this).balance >= amount */\n      lt\n      iszero\n        /* \"StonersTown Contract/STW.sol\":12724:12797  require(address(this).balance >= amount, \"Address: insufficient balance\") */\n      tag_438\n      jumpi\n      mload(0x40)\n      shl(0xe5, 0x461bcd)\n      dup2\n      mstore\n        /* \"#utility.yul\":7916:7918   */\n      0x20\n        /* \"StonersTown Contract/STW.sol\":12724:12797  require(address(this).balance >= amount, \"Address: insufficient balance\") */\n      0x04\n      dup3\n      add\n        /* \"#utility.yul\":7898:7919   */\n      mstore\n        /* \"#utility.yul\":7955:7957   */\n      0x1d\n        /* \"#utility.yul\":7935:7953   */\n      0x24\n      dup3\n      add\n        /* \"#utility.yul\":7928:7958   */\n      mstore\n        /* \"#utility.yul\":7994:8025   */\n      0x416464726573733a20696e73756666696369656e742062616c616e6365000000\n        /* \"#utility.yul\":7974:7992   */\n      0x44\n      dup3\n      add\n        /* \"#utility.yul\":7967:8026   */\n      mstore\n        /* \"#utility.yul\":8043:8061   */\n      0x64\n      add\n        /* \"StonersTown Contract/STW.sol\":12724:12797  require(address(this).balance >= amount, \"Address: insufficient balance\") */\n      tag_237\n        /* \"#utility.yul\":7714:8067   */\n      jump\n        /* \"StonersTown Contract/STW.sol\":12724:12797  require(address(this).balance >= amount, \"Address: insufficient balance\") */\n    tag_438:\n        /* \"StonersTown Contract/STW.sol\":12809:12821  bool success */\n      0x00\n        /* \"StonersTown Contract/STW.sol\":12827:12836  recipient */\n      dup3\n      sub(shl(0xa0, 0x01), 0x01)\n        /* \"StonersTown Contract/STW.sol\":12827:12841  recipient.call */\n      and\n        /* \"StonersTown Contract/STW.sol\":12849:12855  amount */\n      dup3\n        /* \"StonersTown Contract/STW.sol\":12827:12860  recipient.call{value: amount}(\"\") */\n      mload(0x40)\n      0x00\n      mload(0x40)\n      dup1\n      dup4\n      sub\n      dup2\n      dup6\n      dup8\n      gas\n      call\n      swap3\n      pop\n      pop\n      pop\n      returndatasize\n      dup1\n      0x00\n      dup2\n      eq\n      tag_445\n      jumpi\n      mload(0x40)\n      swap2\n      pop\n      and(add(returndatasize, 0x3f), not(0x1f))\n      dup3\n      add\n      0x40\n      mstore\n      returndatasize\n      dup3\n      mstore\n      returndatasize\n      0x00\n      0x20\n      dup5\n      add\n      returndatacopy\n      jump(tag_444)\n    tag_445:\n      0x60\n      swap2\n      pop\n    tag_444:\n      pop\n        /* \"StonersTown Contract/STW.sol\":12808:12860  (bool success, ) = recipient.call{value: amount}(\"\") */\n      pop\n      swap1\n      pop\n        /* \"StonersTown Contract/STW.sol\":12878:12885  success */\n      dup1\n        /* \"StonersTown Contract/STW.sol\":12870:12948  require(success, \"Address: unable to send value, recipient may have reverted\") */\n      tag_225\n      jumpi\n      mload(0x40)\n      shl(0xe5, 0x461bcd)\n      dup2\n      mstore\n        /* \"#utility.yul\":7489:7491   */\n      0x20\n        /* \"StonersTown Contract/STW.sol\":12870:12948  require(success, \"Address: unable to send value, recipient may have reverted\") */\n      0x04\n      dup3\n      add\n        /* \"#utility.yul\":7471:7492   */\n      mstore\n        /* \"#utility.yul\":7528:7530   */\n      0x3a\n        /* \"#utility.yul\":7508:7526   */\n      0x24\n      dup3\n      add\n        /* \"#utility.yul\":7501:7531   */\n      mstore\n        /* \"#utility.yul\":7567:7601   */\n      0x416464726573733a20756e61626c6520746f2073656e642076616c75652c2072\n        /* \"#utility.yul\":7547:7565   */\n      0x44\n      dup3\n      add\n        /* \"#utility.yul\":7540:7602   */\n      mstore\n        /* \"#utility.yul\":7638:7666   */\n      0x6563697069656e74206d61792068617665207265766572746564000000000000\n        /* \"#utility.yul\":7618:7636   */\n      0x64\n      dup3\n      add\n        /* \"#utility.yul\":7611:7667   */\n      mstore\n        /* \"#utility.yul\":7684:7703   */\n      0x84\n      add\n        /* \"StonersTown Contract/STW.sol\":12870:12948  require(success, \"Address: unable to send value, recipient may have reverted\") */\n      tag_237\n        /* \"#utility.yul\":7287:7709   */\n      jump\n        /* \"StonersTown Contract/STW.sol\":39142:39244  function _safeMint(address to, uint256 quantity) internal {... */\n    tag_263:\n        /* \"StonersTown Contract/STW.sol\":39210:39237  _safeMint(to, quantity, '') */\n      tag_275\n        /* \"StonersTown Contract/STW.sol\":39220:39222  to */\n      dup3\n        /* \"StonersTown Contract/STW.sol\":39224:39232  quantity */\n      dup3\n        /* \"StonersTown Contract/STW.sol\":39210:39237  _safeMint(to, quantity, '') */\n      mload(0x40)\n      dup1\n      0x20\n      add\n      0x40\n      mstore\n      dup1\n      0x00\n      dup2\n      mstore\n      pop\n        /* \"StonersTown Contract/STW.sol\":39210:39219  _safeMint */\n      tag_451\n        /* \"StonersTown Contract/STW.sol\":39210:39237  _safeMint(to, quantity, '') */\n      jump\t// in\n        /* \"StonersTown Contract/STW.sol\":34252:35335  function ownershipOf(uint256 tokenId) internal view returns (TokenOwnership memory) {... */\n    tag_285:\n      0x40\n      dup1\n      mload\n      0x60\n      dup2\n      add\n      dup3\n      mstore\n      0x00\n      dup1\n      dup3\n      mstore\n      0x20\n      dup3\n      add\n      dup2\n      swap1\n      mstore\n      swap2\n      dup2\n      add\n      swap2\n      swap1\n      swap2\n      mstore\n        /* \"StonersTown Contract/STW.sol\":34361:34368  tokenId */\n      dup2\n      dup1\n        /* \"StonersTown Contract/STW.sol\":31365:31366  1 */\n      0x01\n        /* \"StonersTown Contract/STW.sol\":34407:34430  _startTokenId() <= curr */\n      gt\n      iszero\n        /* \"StonersTown Contract/STW.sol\":34407:34454  _startTokenId() <= curr && curr < _currentIndex */\n      dup1\n      iszero\n      tag_456\n      jumpi\n      pop\n        /* \"StonersTown Contract/STW.sol\":34441:34454  _currentIndex */\n      sload(0x00)\n        /* \"StonersTown Contract/STW.sol\":34434:34438  curr */\n      dup2\n        /* \"StonersTown Contract/STW.sol\":34434:34454  curr < _currentIndex */\n      lt\n        /* \"StonersTown Contract/STW.sol\":34407:34454  _startTokenId() <= curr && curr < _currentIndex */\n    tag_456:\n        /* \"StonersTown Contract/STW.sol\":34403:35271  if (_startTokenId() <= curr && curr < _currentIndex) {... */\n      iszero\n      tag_457\n      jumpi\n        /* \"StonersTown Contract/STW.sol\":34474:34505  TokenOwnership memory ownership */\n      0x00\n        /* \"StonersTown Contract/STW.sol\":34508:34525  _ownerships[curr] */\n      dup2\n      dup2\n      mstore\n        /* \"StonersTown Contract/STW.sol\":34508:34519  _ownerships */\n      0x04\n        /* \"StonersTown Contract/STW.sol\":34508:34525  _ownerships[curr] */\n      0x20\n      swap1\n      dup2\n      mstore\n      0x40\n      swap2\n      dup3\n      swap1\n      keccak256\n        /* \"StonersTown Contract/STW.sol\":34474:34525  TokenOwnership memory ownership = _ownerships[curr] */\n      dup3\n      mload\n      0x60\n      dup2\n      add\n      dup5\n      mstore\n      swap1\n      sload\n      sub(shl(0xa0, 0x01), 0x01)\n      dup2\n      and\n      dup3\n      mstore\n      shl(0xa0, 0x01)\n      dup2\n      div\n      0xffffffffffffffff\n      and\n      swap3\n      dup3\n      add\n      swap3\n      swap1\n      swap3\n      mstore\n      shl(0xe0, 0x01)\n      swap1\n      swap2\n      div\n      0xff\n      and\n      iszero\n      iszero\n      swap2\n      dup2\n      add\n      dup3\n      swap1\n      mstore\n      swap1\n        /* \"StonersTown Contract/STW.sol\":34543:35257  if (!ownership.burned) {... */\n      tag_461\n      jumpi\n        /* \"StonersTown Contract/STW.sol\":34592:34606  ownership.addr */\n      dup1\n      mload\n      sub(shl(0xa0, 0x01), 0x01)\n        /* \"StonersTown Contract/STW.sol\":34592:34620  ownership.addr != address(0) */\n      and\n      iszero\n        /* \"StonersTown Contract/STW.sol\":34588:34687  if (ownership.addr != address(0)) {... */\n      tag_459\n      jumpi\n        /* \"StonersTown Contract/STW.sol\":34655:34664  ownership */\n      swap4\n        /* \"StonersTown Contract/STW.sol\":34252:35335  function ownershipOf(uint256 tokenId) internal view returns (TokenOwnership memory) {... */\n      swap3\n      pop\n      pop\n      pop\n      jump\t// out\n        /* \"StonersTown Contract/STW.sol\":34588:34687  if (ownership.addr != address(0)) {... */\n    tag_459:\n      pop\n      not(0x00)\n        /* \"StonersTown Contract/STW.sol\":35023:35029  curr-- */\n      add\n        /* \"StonersTown Contract/STW.sol\":35067:35084  _ownerships[curr] */\n      0x00\n      dup2\n      dup2\n      mstore\n        /* \"StonersTown Contract/STW.sol\":35067:35078  _ownerships */\n      0x04\n        /* \"StonersTown Contract/STW.sol\":35067:35084  _ownerships[curr] */\n      0x20\n      swap1\n      dup2\n      mstore\n      0x40\n      swap2\n      dup3\n      swap1\n      keccak256\n        /* \"StonersTown Contract/STW.sol\":35055:35084  ownership = _ownerships[curr] */\n      dup3\n      mload\n      0x60\n      dup2\n      add\n      dup5\n      mstore\n      swap1\n      sload\n      sub(shl(0xa0, 0x01), 0x01)\n      dup2\n      and\n      dup1\n      dup4\n      mstore\n      shl(0xa0, 0x01)\n      dup3\n      div\n      0xffffffffffffffff\n      and\n      swap4\n      dup4\n      add\n      swap4\n      swap1\n      swap4\n      mstore\n      shl(0xe0, 0x01)\n      swap1\n      div\n      0xff\n      and\n      iszero\n      iszero\n      swap3\n      dup2\n      add\n      swap3\n      swap1\n      swap3\n      mstore\n        /* \"StonersTown Contract/STW.sol\":35114:35142  ownership.addr != address(0) */\n      iszero\n        /* \"StonersTown Contract/STW.sol\":35110:35217  if (ownership.addr != address(0)) {... */\n      tag_462\n      jumpi\n        /* \"StonersTown Contract/STW.sol\":35181:35190  ownership */\n      swap4\n        /* \"StonersTown Contract/STW.sol\":34252:35335  function ownershipOf(uint256 tokenId) internal view returns (TokenOwnership memory) {... */\n      swap3\n      pop\n      pop\n      pop\n      jump\t// out\n        /* \"StonersTown Contract/STW.sol\":35110:35217  if (ownership.addr != address(0)) {... */\n    tag_462:\n        /* \"StonersTown Contract/STW.sol\":34984:35239  while (true) {... */\n      jump(tag_459)\n    tag_461:\n        /* \"StonersTown Contract/STW.sol\":34456:35271  {... */\n      pop\n        /* \"StonersTown Contract/STW.sol\":34403:35271  if (_startTokenId() <= curr && curr < _currentIndex) {... */\n    tag_457:\n        /* \"StonersTown Contract/STW.sol\":35297:35328  OwnerQueryForNonexistentToken() */\n      mload(0x40)\n      shl(0xe1, 0x6f96cda1)\n      dup2\n      mstore\n      0x04\n      add\n      mload(0x40)\n      dup1\n      swap2\n      sub\n      swap1\n      revert\n        /* \"StonersTown Contract/STW.sol\":10019:10206  function _transferOwnership(address newOwner) internal virtual {... */\n    tag_295:\n        /* \"StonersTown Contract/STW.sol\":10111:10117  _owner */\n      0x08\n      dup1\n      sload\n      sub(shl(0xa0, 0x01), 0x01)\n        /* \"StonersTown Contract/STW.sol\":10127:10144  _owner = newOwner */\n      dup4\n      dup2\n      and\n      not(sub(shl(0xa0, 0x01), 0x01))\n      dup4\n      and\n      dup2\n      or\n      swap1\n      swap4\n      sstore\n        /* \"StonersTown Contract/STW.sol\":10159:10199  OwnershipTransferred(oldOwner, newOwner) */\n      mload(0x40)\n        /* \"StonersTown Contract/STW.sol\":10111:10117  _owner */\n      swap2\n      and\n      swap2\n        /* \"StonersTown Contract/STW.sol\":10127:10144  _owner = newOwner */\n      swap1\n        /* \"StonersTown Contract/STW.sol\":10111:10117  _owner */\n      dup3\n      swap1\n        /* \"StonersTown Contract/STW.sol\":10159:10199  OwnershipTransferred(oldOwner, newOwner) */\n      0x8be0079c531659141344cd1fd0a4f28419497f9722a3daafe3b4186f6b6457e0\n      swap1\n        /* \"StonersTown Contract/STW.sol\":10092:10108  address oldOwner */\n      0x00\n      swap1\n        /* \"StonersTown Contract/STW.sol\":10159:10199  OwnershipTransferred(oldOwner, newOwner) */\n      log3\n        /* \"StonersTown Contract/STW.sol\":10082:10206  {... */\n      pop\n        /* \"StonersTown Contract/STW.sol\":10019:10206  function _transferOwnership(address newOwner) internal virtual {... */\n      pop\n      jump\t// out\n        /* \"StonersTown Contract/STW.sol\":50320:50438  function updateFreeMintCount(address minter, uint256 count) private {... */\n    tag_342:\n      sub(shl(0xa0, 0x01), 0x01)\n        /* \"StonersTown Contract/STW.sol\":50398:50422  freeMintCountMap[minter] */\n      dup3\n      and\n      0x00\n      swap1\n      dup2\n      mstore\n        /* \"StonersTown Contract/STW.sol\":50398:50414  freeMintCountMap */\n      0x12\n        /* \"StonersTown Contract/STW.sol\":50398:50422  freeMintCountMap[minter] */\n      0x20\n      mstore\n      0x40\n      dup2\n      keccak256\n        /* \"StonersTown Contract/STW.sol\":50398:50431  freeMintCountMap[minter] += count */\n      dup1\n      sload\n        /* \"StonersTown Contract/STW.sol\":50426:50431  count */\n      dup4\n      swap3\n        /* \"StonersTown Contract/STW.sol\":50398:50422  freeMintCountMap[minter] */\n      swap1\n        /* \"StonersTown Contract/STW.sol\":50398:50431  freeMintCountMap[minter] += count */\n      tag_465\n      swap1\n        /* \"StonersTown Contract/STW.sol\":50426:50431  count */\n      dup5\n      swap1\n        /* \"StonersTown Contract/STW.sol\":50398:50431  freeMintCountMap[minter] += count */\n      tag_252\n      jump\t// in\n    tag_465:\n      swap1\n      swap2\n      sstore\n      pop\n      pop\n      pop\n      pop\n        /* \"StonersTown Contract/STW.sol\":50320:50438  function updateFreeMintCount(address minter, uint256 count) private {... */\n      jump\t// out\n        /* \"StonersTown Contract/STW.sol\":47038:47688  function _checkContractOnERC721Received(... */\n    tag_369:\n        /* \"StonersTown Contract/STW.sol\":47216:47288  IERC721Receiver(to).onERC721Received(_msgSender(), from, tokenId, _data) */\n      mload(0x40)\n      shl(0xe1, 0x0a85bd01)\n      dup2\n      mstore\n        /* \"StonersTown Contract/STW.sol\":47196:47200  bool */\n      0x00\n      swap1\n      sub(shl(0xa0, 0x01), 0x01)\n        /* \"StonersTown Contract/STW.sol\":47216:47252  IERC721Receiver(to).onERC721Received */\n      dup6\n      and\n      swap1\n      0x150b7a02\n      swap1\n        /* \"StonersTown Contract/STW.sol\":47216:47288  IERC721Receiver(to).onERC721Received(_msgSender(), from, tokenId, _data) */\n      tag_469\n      swap1\n        /* \"StonersTown Contract/STW.sol\":7632:7642  msg.sender */\n      caller\n      swap1\n        /* \"StonersTown Contract/STW.sol\":47267:47271  from */\n      dup10\n      swap1\n        /* \"StonersTown Contract/STW.sol\":47273:47280  tokenId */\n      dup9\n      swap1\n        /* \"StonersTown Contract/STW.sol\":47282:47287  _data */\n      dup9\n      swap1\n        /* \"StonersTown Contract/STW.sol\":47216:47288  IERC721Receiver(to).onERC721Received(_msgSender(), from, tokenId, _data) */\n      0x04\n      add\n      tag_470\n      jump\t// in\n    tag_469:\n      0x20\n      mload(0x40)\n      dup1\n      dup4\n      sub\n      dup2\n      0x00\n      dup8\n      dup1\n      extcodesize\n      iszero\n      dup1\n      iszero\n      tag_471\n      jumpi\n      0x00\n      dup1\n      revert\n    tag_471:\n      pop\n      gas\n      call\n      swap3\n      pop\n      pop\n      pop\n      dup1\n      iszero\n      tag_472\n      jumpi\n      pop\n      0x40\n      dup1\n      mload\n      0x1f\n      returndatasize\n      swap1\n      dup2\n      add\n      not(0x1f)\n      and\n      dup3\n      add\n      swap1\n      swap3\n      mstore\n      tag_473\n      swap2\n      dup2\n      add\n      swap1\n      tag_474\n      jump\t// in\n    tag_473:\n      0x01\n    tag_472:\n        /* \"StonersTown Contract/STW.sol\":47212:47682  try IERC721Receiver(to).onERC721Received(_msgSender(), from, tokenId, _data) returns (bytes4 retval) {... */\n      tag_475\n      jumpi\n      returndatasize\n      dup1\n      dup1\n      iszero\n      tag_480\n      jumpi\n      mload(0x40)\n      swap2\n      pop\n      and(add(returndatasize, 0x3f), not(0x1f))\n      dup3\n      add\n      0x40\n      mstore\n      returndatasize\n      dup3\n      mstore\n      returndatasize\n      0x00\n      0x20\n      dup5\n      add\n      returndatacopy\n      jump(tag_479)\n    tag_480:\n      0x60\n      swap2\n      pop\n    tag_479:\n      pop\n        /* \"StonersTown Contract/STW.sol\":47447:47460  reason.length */\n      dup1\n      mload\n        /* \"StonersTown Contract/STW.sol\":47443:47672  if (reason.length == 0) {... */\n      tag_481\n      jumpi\n        /* \"StonersTown Contract/STW.sol\":47492:47532  TransferToNonERC721ReceiverImplementer() */\n      mload(0x40)\n      shl(0xe1, 0x68d2bf6b)\n      dup2\n      mstore\n      0x04\n      add\n      mload(0x40)\n      dup1\n      swap2\n      sub\n      swap1\n      revert\n        /* \"StonersTown Contract/STW.sol\":47443:47672  if (reason.length == 0) {... */\n    tag_481:\n        /* \"StonersTown Contract/STW.sol\":47632:47638  reason */\n      dup1\n        /* \"StonersTown Contract/STW.sol\":47626:47639  mload(reason) */\n      mload\n        /* \"StonersTown Contract/STW.sol\":47617:47623  reason */\n      dup2\n        /* \"StonersTown Contract/STW.sol\":47613:47615  32 */\n      0x20\n        /* \"StonersTown Contract/STW.sol\":47609:47624  add(32, reason) */\n      add\n        /* \"StonersTown Contract/STW.sol\":47602:47640  revert(add(32, reason), mload(reason)) */\n      revert\n        /* \"StonersTown Contract/STW.sol\":47212:47682  try IERC721Receiver(to).onERC721Received(_msgSender(), from, tokenId, _data) returns (bytes4 retval) {... */\n    tag_475:\n      not(sub(shl(0xe0, 0x01), 0x01))\n        /* \"StonersTown Contract/STW.sol\":47334:47389  retval == IERC721Receiver(to).onERC721Received.selector */\n      and\n      shl(0xe1, 0x0a85bd01)\n      eq\n      swap1\n      pop\n        /* \"StonersTown Contract/STW.sol\":47212:47682  try IERC721Receiver(to).onERC721Received(_msgSender(), from, tokenId, _data) returns (bytes4 retval) {... */\n    tag_483:\n        /* \"StonersTown Contract/STW.sol\":47038:47688  function _checkContractOnERC721Received(... */\n      swap5\n      swap4\n      pop\n      pop\n      pop\n      pop\n      jump\t// out\n        /* \"StonersTown Contract/STW.sol\":50465:50573  function _baseURI() internal view virtual override returns (string memory) {... */\n    tag_386:\n        /* \"StonersTown Contract/STW.sol\":50525:50538  string memory */\n      0x60\n        /* \"StonersTown Contract/STW.sol\":50557:50566  weedStore */\n      0x0c\n        /* \"StonersTown Contract/STW.sol\":50550:50566  return weedStore */\n      dup1\n      sload\n      tag_206\n      swap1\n      tag_207\n      jump\t// in\n        /* \"StonersTown Contract/STW.sol\":5187:5890  function toString(uint256 value) internal pure returns (string memory) {... */\n    tag_390:\n        /* \"StonersTown Contract/STW.sol\":5243:5256  string memory */\n      0x60\n        /* \"StonersTown Contract/STW.sol\":5460:5470  value == 0 */\n      dup2\n        /* \"StonersTown Contract/STW.sol\":5456:5507  if (value == 0) {... */\n      tag_491\n      jumpi\n      pop\n      pop\n        /* \"StonersTown Contract/STW.sol\":5486:5496  return \"0\" */\n      0x40\n      dup1\n      mload\n      dup1\n      dup3\n      add\n      swap1\n      swap2\n      mstore\n      0x01\n      dup2\n      mstore\n      shl(0xfc, 0x03)\n      0x20\n      dup3\n      add\n      mstore\n      swap1\n        /* \"StonersTown Contract/STW.sol\":5187:5890  function toString(uint256 value) internal pure returns (string memory) {... */\n      jump\t// out\n        /* \"StonersTown Contract/STW.sol\":5456:5507  if (value == 0) {... */\n    tag_491:\n        /* \"StonersTown Contract/STW.sol\":5531:5536  value */\n      dup2\n        /* \"StonersTown Contract/STW.sol\":5516:5528  uint256 temp */\n      0x00\n        /* \"StonersTown Contract/STW.sol\":5570:5645  while (temp != 0) {... */\n    tag_492:\n        /* \"StonersTown Contract/STW.sol\":5577:5586  temp != 0 */\n      dup2\n      iszero\n        /* \"StonersTown Contract/STW.sol\":5570:5645  while (temp != 0) {... */\n      tag_493\n      jumpi\n        /* \"StonersTown Contract/STW.sol\":5602:5610  digits++ */\n      dup1\n      tag_494\n      dup2\n      tag_495\n      jump\t// in\n    tag_494:\n      swap2\n      pop\n        /* \"StonersTown Contract/STW.sol\":5624:5634  temp /= 10 */\n      tag_496\n      swap1\n      pop\n        /* \"StonersTown Contract/STW.sol\":5632:5634  10 */\n      0x0a\n        /* \"StonersTown Contract/STW.sol\":5624:5634  temp /= 10 */\n      dup4\n      tag_497\n      jump\t// in\n    tag_496:\n      swap2\n      pop\n        /* \"StonersTown Contract/STW.sol\":5570:5645  while (temp != 0) {... */\n      jump(tag_492)\n    tag_493:\n        /* \"StonersTown Contract/STW.sol\":5654:5673  bytes memory buffer */\n      0x00\n        /* \"StonersTown Contract/STW.sol\":5686:5692  digits */\n      dup2\n        /* \"StonersTown Contract/STW.sol\":5676:5693  new bytes(digits) */\n      0xffffffffffffffff\n      dup2\n      gt\n      iszero\n      tag_499\n      jumpi\n      tag_499\n      tag_500\n      jump\t// in\n    tag_499:\n      mload(0x40)\n      swap1\n      dup1\n      dup3\n      mstore\n      dup1\n      0x1f\n      add\n      not(0x1f)\n      and\n      0x20\n      add\n      dup3\n      add\n      0x40\n      mstore\n      dup1\n      iszero\n      tag_501\n      jumpi\n      0x20\n      dup3\n      add\n      dup2\n      dup1\n      calldatasize\n      dup4\n      calldatacopy\n      add\n      swap1\n      pop\n    tag_501:\n      pop\n        /* \"StonersTown Contract/STW.sol\":5654:5693  bytes memory buffer = new bytes(digits) */\n      swap1\n      pop\n        /* \"StonersTown Contract/STW.sol\":5703:5853  while (value != 0) {... */\n    tag_502:\n        /* \"StonersTown Contract/STW.sol\":5710:5720  value != 0 */\n      dup5\n      iszero\n        /* \"StonersTown Contract/STW.sol\":5703:5853  while (value != 0) {... */\n      tag_483\n      jumpi\n        /* \"StonersTown Contract/STW.sol\":5736:5747  digits -= 1 */\n      tag_504\n        /* \"StonersTown Contract/STW.sol\":5746:5747  1 */\n      0x01\n        /* \"StonersTown Contract/STW.sol\":5736:5747  digits -= 1 */\n      dup4\n      tag_336\n      jump\t// in\n    tag_504:\n      swap2\n      pop\n        /* \"StonersTown Contract/STW.sol\":5804:5814  value % 10 */\n      tag_505\n        /* \"StonersTown Contract/STW.sol\":5812:5814  10 */\n      0x0a\n        /* \"StonersTown Contract/STW.sol\":5804:5809  value */\n      dup7\n        /* \"StonersTown Contract/STW.sol\":5804:5814  value % 10 */\n      tag_506\n      jump\t// in\n    tag_505:\n        /* \"StonersTown Contract/STW.sol\":5791:5815  48 + uint256(value % 10) */\n      tag_507\n      swap1\n        /* \"StonersTown Contract/STW.sol\":5791:5793  48 */\n      0x30\n        /* \"StonersTown Contract/STW.sol\":5791:5815  48 + uint256(value % 10) */\n      tag_252\n      jump\t// in\n    tag_507:\n        /* \"StonersTown Contract/STW.sol\":5778:5817  bytes1(uint8(48 + uint256(value % 10))) */\n      0xf8\n      shl\n        /* \"StonersTown Contract/STW.sol\":5761:5767  buffer */\n      dup2\n        /* \"StonersTown Contract/STW.sol\":5768:5774  digits */\n      dup4\n        /* \"StonersTown Contract/STW.sol\":5761:5775  buffer[digits] */\n      dup2\n      mload\n      dup2\n      lt\n      tag_509\n      jumpi\n      tag_509\n      tag_510\n      jump\t// in\n    tag_509:\n      0x20\n      add\n      add\n        /* \"StonersTown Contract/STW.sol\":5761:5817  buffer[digits] = bytes1(uint8(48 + uint256(value % 10))) */\n      swap1\n      not(sub(shl(0xf8, 0x01), 0x01))\n      and\n      swap1\n      dup2\n      0x00\n      byte\n      swap1\n      mstore8\n      pop\n        /* \"StonersTown Contract/STW.sol\":5831:5842  value /= 10 */\n      tag_511\n        /* \"StonersTown Contract/STW.sol\":5840:5842  10 */\n      0x0a\n        /* \"StonersTown Contract/STW.sol\":5831:5842  value /= 10 */\n      dup7\n      tag_497\n      jump\t// in\n    tag_511:\n      swap5\n      pop\n        /* \"StonersTown Contract/STW.sol\":5703:5853  while (value != 0) {... */\n      jump(tag_502)\n        /* \"StonersTown Contract/STW.sol\":39595:39752  function _safeMint(... */\n    tag_451:\n        /* \"StonersTown Contract/STW.sol\":39713:39745  _mint(to, quantity, _data, true) */\n      tag_225\n        /* \"StonersTown Contract/STW.sol\":39719:39721  to */\n      dup4\n        /* \"StonersTown Contract/STW.sol\":39723:39731  quantity */\n      dup4\n        /* \"StonersTown Contract/STW.sol\":39733:39738  _data */\n      dup4\n        /* \"StonersTown Contract/STW.sol\":39740:39744  true */\n      0x01\n        /* \"StonersTown Contract/STW.sol\":40132:40152  uint256 startTokenId */\n      0x00\n        /* \"StonersTown Contract/STW.sol\":40155:40168  _currentIndex */\n      sload\n      sub(shl(0xa0, 0x01), 0x01)\n        /* \"StonersTown Contract/STW.sol\":40182:40198  to == address(0) */\n      dup6\n      and\n        /* \"StonersTown Contract/STW.sol\":40178:40226  if (to == address(0)) revert MintToZeroAddress() */\n      tag_518\n      jumpi\n        /* \"StonersTown Contract/STW.sol\":40207:40226  MintToZeroAddress() */\n      mload(0x40)\n      shl(0xe8, 0x2e0763)\n      dup2\n      mstore\n      0x04\n      add\n      mload(0x40)\n      dup1\n      swap2\n      sub\n      swap1\n      revert\n        /* \"StonersTown Contract/STW.sol\":40178:40226  if (to == address(0)) revert MintToZeroAddress() */\n    tag_518:\n        /* \"StonersTown Contract/STW.sol\":40240:40253  quantity == 0 */\n      dup4\n        /* \"StonersTown Contract/STW.sol\":40236:40280  if (quantity == 0) revert MintZeroQuantity() */\n      tag_519\n      jumpi\n        /* \"StonersTown Contract/STW.sol\":40262:40280  MintZeroQuantity() */\n      mload(0x40)\n      shl(0xe0, 0xb562e8dd)\n      dup2\n      mstore\n      0x04\n      add\n      mload(0x40)\n      dup1\n      swap2\n      sub\n      swap1\n      revert\n        /* \"StonersTown Contract/STW.sol\":40236:40280  if (quantity == 0) revert MintZeroQuantity() */\n    tag_519:\n      sub(shl(0xa0, 0x01), 0x01)\n        /* \"StonersTown Contract/STW.sol\":40623:40639  _addressData[to] */\n      dup6\n      and\n      0x00\n      dup2\n      dup2\n      mstore\n        /* \"StonersTown Contract/STW.sol\":40623:40635  _addressData */\n      0x05\n        /* \"StonersTown Contract/STW.sol\":40623:40639  _addressData[to] */\n      0x20\n      swap1\n      dup2\n      mstore\n      0x40\n      dup1\n      dup4\n      keccak256\n        /* \"StonersTown Contract/STW.sol\":40623:40667  _addressData[to].balance += uint64(quantity) */\n      dup1\n      sload\n      not(0xffffffffffffffffffffffffffffffff)\n        /* \"StonersTown Contract/STW.sol\":40681:40730  _addressData[to].numberMinted += uint64(quantity) */\n      dup2\n      and\n        /* \"StonersTown Contract/STW.sol\":40623:40667  _addressData[to].balance += uint64(quantity) */\n      0xffffffffffffffff\n      dup1\n      dup4\n      and\n      dup13\n      add\n      dup2\n      and\n        /* \"StonersTown Contract/STW.sol\":40681:40730  _addressData[to].numberMinted += uint64(quantity) */\n      swap2\n      dup3\n      or\n      0x010000000000000000\n      not(0xffffffffffffffff)\n        /* \"StonersTown Contract/STW.sol\":40623:40667  _addressData[to].balance += uint64(quantity) */\n      swap1\n      swap5\n      and\n      swap1\n      swap3\n      or\n        /* \"StonersTown Contract/STW.sol\":40681:40730  _addressData[to].numberMinted += uint64(quantity) */\n      dup4\n      swap1\n      div\n      dup2\n      and\n      dup13\n      add\n      dup2\n      and\n      swap1\n      swap3\n      mul\n      or\n      swap1\n      swap2\n      sstore\n        /* \"StonersTown Contract/STW.sol\":40745:40770  _ownerships[startTokenId] */\n      dup6\n      dup5\n      mstore\n        /* \"StonersTown Contract/STW.sol\":40745:40756  _ownerships */\n      0x04\n        /* \"StonersTown Contract/STW.sol\":40745:40770  _ownerships[startTokenId] */\n      swap1\n      swap3\n      mstore\n      swap1\n      swap2\n      keccak256\n        /* \"StonersTown Contract/STW.sol\":40745:40780  _ownerships[startTokenId].addr = to */\n      dup1\n      sload\n      not(sub(shl(0xe0, 0x01), 0x01))\n        /* \"StonersTown Contract/STW.sol\":40794:40860  _ownerships[startTokenId].startTimestamp = uint64(block.timestamp) */\n      and\n      swap1\n      swap3\n      or\n      shl(0xa0, 0x01)\n        /* \"StonersTown Contract/STW.sol\":40844:40859  block.timestamp */\n      timestamp\n        /* \"StonersTown Contract/STW.sol\":40794:40860  _ownerships[startTokenId].startTimestamp = uint64(block.timestamp) */\n      swap1\n      swap3\n      and\n      swap2\n      swap1\n      swap2\n      mul\n      or\n      swap1\n      sstore\n        /* \"StonersTown Contract/STW.sol\":40745:40770  _ownerships[startTokenId] */\n      dup1\n        /* \"StonersTown Contract/STW.sol\":40938:40961  updatedIndex + quantity */\n      dup1\n      dup6\n      add\n        /* \"StonersTown Contract/STW.sol\":40980:40984  safe */\n      dup4\n        /* \"StonersTown Contract/STW.sol\":40980:41003  safe && to.isContract() */\n      dup1\n      iszero\n      tag_522\n      jumpi\n      pop\n      sub(shl(0xa0, 0x01), 0x01)\n        /* \"StonersTown Contract/STW.sol\":40988:41001  to.isContract */\n      dup8\n      and\n        /* \"StonersTown Contract/STW.sol\":11696:11715  account.code.length */\n      extcodesize\n        /* \"StonersTown Contract/STW.sol\":11696:11719  account.code.length > 0 */\n      iszero\n      iszero\n        /* \"StonersTown Contract/STW.sol\":40988:41003  to.isContract() */\n    tag_522:\n        /* \"StonersTown Contract/STW.sol\":40976:41604  if (safe && to.isContract()) {... */\n      iszero\n      tag_523\n      jumpi\n        /* \"StonersTown Contract/STW.sol\":41023:41332  do {... */\n    tag_524:\n        /* \"StonersTown Contract/STW.sol\":41053:41091  Transfer(address(0), to, updatedIndex) */\n      mload(0x40)\n        /* \"StonersTown Contract/STW.sol\":41078:41090  updatedIndex */\n      dup3\n      swap1\n      sub(shl(0xa0, 0x01), 0x01)\n        /* \"StonersTown Contract/STW.sol\":41053:41091  Transfer(address(0), to, updatedIndex) */\n      dup10\n      and\n      swap1\n        /* \"StonersTown Contract/STW.sol\":41070:41071  0 */\n      0x00\n      swap1\n        /* \"StonersTown Contract/STW.sol\":41053:41091  Transfer(address(0), to, updatedIndex) */\n      0xddf252ad1be2c89b69c2b068fc378daa952ba7f163c4a11628f55a4df523b3ef\n      swap1\n        /* \"StonersTown Contract/STW.sol\":41070:41071  0 */\n      dup3\n      swap1\n        /* \"StonersTown Contract/STW.sol\":41053:41091  Transfer(address(0), to, updatedIndex) */\n      log4\n        /* \"StonersTown Contract/STW.sol\":41118:41187  _checkContractOnERC721Received(address(0), to, updatedIndex++, _data) */\n      tag_527\n        /* \"StonersTown Contract/STW.sol\":41157:41158  0 */\n      0x00\n        /* \"StonersTown Contract/STW.sol\":41161:41163  to */\n      dup9\n        /* \"StonersTown Contract/STW.sol\":41165:41179  updatedIndex++ */\n      dup5\n      dup1\n      0x01\n      add\n      swap6\n      pop\n        /* \"StonersTown Contract/STW.sol\":41181:41186  _data */\n      dup9\n        /* \"StonersTown Contract/STW.sol\":41118:41148  _checkContractOnERC721Received */\n      tag_369\n        /* \"StonersTown Contract/STW.sol\":41118:41187  _checkContractOnERC721Received(address(0), to, updatedIndex++, _data) */\n      jump\t// in\n    tag_527:\n        /* \"StonersTown Contract/STW.sol\":41113:41285  if (!_checkContractOnERC721Received(address(0), to, updatedIndex++, _data)) {... */\n      tag_528\n      jumpi\n        /* \"StonersTown Contract/STW.sol\":41222:41262  TransferToNonERC721ReceiverImplementer() */\n      mload(0x40)\n      shl(0xe1, 0x68d2bf6b)\n      dup2\n      mstore\n      0x04\n      add\n      mload(0x40)\n      dup1\n      swap2\n      sub\n      swap1\n      revert\n        /* \"StonersTown Contract/STW.sol\":41113:41285  if (!_checkContractOnERC721Received(address(0), to, updatedIndex++, _data)) {... */\n    tag_528:\n        /* \"StonersTown Contract/STW.sol\":41327:41330  end */\n      dup1\n        /* \"StonersTown Contract/STW.sol\":41311:41323  updatedIndex */\n      dup3\n        /* \"StonersTown Contract/STW.sol\":41311:41330  updatedIndex != end */\n      eq\n      iszero\n        /* \"StonersTown Contract/STW.sol\":41023:41332  do {... */\n      tag_524\n      jumpi\n        /* \"StonersTown Contract/STW.sol\":41411:41423  startTokenId */\n      dup3\n        /* \"StonersTown Contract/STW.sol\":41394:41407  _currentIndex */\n      sload(0x00)\n        /* \"StonersTown Contract/STW.sol\":41394:41423  _currentIndex != startTokenId */\n      eq\n        /* \"StonersTown Contract/STW.sol\":41390:41433  if (_currentIndex != startTokenId) revert() */\n      tag_529\n      jumpi\n        /* \"StonersTown Contract/STW.sol\":41425:41433  revert() */\n      0x00\n      dup1\n      revert\n        /* \"StonersTown Contract/STW.sol\":41390:41433  if (_currentIndex != startTokenId) revert() */\n    tag_529:\n        /* \"StonersTown Contract/STW.sol\":40976:41604  if (safe && to.isContract()) {... */\n      jump(tag_530)\n    tag_523:\n        /* \"StonersTown Contract/STW.sol\":41472:41590  do {... */\n    tag_531:\n        /* \"StonersTown Contract/STW.sol\":41502:41542  Transfer(address(0), to, updatedIndex++) */\n      mload(0x40)\n        /* \"StonersTown Contract/STW.sol\":41527:41541  updatedIndex++ */\n      0x01\n      dup4\n      add\n      swap3\n      swap1\n      sub(shl(0xa0, 0x01), 0x01)\n        /* \"StonersTown Contract/STW.sol\":41502:41542  Transfer(address(0), to, updatedIndex++) */\n      dup10\n      and\n      swap1\n        /* \"StonersTown Contract/STW.sol\":41519:41520  0 */\n      0x00\n      swap1\n        /* \"StonersTown Contract/STW.sol\":41502:41542  Transfer(address(0), to, updatedIndex++) */\n      0xddf252ad1be2c89b69c2b068fc378daa952ba7f163c4a11628f55a4df523b3ef\n      swap1\n        /* \"StonersTown Contract/STW.sol\":41519:41520  0 */\n      dup3\n      swap1\n        /* \"StonersTown Contract/STW.sol\":41502:41542  Transfer(address(0), to, updatedIndex++) */\n      log4\n        /* \"StonersTown Contract/STW.sol\":41585:41588  end */\n      dup1\n        /* \"StonersTown Contract/STW.sol\":41569:41581  updatedIndex */\n      dup3\n        /* \"StonersTown Contract/STW.sol\":41569:41588  updatedIndex != end */\n      eq\n      iszero\n        /* \"StonersTown Contract/STW.sol\":41472:41590  do {... */\n      tag_531\n      jumpi\n        /* \"StonersTown Contract/STW.sol\":40976:41604  if (safe && to.isContract()) {... */\n    tag_530:\n      pop\n        /* \"StonersTown Contract/STW.sol\":41617:41630  _currentIndex */\n      0x00\n        /* \"StonersTown Contract/STW.sol\":41617:41645  _currentIndex = updatedIndex */\n      sstore\n        /* \"StonersTown Contract/STW.sol\":41665:41725  _afterTokenTransfers(address(0), to, startTokenId, quantity) */\n      tag_435\n        /* \"StonersTown Contract/STW.sol\":38347:38706  function safeTransferFrom(... */\n      jump\n    tag_276:\n      dup3\n      dup1\n      sload\n      tag_535\n      swap1\n      tag_207\n      jump\t// in\n    tag_535:\n      swap1\n      0x00\n      mstore\n      keccak256(0x00, 0x20)\n      swap1\n      0x1f\n      add\n      0x20\n      swap1\n      div\n      dup2\n      add\n      swap3\n      dup3\n      tag_537\n      jumpi\n      0x00\n      dup6\n      sstore\n      jump(tag_540)\n    tag_537:\n      dup3\n      0x1f\n      lt\n      tag_538\n      jumpi\n      dup1\n      mload\n      not(0xff)\n      and\n      dup4\n      dup1\n      add\n      or\n      dup6\n      sstore\n      jump(tag_540)\n    tag_538:\n      dup3\n      dup1\n      add\n      0x01\n      add\n      dup6\n      sstore\n      dup3\n      iszero\n      tag_540\n      jumpi\n      swap2\n      dup3\n      add\n    tag_539:\n      dup3\n      dup2\n      gt\n      iszero\n      tag_540\n      jumpi\n      dup3\n      mload\n      dup3\n      sstore\n      swap2\n      0x20\n      add\n      swap2\n      swap1\n      0x01\n      add\n      swap1\n      jump(tag_539)\n    tag_540:\n      pop\n      tag_541\n      swap3\n      swap2\n      pop\n      tag_542\n      jump\t// in\n    tag_541:\n      pop\n      swap1\n      jump\t// out\n    tag_542:\n    tag_543:\n      dup1\n      dup3\n      gt\n      iszero\n      tag_541\n      jumpi\n      0x00\n      dup2\n      sstore\n      0x01\n      add\n      jump(tag_543)\n        /* \"#utility.yul\":14:645   */\n    tag_546:\n        /* \"#utility.yul\":78:83   */\n      0x00\n        /* \"#utility.yul\":108:126   */\n      0xffffffffffffffff\n        /* \"#utility.yul\":149:151   */\n      dup1\n        /* \"#utility.yul\":141:147   */\n      dup5\n        /* \"#utility.yul\":138:152   */\n      gt\n        /* \"#utility.yul\":135:175   */\n      iszero\n      tag_549\n      jumpi\n        /* \"#utility.yul\":155:173   */\n      tag_549\n      tag_500\n      jump\t// in\n    tag_549:\n        /* \"#utility.yul\":230:232   */\n      0x40\n        /* \"#utility.yul\":224:233   */\n      mload\n        /* \"#utility.yul\":198:200   */\n      0x1f\n        /* \"#utility.yul\":284:299   */\n      dup6\n      add\n      not(0x1f)\n        /* \"#utility.yul\":280:304   */\n      swap1\n      dup2\n      and\n        /* \"#utility.yul\":306:308   */\n      0x3f\n        /* \"#utility.yul\":276:309   */\n      add\n        /* \"#utility.yul\":272:314   */\n      and\n        /* \"#utility.yul\":260:315   */\n      dup2\n      add\n      swap1\n        /* \"#utility.yul\":330:348   */\n      dup3\n      dup3\n      gt\n        /* \"#utility.yul\":350:372   */\n      dup2\n      dup4\n      lt\n        /* \"#utility.yul\":327:373   */\n      or\n        /* \"#utility.yul\":324:396   */\n      iszero\n      tag_551\n      jumpi\n        /* \"#utility.yul\":376:394   */\n      tag_551\n      tag_500\n      jump\t// in\n    tag_551:\n        /* \"#utility.yul\":416:426   */\n      dup2\n        /* \"#utility.yul\":412:414   */\n      0x40\n        /* \"#utility.yul\":405:427   */\n      mstore\n        /* \"#utility.yul\":445:451   */\n      dup1\n        /* \"#utility.yul\":436:451   */\n      swap4\n      pop\n        /* \"#utility.yul\":475:481   */\n      dup6\n        /* \"#utility.yul\":467:473   */\n      dup2\n        /* \"#utility.yul\":460:482   */\n      mstore\n        /* \"#utility.yul\":515:518   */\n      dup7\n        /* \"#utility.yul\":506:512   */\n      dup7\n        /* \"#utility.yul\":501:504   */\n      dup7\n        /* \"#utility.yul\":497:513   */\n      add\n        /* \"#utility.yul\":494:519   */\n      gt\n        /* \"#utility.yul\":491:536   */\n      iszero\n      tag_552\n      jumpi\n        /* \"#utility.yul\":532:533   */\n      0x00\n        /* \"#utility.yul\":529:530   */\n      dup1\n        /* \"#utility.yul\":522:534   */\n      revert\n        /* \"#utility.yul\":491:536   */\n    tag_552:\n        /* \"#utility.yul\":582:588   */\n      dup6\n        /* \"#utility.yul\":577:580   */\n      dup6\n        /* \"#utility.yul\":570:574   */\n      0x20\n        /* \"#utility.yul\":562:568   */\n      dup4\n        /* \"#utility.yul\":558:575   */\n      add\n        /* \"#utility.yul\":545:589   */\n      calldatacopy\n        /* \"#utility.yul\":637:638   */\n      0x00\n        /* \"#utility.yul\":630:634   */\n      0x20\n        /* \"#utility.yul\":621:627   */\n      dup8\n        /* \"#utility.yul\":613:619   */\n      dup4\n        /* \"#utility.yul\":609:628   */\n      add\n        /* \"#utility.yul\":605:635   */\n      add\n        /* \"#utility.yul\":598:639   */\n      mstore\n      pop\n      pop\n      pop\n        /* \"#utility.yul\":14:645   */\n      swap4\n      swap3\n      pop\n      pop\n      pop\n      jump\t// out\n        /* \"#utility.yul\":650:823   */\n    tag_553:\n        /* \"#utility.yul\":718:738   */\n      dup1\n      calldataload\n      sub(shl(0xa0, 0x01), 0x01)\n        /* \"#utility.yul\":767:798   */\n      dup2\n      and\n        /* \"#utility.yul\":757:799   */\n      dup2\n      eq\n        /* \"#utility.yul\":747:817   */\n      tag_555\n      jumpi\n        /* \"#utility.yul\":813:814   */\n      0x00\n        /* \"#utility.yul\":810:811   */\n      dup1\n        /* \"#utility.yul\":803:815   */\n      revert\n        /* \"#utility.yul\":747:817   */\n    tag_555:\n        /* \"#utility.yul\":650:823   */\n      swap2\n      swap1\n      pop\n      jump\t// out\n        /* \"#utility.yul\":828:988   */\n    tag_556:\n        /* \"#utility.yul\":893:913   */\n      dup1\n      calldataload\n        /* \"#utility.yul\":949:962   */\n      dup1\n      iszero\n        /* \"#utility.yul\":942:963   */\n      iszero\n        /* \"#utility.yul\":932:964   */\n      dup2\n      eq\n        /* \"#utility.yul\":922:982   */\n      tag_555\n      jumpi\n        /* \"#utility.yul\":978:979   */\n      0x00\n        /* \"#utility.yul\":975:976   */\n      dup1\n        /* \"#utility.yul\":968:980   */\n      revert\n        /* \"#utility.yul\":993:1179   */\n    tag_114:\n        /* \"#utility.yul\":1052:1058   */\n      0x00\n        /* \"#utility.yul\":1105:1107   */\n      0x20\n        /* \"#utility.yul\":1093:1102   */\n      dup3\n        /* \"#utility.yul\":1084:1091   */\n      dup5\n        /* \"#utility.yul\":1080:1103   */\n      sub\n        /* \"#utility.yul\":1076:1108   */\n      slt\n        /* \"#utility.yul\":1073:1125   */\n      iszero\n      tag_560\n      jumpi\n        /* \"#utility.yul\":1121:1122   */\n      0x00\n        /* \"#utility.yul\":1118:1119   */\n      dup1\n        /* \"#utility.yul\":1111:1123   */\n      revert\n        /* \"#utility.yul\":1073:1125   */\n    tag_560:\n        /* \"#utility.yul\":1144:1173   */\n      tag_388\n        /* \"#utility.yul\":1163:1172   */\n      dup3\n        /* \"#utility.yul\":1144:1173   */\n      tag_553\n      jump\t// in\n        /* \"#utility.yul\":1184:1444   */\n    tag_185:\n        /* \"#utility.yul\":1252:1258   */\n      0x00\n        /* \"#utility.yul\":1260:1266   */\n      dup1\n        /* \"#utility.yul\":1313:1315   */\n      0x40\n        /* \"#utility.yul\":1301:1310   */\n      dup4\n        /* \"#utility.yul\":1292:1299   */\n      dup6\n        /* \"#utility.yul\":1288:1311   */\n      sub\n        /* \"#utility.yul\":1284:1316   */\n      slt\n        /* \"#utility.yul\":1281:1333   */\n      iszero\n      tag_563\n      jumpi\n        /* \"#utility.yul\":1329:1330   */\n      0x00\n        /* \"#utility.yul\":1326:1327   */\n      dup1\n        /* \"#utility.yul\":1319:1331   */\n      revert\n        /* \"#utility.yul\":1281:1333   */\n    tag_563:\n        /* \"#utility.yul\":1352:1381   */\n      tag_564\n        /* \"#utility.yul\":1371:1380   */\n      dup4\n        /* \"#utility.yul\":1352:1381   */\n      tag_553\n      jump\t// in\n    tag_564:\n        /* \"#utility.yul\":1342:1381   */\n      swap2\n      pop\n        /* \"#utility.yul\":1400:1438   */\n      tag_565\n        /* \"#utility.yul\":1434:1436   */\n      0x20\n        /* \"#utility.yul\":1423:1432   */\n      dup5\n        /* \"#utility.yul\":1419:1437   */\n      add\n        /* \"#utility.yul\":1400:1438   */\n      tag_553\n      jump\t// in\n    tag_565:\n        /* \"#utility.yul\":1390:1438   */\n      swap1\n      pop\n        /* \"#utility.yul\":1184:1444   */\n      swap3\n      pop\n      swap3\n      swap1\n      pop\n      jump\t// out\n        /* \"#utility.yul\":1449:1777   */\n    tag_76:\n        /* \"#utility.yul\":1526:1532   */\n      0x00\n        /* \"#utility.yul\":1534:1540   */\n      dup1\n        /* \"#utility.yul\":1542:1548   */\n      0x00\n        /* \"#utility.yul\":1595:1597   */\n      0x60\n        /* \"#utility.yul\":1583:1592   */\n      dup5\n        /* \"#utility.yul\":1574:1581   */\n      dup7\n        /* \"#utility.yul\":1570:1593   */\n      sub\n        /* \"#utility.yul\":1566:1598   */\n      slt\n        /* \"#utility.yul\":1563:1615   */\n      iszero\n      tag_567\n      jumpi\n        /* \"#utility.yul\":1611:1612   */\n      0x00\n        /* \"#utility.yul\":1608:1609   */\n      dup1\n        /* \"#utility.yul\":1601:1613   */\n      revert\n        /* \"#utility.yul\":1563:1615   */\n    tag_567:\n        /* \"#utility.yul\":1634:1663   */\n      tag_568\n        /* \"#utility.yul\":1653:1662   */\n      dup5\n        /* \"#utility.yul\":1634:1663   */\n      tag_553\n      jump\t// in\n    tag_568:\n        /* \"#utility.yul\":1624:1663   */\n      swap3\n      pop\n        /* \"#utility.yul\":1682:1720   */\n      tag_569\n        /* \"#utility.yul\":1716:1718   */\n      0x20\n        /* \"#utility.yul\":1705:1714   */\n      dup6\n        /* \"#utility.yul\":1701:1719   */\n      add\n        /* \"#utility.yul\":1682:1720   */\n      tag_553\n      jump\t// in\n    tag_569:\n        /* \"#utility.yul\":1672:1720   */\n      swap2\n      pop\n        /* \"#utility.yul\":1767:1769   */\n      0x40\n        /* \"#utility.yul\":1756:1765   */\n      dup5\n        /* \"#utility.yul\":1752:1770   */\n      add\n        /* \"#utility.yul\":1739:1771   */\n      calldataload\n        /* \"#utility.yul\":1729:1771   */\n      swap1\n      pop\n        /* \"#utility.yul\":1449:1777   */\n      swap3\n      pop\n      swap3\n      pop\n      swap3\n      jump\t// out\n        /* \"#utility.yul\":1782:2448   */\n    tag_160:\n        /* \"#utility.yul\":1877:1883   */\n      0x00\n        /* \"#utility.yul\":1885:1891   */\n      dup1\n        /* \"#utility.yul\":1893:1899   */\n      0x00\n        /* \"#utility.yul\":1901:1907   */\n      dup1\n        /* \"#utility.yul\":1954:1957   */\n      0x80\n        /* \"#utility.yul\":1942:1951   */\n      dup6\n        /* \"#utility.yul\":1933:1940   */\n      dup8\n        /* \"#utility.yul\":1929:1952   */\n      sub\n        /* \"#utility.yul\":1925:1958   */\n      slt\n        /* \"#utility.yul\":1922:1975   */\n      iszero\n      tag_571\n      jumpi\n        /* \"#utility.yul\":1971:1972   */\n      0x00\n        /* \"#utility.yul\":1968:1969   */\n      dup1\n        /* \"#utility.yul\":1961:1973   */\n      revert\n        /* \"#utility.yul\":1922:1975   */\n    tag_571:\n        /* \"#utility.yul\":1994:2023   */\n      tag_572\n        /* \"#utility.yul\":2013:2022   */\n      dup6\n        /* \"#utility.yul\":1994:2023   */\n      tag_553\n      jump\t// in\n    tag_572:\n        /* \"#utility.yul\":1984:2023   */\n      swap4\n      pop\n        /* \"#utility.yul\":2042:2080   */\n      tag_573\n        /* \"#utility.yul\":2076:2078   */\n      0x20\n        /* \"#utility.yul\":2065:2074   */\n      dup7\n        /* \"#utility.yul\":2061:2079   */\n      add\n        /* \"#utility.yul\":2042:2080   */\n      tag_553\n      jump\t// in\n    tag_573:\n        /* \"#utility.yul\":2032:2080   */\n      swap3\n      pop\n        /* \"#utility.yul\":2127:2129   */\n      0x40\n        /* \"#utility.yul\":2116:2125   */\n      dup6\n        /* \"#utility.yul\":2112:2130   */\n      add\n        /* \"#utility.yul\":2099:2131   */\n      calldataload\n        /* \"#utility.yul\":2089:2131   */\n      swap2\n      pop\n        /* \"#utility.yul\":2182:2184   */\n      0x60\n        /* \"#utility.yul\":2171:2180   */\n      dup6\n        /* \"#utility.yul\":2167:2185   */\n      add\n        /* \"#utility.yul\":2154:2186   */\n      calldataload\n        /* \"#utility.yul\":2209:2227   */\n      0xffffffffffffffff\n        /* \"#utility.yul\":2201:2207   */\n      dup2\n        /* \"#utility.yul\":2198:2228   */\n      gt\n        /* \"#utility.yul\":2195:2245   */\n      iszero\n      tag_574\n      jumpi\n        /* \"#utility.yul\":2241:2242   */\n      0x00\n        /* \"#utility.yul\":2238:2239   */\n      dup1\n        /* \"#utility.yul\":2231:2243   */\n      revert\n        /* \"#utility.yul\":2195:2245   */\n    tag_574:\n        /* \"#utility.yul\":2264:2286   */\n      dup6\n      add\n        /* \"#utility.yul\":2317:2321   */\n      0x1f\n        /* \"#utility.yul\":2309:2322   */\n      dup2\n      add\n        /* \"#utility.yul\":2305:2332   */\n      dup8\n      sgt\n        /* \"#utility.yul\":2295:2350   */\n      tag_575\n      jumpi\n        /* \"#utility.yul\":2346:2347   */\n      0x00\n        /* \"#utility.yul\":2343:2344   */\n      dup1\n        /* \"#utility.yul\":2336:2348   */\n      revert\n        /* \"#utility.yul\":2295:2350   */\n    tag_575:\n        /* \"#utility.yul\":2369:2442   */\n      tag_576\n        /* \"#utility.yul\":2434:2441   */\n      dup8\n        /* \"#utility.yul\":2429:2431   */\n      dup3\n        /* \"#utility.yul\":2416:2432   */\n      calldataload\n        /* \"#utility.yul\":2411:2413   */\n      0x20\n        /* \"#utility.yul\":2407:2409   */\n      dup5\n        /* \"#utility.yul\":2403:2414   */\n      add\n        /* \"#utility.yul\":2369:2442   */\n      tag_546\n      jump\t// in\n    tag_576:\n        /* \"#utility.yul\":2359:2442   */\n      swap2\n      pop\n      pop\n        /* \"#utility.yul\":1782:2448   */\n      swap3\n      swap6\n      swap2\n      swap5\n      pop\n      swap3\n      pop\n      jump\t// out\n        /* \"#utility.yul\":2453:2707   */\n    tag_151:\n        /* \"#utility.yul\":2518:2524   */\n      0x00\n        /* \"#utility.yul\":2526:2532   */\n      dup1\n        /* \"#utility.yul\":2579:2581   */\n      0x40\n        /* \"#utility.yul\":2567:2576   */\n      dup4\n        /* \"#utility.yul\":2558:2565   */\n      dup6\n        /* \"#utility.yul\":2554:2577   */\n      sub\n        /* \"#utility.yul\":2550:2582   */\n      slt\n        /* \"#utility.yul\":2547:2599   */\n      iszero\n      tag_578\n      jumpi\n        /* \"#utility.yul\":2595:2596   */\n      0x00\n        /* \"#utility.yul\":2592:2593   */\n      dup1\n        /* \"#utility.yul\":2585:2597   */\n      revert\n        /* \"#utility.yul\":2547:2599   */\n    tag_578:\n        /* \"#utility.yul\":2618:2647   */\n      tag_579\n        /* \"#utility.yul\":2637:2646   */\n      dup4\n        /* \"#utility.yul\":2618:2647   */\n      tag_553\n      jump\t// in\n    tag_579:\n        /* \"#utility.yul\":2608:2647   */\n      swap2\n      pop\n        /* \"#utility.yul\":2666:2701   */\n      tag_565\n        /* \"#utility.yul\":2697:2699   */\n      0x20\n        /* \"#utility.yul\":2686:2695   */\n      dup5\n        /* \"#utility.yul\":2682:2700   */\n      add\n        /* \"#utility.yul\":2666:2701   */\n      tag_556\n      jump\t// in\n        /* \"#utility.yul\":2712:2966   */\n    tag_66:\n        /* \"#utility.yul\":2780:2786   */\n      0x00\n        /* \"#utility.yul\":2788:2794   */\n      dup1\n        /* \"#utility.yul\":2841:2843   */\n      0x40\n        /* \"#utility.yul\":2829:2838   */\n      dup4\n        /* \"#utility.yul\":2820:2827   */\n      dup6\n        /* \"#utility.yul\":2816:2839   */\n      sub\n        /* \"#utility.yul\":2812:2844   */\n      slt\n        /* \"#utility.yul\":2809:2861   */\n      iszero\n      tag_582\n      jumpi\n        /* \"#utility.yul\":2857:2858   */\n      0x00\n        /* \"#utility.yul\":2854:2855   */\n      dup1\n        /* \"#utility.yul\":2847:2859   */\n      revert\n        /* \"#utility.yul\":2809:2861   */\n    tag_582:\n        /* \"#utility.yul\":2880:2909   */\n      tag_583\n        /* \"#utility.yul\":2899:2908   */\n      dup4\n        /* \"#utility.yul\":2880:2909   */\n      tag_553\n      jump\t// in\n    tag_583:\n        /* \"#utility.yul\":2870:2909   */\n      swap5\n        /* \"#utility.yul\":2956:2958   */\n      0x20\n        /* \"#utility.yul\":2941:2959   */\n      swap4\n      swap1\n      swap4\n      add\n        /* \"#utility.yul\":2928:2960   */\n      calldataload\n      swap4\n      pop\n      pop\n      pop\n        /* \"#utility.yul\":2712:2966   */\n      jump\t// out\n        /* \"#utility.yul\":2971:3151   */\n    tag_127:\n        /* \"#utility.yul\":3027:3033   */\n      0x00\n        /* \"#utility.yul\":3080:3082   */\n      0x20\n        /* \"#utility.yul\":3068:3077   */\n      dup3\n        /* \"#utility.yul\":3059:3066   */\n      dup5\n        /* \"#utility.yul\":3055:3078   */\n      sub\n        /* \"#utility.yul\":3051:3083   */\n      slt\n        /* \"#utility.yul\":3048:3100   */\n      iszero\n      tag_585\n      jumpi\n        /* \"#utility.yul\":3096:3097   */\n      0x00\n        /* \"#utility.yul\":3093:3094   */\n      dup1\n        /* \"#utility.yul\":3086:3098   */\n      revert\n        /* \"#utility.yul\":3048:3100   */\n    tag_585:\n        /* \"#utility.yul\":3119:3145   */\n      tag_388\n        /* \"#utility.yul\":3135:3144   */\n      dup3\n        /* \"#utility.yul\":3119:3145   */\n      tag_556\n      jump\t// in\n        /* \"#utility.yul\":3156:3401   */\n    tag_47:\n        /* \"#utility.yul\":3214:3220   */\n      0x00\n        /* \"#utility.yul\":3267:3269   */\n      0x20\n        /* \"#utility.yul\":3255:3264   */\n      dup3\n        /* \"#utility.yul\":3246:3253   */\n      dup5\n        /* \"#utility.yul\":3242:3265   */\n      sub\n        /* \"#utility.yul\":3238:3270   */\n      slt\n        /* \"#utility.yul\":3235:3287   */\n      iszero\n      tag_588\n      jumpi\n        /* \"#utility.yul\":3283:3284   */\n      0x00\n        /* \"#utility.yul\":3280:3281   */\n      dup1\n        /* \"#utility.yul\":3273:3285   */\n      revert\n        /* \"#utility.yul\":3235:3287   */\n    tag_588:\n        /* \"#utility.yul\":3322:3331   */\n      dup2\n        /* \"#utility.yul\":3309:3332   */\n      calldataload\n        /* \"#utility.yul\":3341:3371   */\n      tag_388\n        /* \"#utility.yul\":3365:3370   */\n      dup2\n        /* \"#utility.yul\":3341:3371   */\n      tag_590\n      jump\t// in\n        /* \"#utility.yul\":3406:3655   */\n    tag_474:\n        /* \"#utility.yul\":3475:3481   */\n      0x00\n        /* \"#utility.yul\":3528:3530   */\n      0x20\n        /* \"#utility.yul\":3516:3525   */\n      dup3\n        /* \"#utility.yul\":3507:3514   */\n      dup5\n        /* \"#utility.yul\":3503:3526   */\n      sub\n        /* \"#utility.yul\":3499:3531   */\n      slt\n        /* \"#utility.yul\":3496:3548   */\n      iszero\n      tag_592\n      jumpi\n        /* \"#utility.yul\":3544:3545   */\n      0x00\n        /* \"#utility.yul\":3541:3542   */\n      dup1\n        /* \"#utility.yul\":3534:3546   */\n      revert\n        /* \"#utility.yul\":3496:3548   */\n    tag_592:\n        /* \"#utility.yul\":3576:3585   */\n      dup2\n        /* \"#utility.yul\":3570:3586   */\n      mload\n        /* \"#utility.yul\":3595:3625   */\n      tag_388\n        /* \"#utility.yul\":3619:3624   */\n      dup2\n        /* \"#utility.yul\":3595:3625   */\n      tag_590\n      jump\t// in\n        /* \"#utility.yul\":3660:4110   */\n    tag_100:\n        /* \"#utility.yul\":3729:3735   */\n      0x00\n        /* \"#utility.yul\":3782:3784   */\n      0x20\n        /* \"#utility.yul\":3770:3779   */\n      dup3\n        /* \"#utility.yul\":3761:3768   */\n      dup5\n        /* \"#utility.yul\":3757:3780   */\n      sub\n        /* \"#utility.yul\":3753:3785   */\n      slt\n        /* \"#utility.yul\":3750:3802   */\n      iszero\n      tag_595\n      jumpi\n        /* \"#utility.yul\":3798:3799   */\n      0x00\n        /* \"#utility.yul\":3795:3796   */\n      dup1\n        /* \"#utility.yul\":3788:3800   */\n      revert\n        /* \"#utility.yul\":3750:3802   */\n    tag_595:\n        /* \"#utility.yul\":3838:3847   */\n      dup2\n        /* \"#utility.yul\":3825:3848   */\n      calldataload\n        /* \"#utility.yul\":3871:3889   */\n      0xffffffffffffffff\n        /* \"#utility.yul\":3863:3869   */\n      dup2\n        /* \"#utility.yul\":3860:3890   */\n      gt\n        /* \"#utility.yul\":3857:3907   */\n      iszero\n      tag_596\n      jumpi\n        /* \"#utility.yul\":3903:3904   */\n      0x00\n        /* \"#utility.yul\":3900:3901   */\n      dup1\n        /* \"#utility.yul\":3893:3905   */\n      revert\n        /* \"#utility.yul\":3857:3907   */\n    tag_596:\n        /* \"#utility.yul\":3926:3948   */\n      dup3\n      add\n        /* \"#utility.yul\":3979:3983   */\n      0x1f\n        /* \"#utility.yul\":3971:3984   */\n      dup2\n      add\n        /* \"#utility.yul\":3967:3994   */\n      dup5\n      sgt\n        /* \"#utility.yul\":3957:4012   */\n      tag_597\n      jumpi\n        /* \"#utility.yul\":4008:4009   */\n      0x00\n        /* \"#utility.yul\":4005:4006   */\n      dup1\n        /* \"#utility.yul\":3998:4010   */\n      revert\n        /* \"#utility.yul\":3957:4012   */\n    tag_597:\n        /* \"#utility.yul\":4031:4104   */\n      tag_483\n        /* \"#utility.yul\":4096:4103   */\n      dup5\n        /* \"#utility.yul\":4091:4093   */\n      dup3\n        /* \"#utility.yul\":4078:4094   */\n      calldataload\n        /* \"#utility.yul\":4073:4075   */\n      0x20\n        /* \"#utility.yul\":4069:4071   */\n      dup5\n        /* \"#utility.yul\":4065:4076   */\n      add\n        /* \"#utility.yul\":4031:4104   */\n      tag_546\n      jump\t// in\n        /* \"#utility.yul\":4115:4295   */\n    tag_59:\n        /* \"#utility.yul\":4174:4180   */\n      0x00\n        /* \"#utility.yul\":4227:4229   */\n      0x20\n        /* \"#utility.yul\":4215:4224   */\n      dup3\n        /* \"#utility.yul\":4206:4213   */\n      dup5\n        /* \"#utility.yul\":4202:4225   */\n      sub\n        /* \"#utility.yul\":4198:4230   */\n      slt\n        /* \"#utility.yul\":4195:4247   */\n      iszero\n      tag_600\n      jumpi\n        /* \"#utility.yul\":4243:4244   */\n      0x00\n        /* \"#utility.yul\":4240:4241   */\n      dup1\n        /* \"#utility.yul\":4233:4245   */\n      revert\n        /* \"#utility.yul\":4195:4247   */\n    tag_600:\n      pop\n        /* \"#utility.yul\":4266:4289   */\n      calldataload\n      swap2\n        /* \"#utility.yul\":4115:4295   */\n      swap1\n      pop\n      jump\t// out\n        /* \"#utility.yul\":4300:4557   */\n    tag_601:\n        /* \"#utility.yul\":4341:4344   */\n      0x00\n        /* \"#utility.yul\":4379:4384   */\n      dup2\n        /* \"#utility.yul\":4373:4385   */\n      mload\n        /* \"#utility.yul\":4406:4412   */\n      dup1\n        /* \"#utility.yul\":4401:4404   */\n      dup5\n        /* \"#utility.yul\":4394:4413   */\n      mstore\n        /* \"#utility.yul\":4422:4485   */\n      tag_603\n        /* \"#utility.yul\":4478:4484   */\n      dup2\n        /* \"#utility.yul\":4471:4475   */\n      0x20\n        /* \"#utility.yul\":4466:4469   */\n      dup7\n        /* \"#utility.yul\":4462:4476   */\n      add\n        /* \"#utility.yul\":4455:4459   */\n      0x20\n        /* \"#utility.yul\":4448:4453   */\n      dup7\n        /* \"#utility.yul\":4444:4460   */\n      add\n        /* \"#utility.yul\":4422:4485   */\n      tag_604\n      jump\t// in\n    tag_603:\n        /* \"#utility.yul\":4539:4541   */\n      0x1f\n        /* \"#utility.yul\":4518:4533   */\n      add\n      not(0x1f)\n        /* \"#utility.yul\":4514:4543   */\n      and\n        /* \"#utility.yul\":4505:4544   */\n      swap3\n      swap1\n      swap3\n      add\n        /* \"#utility.yul\":4546:4550   */\n      0x20\n        /* \"#utility.yul\":4501:4551   */\n      add\n      swap3\n        /* \"#utility.yul\":4300:4557   */\n      swap2\n      pop\n      pop\n      jump\t// out\n        /* \"#utility.yul\":4562:5199   */\n    tag_392:\n        /* \"#utility.yul\":4842:4845   */\n      0x00\n        /* \"#utility.yul\":4880:4886   */\n      dup4\n        /* \"#utility.yul\":4874:4887   */\n      mload\n        /* \"#utility.yul\":4896:4949   */\n      tag_606\n        /* \"#utility.yul\":4942:4948   */\n      dup2\n        /* \"#utility.yul\":4937:4940   */\n      dup5\n        /* \"#utility.yul\":4930:4934   */\n      0x20\n        /* \"#utility.yul\":4922:4928   */\n      dup9\n        /* \"#utility.yul\":4918:4935   */\n      add\n        /* \"#utility.yul\":4896:4949   */\n      tag_604\n      jump\t// in\n    tag_606:\n        /* \"#utility.yul\":5012:5025   */\n      dup4\n      mload\n        /* \"#utility.yul\":4971:4987   */\n      swap1\n      dup4\n      add\n      swap1\n        /* \"#utility.yul\":5034:5091   */\n      tag_607\n        /* \"#utility.yul\":5012:5025   */\n      dup2\n        /* \"#utility.yul\":4971:4987   */\n      dup4\n        /* \"#utility.yul\":5068:5072   */\n      0x20\n        /* \"#utility.yul\":5056:5073   */\n      dup9\n      add\n        /* \"#utility.yul\":5034:5091   */\n      tag_604\n      jump\t// in\n    tag_607:\n      shl(0xd9, 0x173539b7b7)\n        /* \"#utility.yul\":5113:5133   */\n      swap2\n      add\n        /* \"#utility.yul\":5142:5164   */\n      swap1\n      dup2\n      mstore\n        /* \"#utility.yul\":5191:5192   */\n      0x05\n        /* \"#utility.yul\":5180:5193   */\n      add\n      swap5\n        /* \"#utility.yul\":4562:5199   */\n      swap4\n      pop\n      pop\n      pop\n      pop\n      jump\t// out\n        /* \"#utility.yul\":5622:6110   */\n    tag_470:\n      sub(shl(0xa0, 0x01), 0x01)\n        /* \"#utility.yul\":5891:5906   */\n      dup6\n      dup2\n      and\n        /* \"#utility.yul\":5873:5907   */\n      dup3\n      mstore\n        /* \"#utility.yul\":5943:5958   */\n      dup5\n      and\n        /* \"#utility.yul\":5938:5940   */\n      0x20\n        /* \"#utility.yul\":5923:5941   */\n      dup3\n      add\n        /* \"#utility.yul\":5916:5959   */\n      mstore\n        /* \"#utility.yul\":5990:5992   */\n      0x40\n        /* \"#utility.yul\":5975:5993   */\n      dup2\n      add\n        /* \"#utility.yul\":5968:6002   */\n      dup4\n      swap1\n      mstore\n        /* \"#utility.yul\":6038:6041   */\n      0x80\n        /* \"#utility.yul\":6033:6035   */\n      0x60\n        /* \"#utility.yul\":6018:6036   */\n      dup3\n      add\n        /* \"#utility.yul\":6011:6042   */\n      dup2\n      swap1\n      mstore\n        /* \"#utility.yul\":5816:5820   */\n      0x00\n      swap1\n        /* \"#utility.yul\":6059:6104   */\n      tag_611\n      swap1\n        /* \"#utility.yul\":6084:6103   */\n      dup4\n      add\n        /* \"#utility.yul\":6076:6082   */\n      dup5\n        /* \"#utility.yul\":6059:6104   */\n      tag_601\n      jump\t// in\n    tag_611:\n        /* \"#utility.yul\":6051:6104   */\n      swap7\n        /* \"#utility.yul\":5622:6110   */\n      swap6\n      pop\n      pop\n      pop\n      pop\n      pop\n      pop\n      jump\t// out\n        /* \"#utility.yul\":6307:6526   */\n    tag_55:\n        /* \"#utility.yul\":6456:6458   */\n      0x20\n        /* \"#utility.yul\":6445:6454   */\n      dup2\n        /* \"#utility.yul\":6438:6459   */\n      mstore\n        /* \"#utility.yul\":6419:6423   */\n      0x00\n        /* \"#utility.yul\":6476:6520   */\n      tag_388\n        /* \"#utility.yul\":6516:6518   */\n      0x20\n        /* \"#utility.yul\":6505:6514   */\n      dup4\n        /* \"#utility.yul\":6501:6519   */\n      add\n        /* \"#utility.yul\":6493:6499   */\n      dup5\n        /* \"#utility.yul\":6476:6520   */\n      tag_601\n      jump\t// in\n        /* \"#utility.yul\":8072:8428   */\n    tag_238:\n        /* \"#utility.yul\":8274:8276   */\n      0x20\n        /* \"#utility.yul\":8256:8277   */\n      dup1\n      dup3\n      mstore\n        /* \"#utility.yul\":8293:8311   */\n      dup2\n      dup2\n      add\n        /* \"#utility.yul\":8286:8316   */\n      mstore\n        /* \"#utility.yul\":8352:8386   */\n      0x4f776e61626c653a2063616c6c6572206973206e6f7420746865206f776e6572\n        /* \"#utility.yul\":8347:8349   */\n      0x40\n        /* \"#utility.yul\":8332:8350   */\n      dup3\n      add\n        /* \"#utility.yul\":8325:8387   */\n      mstore\n        /* \"#utility.yul\":8419:8421   */\n      0x60\n        /* \"#utility.yul\":8404:8422   */\n      add\n      swap1\n        /* \"#utility.yul\":8072:8428   */\n      jump\t// out\n        /* \"#utility.yul\":10716:10844   */\n    tag_252:\n        /* \"#utility.yul\":10756:10759   */\n      0x00\n        /* \"#utility.yul\":10787:10788   */\n      dup3\n        /* \"#utility.yul\":10783:10789   */\n      not\n        /* \"#utility.yul\":10780:10781   */\n      dup3\n        /* \"#utility.yul\":10777:10790   */\n      gt\n        /* \"#utility.yul\":10774:10813   */\n      iszero\n      tag_629\n      jumpi\n        /* \"#utility.yul\":10793:10811   */\n      tag_629\n      tag_630\n      jump\t// in\n    tag_629:\n      pop\n        /* \"#utility.yul\":10829:10838   */\n      add\n      swap1\n        /* \"#utility.yul\":10716:10844   */\n      jump\t// out\n        /* \"#utility.yul\":10849:10969   */\n    tag_497:\n        /* \"#utility.yul\":10889:10890   */\n      0x00\n        /* \"#utility.yul\":10915:10916   */\n      dup3\n        /* \"#utility.yul\":10905:10940   */\n      tag_633\n      jumpi\n        /* \"#utility.yul\":10920:10938   */\n      tag_633\n      tag_634\n      jump\t// in\n    tag_633:\n      pop\n        /* \"#utility.yul\":10954:10963   */\n      div\n      swap1\n        /* \"#utility.yul\":10849:10969   */\n      jump\t// out\n        /* \"#utility.yul\":10974:11142   */\n    tag_333:\n        /* \"#utility.yul\":11014:11021   */\n      0x00\n        /* \"#utility.yul\":11080:11081   */\n      dup2\n        /* \"#utility.yul\":11076:11077   */\n      0x00\n        /* \"#utility.yul\":11072:11078   */\n      not\n        /* \"#utility.yul\":11068:11082   */\n      div\n        /* \"#utility.yul\":11065:11066   */\n      dup4\n        /* \"#utility.yul\":11062:11083   */\n      gt\n        /* \"#utility.yul\":11057:11058   */\n      dup3\n        /* \"#utility.yul\":11050:11059   */\n      iszero\n        /* \"#utility.yul\":11043:11060   */\n      iszero\n        /* \"#utility.yul\":11039:11084   */\n      and\n        /* \"#utility.yul\":11036:11107   */\n      iszero\n      tag_637\n      jumpi\n        /* \"#utility.yul\":11087:11105   */\n      tag_637\n      tag_630\n      jump\t// in\n    tag_637:\n      pop\n        /* \"#utility.yul\":11127:11136   */\n      mul\n      swap1\n        /* \"#utility.yul\":10974:11142   */\n      jump\t// out\n        /* \"#utility.yul\":11147:11272   */\n    tag_336:\n        /* \"#utility.yul\":11187:11191   */\n      0x00\n        /* \"#utility.yul\":11215:11216   */\n      dup3\n        /* \"#utility.yul\":11212:11213   */\n      dup3\n        /* \"#utility.yul\":11209:11217   */\n      lt\n        /* \"#utility.yul\":11206:11240   */\n      iszero\n      tag_640\n      jumpi\n        /* \"#utility.yul\":11220:11238   */\n      tag_640\n      tag_630\n      jump\t// in\n    tag_640:\n      pop\n        /* \"#utility.yul\":11257:11266   */\n      sub\n      swap1\n        /* \"#utility.yul\":11147:11272   */\n      jump\t// out\n        /* \"#utility.yul\":11277:11535   */\n    tag_604:\n        /* \"#utility.yul\":11349:11350   */\n      0x00\n        /* \"#utility.yul\":11359:11472   */\n    tag_642:\n        /* \"#utility.yul\":11373:11379   */\n      dup4\n        /* \"#utility.yul\":11370:11371   */\n      dup2\n        /* \"#utility.yul\":11367:11380   */\n      lt\n        /* \"#utility.yul\":11359:11472   */\n      iszero\n      tag_644\n      jumpi\n        /* \"#utility.yul\":11449:11460   */\n      dup2\n      dup2\n      add\n        /* \"#utility.yul\":11443:11461   */\n      mload\n        /* \"#utility.yul\":11430:11441   */\n      dup4\n      dup3\n      add\n        /* \"#utility.yul\":11423:11462   */\n      mstore\n        /* \"#utility.yul\":11395:11397   */\n      0x20\n        /* \"#utility.yul\":11388:11398   */\n      add\n        /* \"#utility.yul\":11359:11472   */\n      jump(tag_642)\n    tag_644:\n        /* \"#utility.yul\":11490:11496   */\n      dup4\n        /* \"#utility.yul\":11487:11488   */\n      dup2\n        /* \"#utility.yul\":11484:11497   */\n      gt\n        /* \"#utility.yul\":11481:11529   */\n      iszero\n      tag_370\n      jumpi\n      pop\n      pop\n        /* \"#utility.yul\":11525:11526   */\n      0x00\n        /* \"#utility.yul\":11507:11523   */\n      swap2\n      add\n        /* \"#utility.yul\":11500:11527   */\n      mstore\n        /* \"#utility.yul\":11277:11535   */\n      jump\t// out\n        /* \"#utility.yul\":11540:11920   */\n    tag_207:\n        /* \"#utility.yul\":11619:11620   */\n      0x01\n        /* \"#utility.yul\":11615:11627   */\n      dup2\n      dup2\n      shr\n      swap1\n        /* \"#utility.yul\":11662:11674   */\n      dup3\n      and\n      dup1\n        /* \"#utility.yul\":11683:11744   */\n      tag_647\n      jumpi\n        /* \"#utility.yul\":11737:11741   */\n      0x7f\n        /* \"#utility.yul\":11729:11735   */\n      dup3\n        /* \"#utility.yul\":11725:11742   */\n      and\n        /* \"#utility.yul\":11715:11742   */\n      swap2\n      pop\n        /* \"#utility.yul\":11683:11744   */\n    tag_647:\n        /* \"#utility.yul\":11790:11792   */\n      0x20\n        /* \"#utility.yul\":11782:11788   */\n      dup3\n        /* \"#utility.yul\":11779:11793   */\n      lt\n        /* \"#utility.yul\":11759:11777   */\n      dup2\n        /* \"#utility.yul\":11756:11794   */\n      eq\n        /* \"#utility.yul\":11753:11914   */\n      iszero\n      tag_648\n      jumpi\n        /* \"#utility.yul\":11836:11846   */\n      0x4e487b71\n        /* \"#utility.yul\":11831:11834   */\n      0xe0\n        /* \"#utility.yul\":11827:11847   */\n      shl\n        /* \"#utility.yul\":11824:11825   */\n      0x00\n        /* \"#utility.yul\":11817:11848   */\n      mstore\n        /* \"#utility.yul\":11871:11875   */\n      0x22\n        /* \"#utility.yul\":11868:11869   */\n      0x04\n        /* \"#utility.yul\":11861:11876   */\n      mstore\n        /* \"#utility.yul\":11899:11903   */\n      0x24\n        /* \"#utility.yul\":11896:11897   */\n      0x00\n        /* \"#utility.yul\":11889:11904   */\n      revert\n        /* \"#utility.yul\":11753:11914   */\n    tag_648:\n      pop\n        /* \"#utility.yul\":11540:11920   */\n      swap2\n      swap1\n      pop\n      jump\t// out\n        /* \"#utility.yul\":11925:12060   */\n    tag_495:\n        /* \"#utility.yul\":11964:11967   */\n      0x00\n      not(0x00)\n        /* \"#utility.yul\":11985:12002   */\n      dup3\n      eq\n        /* \"#utility.yul\":11982:12025   */\n      iszero\n      tag_651\n      jumpi\n        /* \"#utility.yul\":12005:12023   */\n      tag_651\n      tag_630\n      jump\t// in\n    tag_651:\n      pop\n        /* \"#utility.yul\":12052:12053   */\n      0x01\n        /* \"#utility.yul\":12041:12054   */\n      add\n      swap1\n        /* \"#utility.yul\":11925:12060   */\n      jump\t// out\n        /* \"#utility.yul\":12065:12177   */\n    tag_506:\n        /* \"#utility.yul\":12097:12098   */\n      0x00\n        /* \"#utility.yul\":12123:12124   */\n      dup3\n        /* \"#utility.yul\":12113:12148   */\n      tag_654\n      jumpi\n        /* \"#utility.yul\":12128:12146   */\n      tag_654\n      tag_634\n      jump\t// in\n    tag_654:\n      pop\n        /* \"#utility.yul\":12162:12171   */\n      mod\n      swap1\n        /* \"#utility.yul\":12065:12177   */\n      jump\t// out\n        /* \"#utility.yul\":12182:12309   */\n    tag_630:\n        /* \"#utility.yul\":12243:12253   */\n      0x4e487b71\n        /* \"#utility.yul\":12238:12241   */\n      0xe0\n        /* \"#utility.yul\":12234:12254   */\n      shl\n        /* \"#utility.yul\":12231:12232   */\n      0x00\n        /* \"#utility.yul\":12224:12255   */\n      mstore\n        /* \"#utility.yul\":12274:12278   */\n      0x11\n        /* \"#utility.yul\":12271:12272   */\n      0x04\n        /* \"#utility.yul\":12264:12279   */\n      mstore\n        /* \"#utility.yul\":12298:12302   */\n      0x24\n        /* \"#utility.yul\":12295:12296   */\n      0x00\n        /* \"#utility.yul\":12288:12303   */\n      revert\n        /* \"#utility.yul\":12314:12441   */\n    tag_634:\n        /* \"#utility.yul\":12375:12385   */\n      0x4e487b71\n        /* \"#utility.yul\":12370:12373   */\n      0xe0\n        /* \"#utility.yul\":12366:12386   */\n      shl\n        /* \"#utility.yul\":12363:12364   */\n      0x00\n        /* \"#utility.yul\":12356:12387   */\n      mstore\n        /* \"#utility.yul\":12406:12410   */\n      0x12\n        /* \"#utility.yul\":12403:12404   */\n      0x04\n        /* \"#utility.yul\":12396:12411   */\n      mstore\n        /* \"#utility.yul\":12430:12434   */\n      0x24\n        /* \"#utility.yul\":12427:12428   */\n      0x00\n        /* \"#utility.yul\":12420:12435   */\n      revert\n        /* \"#utility.yul\":12446:12573   */\n    tag_510:\n        /* \"#utility.yul\":12507:12517   */\n      0x4e487b71\n        /* \"#utility.yul\":12502:12505   */\n      0xe0\n        /* \"#utility.yul\":12498:12518   */\n      shl\n        /* \"#utility.yul\":12495:12496   */\n      0x00\n        /* \"#utility.yul\":12488:12519   */\n      mstore\n        /* \"#utility.yul\":12538:12542   */\n      0x32\n        /* \"#utility.yul\":12535:12536   */\n      0x04\n        /* \"#utility.yul\":12528:12543   */\n      mstore\n        /* \"#utility.yul\":12562:12566   */\n      0x24\n        /* \"#utility.yul\":12559:12560   */\n      0x00\n        /* \"#utility.yul\":12552:12567   */\n      revert\n        /* \"#utility.yul\":12578:12705   */\n    tag_500:\n        /* \"#utility.yul\":12639:12649   */\n      0x4e487b71\n        /* \"#utility.yul\":12634:12637   */\n      0xe0\n        /* \"#utility.yul\":12630:12650   */\n      shl\n        /* \"#utility.yul\":12627:12628   */\n      0x00\n        /* \"#utility.yul\":12620:12651   */\n      mstore\n        /* \"#utility.yul\":12670:12674   */\n      0x41\n        /* \"#utility.yul\":12667:12668   */\n      0x04\n        /* \"#utility.yul\":12660:12675   */\n      mstore\n        /* \"#utility.yul\":12694:12698   */\n      0x24\n        /* \"#utility.yul\":12691:12692   */\n      0x00\n        /* \"#utility.yul\":12684:12699   */\n      revert\n        /* \"#utility.yul\":12710:12841   */\n    tag_590:\n      not(sub(shl(0xe0, 0x01), 0x01))\n        /* \"#utility.yul\":12784:12816   */\n      dup2\n      and\n        /* \"#utility.yul\":12774:12817   */\n      dup2\n      eq\n        /* \"#utility.yul\":12764:12835   */\n      tag_409\n      jumpi\n        /* \"#utility.yul\":12831:12832   */\n      0x00\n        /* \"#utility.yul\":12828:12829   */\n      dup1\n        /* \"#utility.yul\":12821:12833   */\n      revert\n\n    auxdata: 0xa2646970667358221220d057d185ec624e9aefb7cafa917db8c968109482985087f3d30848648bd9b03c64736f6c63430008070033\n}\n",
				"bytecode": {
					"linkReferences": {},
					"object": "60806040523480156200001157600080fd5b50604051620023953803806200239583398101604081905262000034916200020b565b604080518082018252600e81526d29ba37b732b939aa37bbb72bba3360911b60208083019182528351808501909452600384526253545760e81b90840152815191929162000085916002916200014f565b5080516200009b9060039060208401906200014f565b5050600160005550620000ae33620000fd565b6001600955600a879055600b8690558451620000d290600c9060208801906200014f565b50600d93909355600e91909155600f805460ff19169115159190911790556010555062000381915050565b600880546001600160a01b038381166001600160a01b0319831681179093556040519116919082907f8be0079c531659141344cd1fd0a4f28419497f9722a3daafe3b4186f6b6457e090600090a35050565b8280546200015d906200032e565b90600052602060002090601f016020900481019282620001815760008555620001cc565b82601f106200019c57805160ff1916838001178555620001cc565b82800160010185558215620001cc579182015b82811115620001cc578251825591602001919060010190620001af565b50620001da929150620001de565b5090565b5b80821115620001da5760008155600101620001df565b805180151581146200020657600080fd5b919050565b600080600080600080600060e0888a0312156200022757600080fd5b87516020808a015160408b01519299509750906001600160401b03808211156200025057600080fd5b818b0191508b601f8301126200026557600080fd5b8151818111156200027a576200027a6200036b565b604051601f8201601f19908116603f01168101908382118183101715620002a557620002a56200036b565b816040528281528e86848701011115620002be57600080fd5b600093505b82841015620002e25784840186015181850187015292850192620002c3565b82841115620002f45760008684830101525b809a5050505050505060608801519350608088015192506200031960a08901620001f5565b915060c0880151905092959891949750929550565b600181811c908216806200034357607f821691505b602082108114156200036557634e487b7160e01b600052602260045260246000fd5b50919050565b634e487b7160e01b600052604160045260246000fd5b61200480620003916000396000f3fe6080604052600436106102045760003560e01c8063841718a611610118578063c4e9374d116100a0578063e1b5a2721161006f578063e1b5a272146105a2578063e985e9c5146105b8578063eae9c95d14610601578063f2fde38b14610617578063fdb4953a1461063757600080fd5b8063c4e9374d14610537578063c87b56dd14610557578063c8eca56214610577578063d111515d1461058d57600080fd5b806395d89b41116100e757806395d89b41146104af578063a0712d68146104c4578063a22cb465146104d7578063b0551ac4146104f7578063b88d4fde1461051757600080fd5b8063841718a6146104315780638b85e43d146104515780638da5cb5b1461047157806391b7f5ed1461048f57600080fd5b8063408cbf941161019b578063616cdb1e1161016a578063616cdb1e146103a25780636352211e146103c257806370a08231146103e2578063715018a61461040257806376d02b711461041757600080fd5b8063408cbf941461032c57806342842e0e1461034c5780635381f6e21461036c57806355f804b31461038257600080fd5b806318160ddd116101d757806318160ddd146102ba57806323b872dd146102e157806328cb250f146103015780633ccfd60b1461031757600080fd5b806301ffc9a71461020957806306fdde031461023e578063081812fc14610260578063095ea7b314610298575b600080fd5b34801561021557600080fd5b50610229610224366004611cdc565b610651565b60405190151581526020015b60405180910390f35b34801561024a57600080fd5b506102536106a3565b6040516102359190611e20565b34801561026c57600080fd5b5061028061027b366004611d5f565b610735565b6040516001600160a01b039091168152602001610235565b3480156102a457600080fd5b506102b86102b3366004611c97565b610779565b005b3480156102c657600080fd5b5060015460005403600019015b604051908152602001610235565b3480156102ed57600080fd5b506102b86102fc366004611bb5565b610807565b34801561030d57600080fd5b506102d3600e5481565b34801561032357600080fd5b506102b8610812565b34801561033857600080fd5b506102b8610347366004611c97565b6108c4565b34801561035857600080fd5b506102b8610367366004611bb5565b6109a4565b34801561037857600080fd5b506102d3600d5481565b34801561038e57600080fd5b506102b861039d366004611d16565b6109bf565b3480156103ae57600080fd5b506102b86103bd366004611d5f565b610a46565b3480156103ce57600080fd5b506102806103dd366004611d5f565b610a75565b3480156103ee57600080fd5b506102d36103fd366004611b67565b610a87565b34801561040e57600080fd5b506102b8610ad6565b34801561042357600080fd5b50600f546102299060ff1681565b34801561043d57600080fd5b506102b861044c366004611cc1565b610b0c565b34801561045d57600080fd5b506102b861046c366004611d5f565b610b49565b34801561047d57600080fd5b506008546001600160a01b0316610280565b34801561049b57600080fd5b506102b86104aa366004611d5f565b610b78565b3480156104bb57600080fd5b50610253610ba7565b6102b86104d2366004611d5f565b610bb6565b3480156104e357600080fd5b506102b86104f2366004611c6d565b610d91565b34801561050357600080fd5b506102b8610512366004611d5f565b610e27565b34801561052357600080fd5b506102b8610532366004611bf1565b610e56565b34801561054357600080fd5b506102b8610552366004611d5f565b610ea7565b34801561056357600080fd5b50610253610572366004611d5f565b610f6b565b34801561058357600080fd5b506102d3600a5481565b34801561059957600080fd5b506102b8610ff0565b3480156105ae57600080fd5b506102d360105481565b3480156105c457600080fd5b506102296105d3366004611b82565b6001600160a01b03918216600090815260076020908152604080832093909416825291909152205460ff1690565b34801561060d57600080fd5b506102d3600b5481565b34801561062357600080fd5b506102b8610632366004611b67565b611029565b34801561064357600080fd5b506011546102299060ff1681565b60006001600160e01b031982166380ac58cd60e01b148061068257506001600160e01b03198216635b5e139f60e01b145b8061069d57506301ffc9a760e01b6001600160e01b03198316145b92915050565b6060600280546106b290611ef6565b80601f01602080910402602001604051908101604052809291908181526020018280546106de90611ef6565b801561072b5780601f106107005761010080835404028352916020019161072b565b820191906000526020600020905b81548152906001019060200180831161070e57829003601f168201915b5050505050905090565b6000610740826110c4565b61075d576040516333d1c03960e21b815260040160405180910390fd5b506000908152600660205260409020546001600160a01b031690565b600061078482610a75565b9050806001600160a01b0316836001600160a01b031614156107b95760405163250fdee360e21b815260040160405180910390fd5b336001600160a01b038216148015906107d957506107d781336105d3565b155b156107f7576040516367d9dca160e11b815260040160405180910390fd5b6108028383836110fd565b505050565b610802838383611159565b6008546001600160a01b031633146108455760405162461bcd60e51b815260040161083c90611e33565b60405180910390fd5b600260095414156108985760405162461bcd60e51b815260206004820152601f60248201527f5265656e7472616e637947756172643a207265656e7472616e742063616c6c00604482015260640161083c565b6002600955476108bc732e45a3053639ce97f43b4761ca9332ea7b5adb8a8261136f565b506001600955565b806000811180156108d75750600e548111155b61091a5760405162461bcd60e51b8152602060048201526014602482015273496e76616c6964206d696e7420616d6f756e742160601b604482015260640161083c565b600b548160005461092b9190611e68565b11156109705760405162461bcd60e51b81526020600482015260146024820152734d617820737570706c792065786365656465642160601b604482015260640161083c565b6008546001600160a01b0316331461099a5760405162461bcd60e51b815260040161083c90611e33565b6108028383611488565b61080283838360405180602001604052806000815250610e56565b6008546001600160a01b031633146109e95760405162461bcd60e51b815260040161083c90611e33565b60115460ff1615610a2f5760405162461bcd60e51b815260206004820152601060248201526f4d657461646174612066726f7a656e2160801b604482015260640161083c565b8051610a4290600c906020840190611a2c565b5050565b6008546001600160a01b03163314610a705760405162461bcd60e51b815260040161083c90611e33565b600e55565b6000610a80826114a2565b5192915050565b60006001600160a01b038216610ab0576040516323d3ad8160e21b815260040160405180910390fd5b506001600160a01b031660009081526005602052604090205467ffffffffffffffff1690565b6008546001600160a01b03163314610b005760405162461bcd60e51b815260040161083c90611e33565b610b0a60006115cb565b565b6008546001600160a01b03163314610b365760405162461bcd60e51b815260040161083c90611e33565b600f805460ff1916911515919091179055565b6008546001600160a01b03163314610b735760405162461bcd60e51b815260040161083c90611e33565b601055565b6008546001600160a01b03163314610ba25760405162461bcd60e51b815260040161083c90611e33565b600a55565b6060600380546106b290611ef6565b80600081118015610bc95750600e548111155b610c0c5760405162461bcd60e51b8152602060048201526014602482015273496e76616c6964206d696e7420616d6f756e742160601b604482015260640161083c565b600b5481600054610c1d9190611e68565b1115610c625760405162461bcd60e51b81526020600482015260146024820152734d617820737570706c792065786365656465642160601b604482015260640161083c565b600f5460ff16610caa5760405162461bcd60e51b815260206004820152601360248201527253616c65206973206e6f74206163746976652160681b604482015260640161083c565b600082600a54610cba9190611e94565b90506010546000541015610d415733600090815260126020526040812054600d54610ce59190611eb3565b90508015610d3f57808410610d1c57600a54610d019082611e94565b610d0b9083611eb3565b9150610d17338261161d565b610d3f565b600a54610d299085611e94565b610d339083611eb3565b9150610d3f338561161d565b505b80341015610d875760405162461bcd60e51b8152602060048201526013602482015272496e73756666696369656e742066756e64732160681b604482015260640161083c565b6108023384611488565b6001600160a01b038216331415610dbb5760405163b06307db60e01b815260040160405180910390fd5b3360008181526007602090815260408083206001600160a01b03871680855290835292819020805460ff191686151590811790915590519081529192917f17307eab39ab6107e8899845ad3d59bd9653f200f220920489ca2b5937696c31910160405180910390a35050565b6008546001600160a01b03163314610e515760405162461bcd60e51b815260040161083c90611e33565b600d55565b610e61848484611159565b6001600160a01b0383163b15158015610e835750610e818484848461164e565b155b15610ea1576040516368d2bf6b60e11b815260040160405180910390fd5b50505050565b6008546001600160a01b03163314610ed15760405162461bcd60e51b815260040161083c90611e33565b600b548110610f1b5760405162461bcd60e51b8152602060048201526016602482015275496e76616c6964206e6577206d617820737570706c7960501b604482015260640161083c565b600054811015610f665760405162461bcd60e51b8152602060048201526016602482015275496e76616c6964206e6577206d617820737570706c7960501b604482015260640161083c565b600b55565b6060610f76826110c4565b610f9357604051630a14c4b560e41b815260040160405180910390fd5b6000610f9d611746565b9050805160001415610fbe5760405180602001604052806000815250610fe9565b80610fc884611755565b604051602001610fd9929190611da4565b6040516020818303038152906040525b9392505050565b6008546001600160a01b0316331461101a5760405162461bcd60e51b815260040161083c90611e33565b6011805460ff19166001179055565b6008546001600160a01b031633146110535760405162461bcd60e51b815260040161083c90611e33565b6001600160a01b0381166110b85760405162461bcd60e51b815260206004820152602660248201527f4f776e61626c653a206e6577206f776e657220697320746865207a65726f206160448201526564647265737360d01b606482015260840161083c565b6110c1816115cb565b50565b6000816001111580156110d8575060005482105b801561069d575050600090815260046020526040902054600160e01b900460ff161590565b60008281526006602052604080822080546001600160a01b0319166001600160a01b0387811691821790925591518593918516917f8c5be1e5ebec7d5bd14f71427d1e84f3dd0314c0f7b2291e5b200ac8c7c3b92591a4505050565b6000611164826114a2565b80519091506000906001600160a01b0316336001600160a01b031614806111925750815161119290336105d3565b806111ad5750336111a284610735565b6001600160a01b0316145b9050806111cd57604051632ce44b5f60e11b815260040160405180910390fd5b846001600160a01b031682600001516001600160a01b0316146112025760405162a1148160e81b815260040160405180910390fd5b6001600160a01b03841661122957604051633a954ecd60e21b815260040160405180910390fd5b61123960008484600001516110fd565b6001600160a01b038581166000908152600560209081526040808320805467ffffffffffffffff1980821667ffffffffffffffff92831660001901831617909255898616808652838620805493841693831660019081018416949094179055898652600490945282852080546001600160e01b031916909417600160a01b42909216919091021790925590860180835291205490911661132557600054811015611325578251600082815260046020908152604090912080549186015167ffffffffffffffff16600160a01b026001600160e01b03199092166001600160a01b03909316929092171790555b5082846001600160a01b0316866001600160a01b03167fddf252ad1be2c89b69c2b068fc378daa952ba7f163c4a11628f55a4df523b3ef60405160405180910390a45b5050505050565b804710156113bf5760405162461bcd60e51b815260206004820152601d60248201527f416464726573733a20696e73756666696369656e742062616c616e6365000000604482015260640161083c565b6000826001600160a01b03168260405160006040518083038185875af1925050503d806000811461140c576040519150601f19603f3d011682016040523d82523d6000602084013e611411565b606091505b50509050806108025760405162461bcd60e51b815260206004820152603a60248201527f416464726573733a20756e61626c6520746f2073656e642076616c75652c207260448201527f6563697069656e74206d61792068617665207265766572746564000000000000606482015260840161083c565b610a42828260405180602001604052806000815250611853565b604080516060810182526000808252602082018190529181019190915281806001111580156114d2575060005481105b156115b257600081815260046020908152604091829020825160608101845290546001600160a01b0381168252600160a01b810467ffffffffffffffff1692820192909252600160e01b90910460ff161515918101829052906115b05780516001600160a01b031615611546579392505050565b5060001901600081815260046020908152604091829020825160608101845290546001600160a01b038116808352600160a01b820467ffffffffffffffff1693830193909352600160e01b900460ff16151592810192909252156115ab579392505050565b611546565b505b604051636f96cda160e11b815260040160405180910390fd5b600880546001600160a01b038381166001600160a01b0319831681179093556040519116919082907f8be0079c531659141344cd1fd0a4f28419497f9722a3daafe3b4186f6b6457e090600090a35050565b6001600160a01b03821660009081526012602052604081208054839290611645908490611e68565b90915550505050565b604051630a85bd0160e11b81526000906001600160a01b0385169063150b7a0290611683903390899088908890600401611de3565b602060405180830381600087803b15801561169d57600080fd5b505af19250505080156116cd575060408051601f3d908101601f191682019092526116ca91810190611cf9565b60015b611728573d8080156116fb576040519150601f19603f3d011682016040523d82523d6000602084013e611700565b606091505b508051611720576040516368d2bf6b60e11b815260040160405180910390fd5b805181602001fd5b6001600160e01b031916630a85bd0160e11b1490505b949350505050565b6060600c80546106b290611ef6565b6060816117795750506040805180820190915260018152600360fc1b602082015290565b8160005b81156117a3578061178d81611f31565b915061179c9050600a83611e80565b915061177d565b60008167ffffffffffffffff8111156117be576117be611fa2565b6040519080825280601f01601f1916602001820160405280156117e8576020820181803683370190505b5090505b841561173e576117fd600183611eb3565b915061180a600a86611f4c565b611815906030611e68565b60f81b81838151811061182a5761182a611f8c565b60200101906001600160f81b031916908160001a90535061184c600a86611e80565b94506117ec565b61080283838360016000546001600160a01b03851661188457604051622e076360e81b815260040160405180910390fd5b836118a25760405163b562e8dd60e01b815260040160405180910390fd5b6001600160a01b038516600081815260056020908152604080832080546fffffffffffffffffffffffffffffffff19811667ffffffffffffffff8083168c0181169182176801000000000000000067ffffffffffffffff1990941690921783900481168c01811690920217909155858452600490925290912080546001600160e01b031916909217600160a01b42909216919091021790558080850183801561195457506001600160a01b0387163b15155b156119dd575b60405182906001600160a01b038916906000907fddf252ad1be2c89b69c2b068fc378daa952ba7f163c4a11628f55a4df523b3ef908290a46119a5600088848060010195508861164e565b6119c2576040516368d2bf6b60e11b815260040160405180910390fd5b8082141561195a5782600054146119d857600080fd5b611a23565b5b6040516001830192906001600160a01b038916906000907fddf252ad1be2c89b69c2b068fc378daa952ba7f163c4a11628f55a4df523b3ef908290a4808214156119de575b50600055611368565b828054611a3890611ef6565b90600052602060002090601f016020900481019282611a5a5760008555611aa0565b82601f10611a7357805160ff1916838001178555611aa0565b82800160010185558215611aa0579182015b82811115611aa0578251825591602001919060010190611a85565b50611aac929150611ab0565b5090565b5b80821115611aac5760008155600101611ab1565b600067ffffffffffffffff80841115611ae057611ae0611fa2565b604051601f8501601f19908116603f01168101908282118183101715611b0857611b08611fa2565b81604052809350858152868686011115611b2157600080fd5b858560208301376000602087830101525050509392505050565b80356001600160a01b0381168114611b5257600080fd5b919050565b80358015158114611b5257600080fd5b600060208284031215611b7957600080fd5b610fe982611b3b565b60008060408385031215611b9557600080fd5b611b9e83611b3b565b9150611bac60208401611b3b565b90509250929050565b600080600060608486031215611bca57600080fd5b611bd384611b3b565b9250611be160208501611b3b565b9150604084013590509250925092565b60008060008060808587031215611c0757600080fd5b611c1085611b3b565b9350611c1e60208601611b3b565b925060408501359150606085013567ffffffffffffffff811115611c4157600080fd5b8501601f81018713611c5257600080fd5b611c6187823560208401611ac5565b91505092959194509250565b60008060408385031215611c8057600080fd5b611c8983611b3b565b9150611bac60208401611b57565b60008060408385031215611caa57600080fd5b611cb383611b3b565b946020939093013593505050565b600060208284031215611cd357600080fd5b610fe982611b57565b600060208284031215611cee57600080fd5b8135610fe981611fb8565b600060208284031215611d0b57600080fd5b8151610fe981611fb8565b600060208284031215611d2857600080fd5b813567ffffffffffffffff811115611d3f57600080fd5b8201601f81018413611d5057600080fd5b61173e84823560208401611ac5565b600060208284031215611d7157600080fd5b5035919050565b60008151808452611d90816020860160208601611eca565b601f01601f19169290920160200192915050565b60008351611db6818460208801611eca565b835190830190611dca818360208801611eca565b64173539b7b760d91b9101908152600501949350505050565b6001600160a01b0385811682528416602082015260408101839052608060608201819052600090611e1690830184611d78565b9695505050505050565b602081526000610fe96020830184611d78565b6020808252818101527f4f776e61626c653a2063616c6c6572206973206e6f7420746865206f776e6572604082015260600190565b60008219821115611e7b57611e7b611f60565b500190565b600082611e8f57611e8f611f76565b500490565b6000816000190483118215151615611eae57611eae611f60565b500290565b600082821015611ec557611ec5611f60565b500390565b60005b83811015611ee5578181015183820152602001611ecd565b83811115610ea15750506000910152565b600181811c90821680611f0a57607f821691505b60208210811415611f2b57634e487b7160e01b600052602260045260246000fd5b50919050565b6000600019821415611f4557611f45611f60565b5060010190565b600082611f5b57611f5b611f76565b500690565b634e487b7160e01b600052601160045260246000fd5b634e487b7160e01b600052601260045260246000fd5b634e487b7160e01b600052603260045260246000fd5b634e487b7160e01b600052604160045260246000fd5b6001600160e01b0319811681146110c157600080fdfea2646970667358221220d057d185ec624e9aefb7cafa917db8c968109482985087f3d30848648bd9b03c64736f6c63430008070033",
					"opcodes": "PUSH1 0x80 PUSH1 0x40 MSTORE CALLVALUE DUP1 ISZERO PUSH3 0x11 JUMPI PUSH1 0x0 DUP1 REVERT JUMPDEST POP PUSH1 0x40 MLOAD PUSH3 0x2395 CODESIZE SUB DUP1 PUSH3 0x2395 DUP4 CODECOPY DUP2 ADD PUSH1 0x40 DUP2 SWAP1 MSTORE PUSH3 0x34 SWAP2 PUSH3 0x20B JUMP JUMPDEST PUSH1 0x40 DUP1 MLOAD DUP1 DUP3 ADD DUP3 MSTORE PUSH1 0xE DUP2 MSTORE PUSH14 0x29BA37B732B939AA37BBB72BBA33 PUSH1 0x91 SHL PUSH1 0x20 DUP1 DUP4 ADD SWAP2 DUP3 MSTORE DUP4 MLOAD DUP1 DUP6 ADD SWAP1 SWAP5 MSTORE PUSH1 0x3 DUP5 MSTORE PUSH3 0x535457 PUSH1 0xE8 SHL SWAP1 DUP5 ADD MSTORE DUP2 MLOAD SWAP2 SWAP3 SWAP2 PUSH3 0x85 SWAP2 PUSH1 0x2 SWAP2 PUSH3 0x14F JUMP JUMPDEST POP DUP1 MLOAD PUSH3 0x9B SWAP1 PUSH1 0x3 SWAP1 PUSH1 0x20 DUP5 ADD SWAP1 PUSH3 0x14F JUMP JUMPDEST POP POP PUSH1 0x1 PUSH1 0x0 SSTORE POP PUSH3 0xAE CALLER PUSH3 0xFD JUMP JUMPDEST PUSH1 0x1 PUSH1 0x9 SSTORE PUSH1 0xA DUP8 SWAP1 SSTORE PUSH1 0xB DUP7 SWAP1 SSTORE DUP5 MLOAD PUSH3 0xD2 SWAP1 PUSH1 0xC SWAP1 PUSH1 0x20 DUP9 ADD SWAP1 PUSH3 0x14F JUMP JUMPDEST POP PUSH1 0xD SWAP4 SWAP1 SWAP4 SSTORE PUSH1 0xE SWAP2 SWAP1 SWAP2 SSTORE PUSH1 0xF DUP1 SLOAD PUSH1 0xFF NOT AND SWAP2 ISZERO ISZERO SWAP2 SWAP1 SWAP2 OR SWAP1 SSTORE PUSH1 0x10 SSTORE POP PUSH3 0x381 SWAP2 POP POP JUMP JUMPDEST PUSH1 0x8 DUP1 SLOAD PUSH1 0x1 PUSH1 0x1 PUSH1 0xA0 SHL SUB DUP4 DUP2 AND PUSH1 0x1 PUSH1 0x1 PUSH1 0xA0 SHL SUB NOT DUP4 AND DUP2 OR SWAP1 SWAP4 SSTORE PUSH1 0x40 MLOAD SWAP2 AND SWAP2 SWAP1 DUP3 SWAP1 PUSH32 0x8BE0079C531659141344CD1FD0A4F28419497F9722A3DAAFE3B4186F6B6457E0 SWAP1 PUSH1 0x0 SWAP1 LOG3 POP POP JUMP JUMPDEST DUP3 DUP1 SLOAD PUSH3 0x15D SWAP1 PUSH3 0x32E JUMP JUMPDEST SWAP1 PUSH1 0x0 MSTORE PUSH1 0x20 PUSH1 0x0 KECCAK256 SWAP1 PUSH1 0x1F ADD PUSH1 0x20 SWAP1 DIV DUP2 ADD SWAP3 DUP3 PUSH3 0x181 JUMPI PUSH1 0x0 DUP6 SSTORE PUSH3 0x1CC JUMP JUMPDEST DUP3 PUSH1 0x1F LT PUSH3 0x19C JUMPI DUP1 MLOAD PUSH1 0xFF NOT AND DUP4 DUP1 ADD OR DUP6 SSTORE PUSH3 0x1CC JUMP JUMPDEST DUP3 DUP1 ADD PUSH1 0x1 ADD DUP6 SSTORE DUP3 ISZERO PUSH3 0x1CC JUMPI SWAP2 DUP3 ADD JUMPDEST DUP3 DUP2 GT ISZERO PUSH3 0x1CC JUMPI DUP3 MLOAD DUP3 SSTORE SWAP2 PUSH1 0x20 ADD SWAP2 SWAP1 PUSH1 0x1 ADD SWAP1 PUSH3 0x1AF JUMP JUMPDEST POP PUSH3 0x1DA SWAP3 SWAP2 POP PUSH3 0x1DE JUMP JUMPDEST POP SWAP1 JUMP JUMPDEST JUMPDEST DUP1 DUP3 GT ISZERO PUSH3 0x1DA JUMPI PUSH1 0x0 DUP2 SSTORE PUSH1 0x1 ADD PUSH3 0x1DF JUMP JUMPDEST DUP1 MLOAD DUP1 ISZERO ISZERO DUP2 EQ PUSH3 0x206 JUMPI PUSH1 0x0 DUP1 REVERT JUMPDEST SWAP2 SWAP1 POP JUMP JUMPDEST PUSH1 0x0 DUP1 PUSH1 0x0 DUP1 PUSH1 0x0 DUP1 PUSH1 0x0 PUSH1 0xE0 DUP9 DUP11 SUB SLT ISZERO PUSH3 0x227 JUMPI PUSH1 0x0 DUP1 REVERT JUMPDEST DUP8 MLOAD PUSH1 0x20 DUP1 DUP11 ADD MLOAD PUSH1 0x40 DUP12 ADD MLOAD SWAP3 SWAP10 POP SWAP8 POP SWAP1 PUSH1 0x1 PUSH1 0x1 PUSH1 0x40 SHL SUB DUP1 DUP3 GT ISZERO PUSH3 0x250 JUMPI PUSH1 0x0 DUP1 REVERT JUMPDEST DUP2 DUP12 ADD SWAP2 POP DUP12 PUSH1 0x1F DUP4 ADD SLT PUSH3 0x265 JUMPI PUSH1 0x0 DUP1 REVERT JUMPDEST DUP2 MLOAD DUP2 DUP2 GT ISZERO PUSH3 0x27A JUMPI PUSH3 0x27A PUSH3 0x36B JUMP JUMPDEST PUSH1 0x40 MLOAD PUSH1 0x1F DUP3 ADD PUSH1 0x1F NOT SWAP1 DUP2 AND PUSH1 0x3F ADD AND DUP2 ADD SWAP1 DUP4 DUP3 GT DUP2 DUP4 LT OR ISZERO PUSH3 0x2A5 JUMPI PUSH3 0x2A5 PUSH3 0x36B JUMP JUMPDEST DUP2 PUSH1 0x40 MSTORE DUP3 DUP2 MSTORE DUP15 DUP7 DUP5 DUP8 ADD ADD GT ISZERO PUSH3 0x2BE JUMPI PUSH1 0x0 DUP1 REVERT JUMPDEST PUSH1 0x0 SWAP4 POP JUMPDEST DUP3 DUP5 LT ISZERO PUSH3 0x2E2 JUMPI DUP5 DUP5 ADD DUP7 ADD MLOAD DUP2 DUP6 ADD DUP8 ADD MSTORE SWAP3 DUP6 ADD SWAP3 PUSH3 0x2C3 JUMP JUMPDEST DUP3 DUP5 GT ISZERO PUSH3 0x2F4 JUMPI PUSH1 0x0 DUP7 DUP5 DUP4 ADD ADD MSTORE JUMPDEST DUP1 SWAP11 POP POP POP POP POP POP POP PUSH1 0x60 DUP9 ADD MLOAD SWAP4 POP PUSH1 0x80 DUP9 ADD MLOAD SWAP3 POP PUSH3 0x319 PUSH1 0xA0 DUP10 ADD PUSH3 0x1F5 JUMP JUMPDEST SWAP2 POP PUSH1 0xC0 DUP9 ADD MLOAD SWAP1 POP SWAP3 SWAP6 SWAP9 SWAP2 SWAP5 SWAP8 POP SWAP3 SWAP6 POP JUMP JUMPDEST PUSH1 0x1 DUP2 DUP2 SHR SWAP1 DUP3 AND DUP1 PUSH3 0x343 JUMPI PUSH1 0x7F DUP3 AND SWAP2 POP JUMPDEST PUSH1 0x20 DUP3 LT DUP2 EQ ISZERO PUSH3 0x365 JUMPI PUSH4 0x4E487B71 PUSH1 0xE0 SHL PUSH1 0x0 MSTORE PUSH1 0x22 PUSH1 0x4 MSTORE PUSH1 0x24 PUSH1 0x0 REVERT JUMPDEST POP SWAP2 SWAP1 POP JUMP JUMPDEST PUSH4 0x4E487B71 PUSH1 0xE0 SHL PUSH1 0x0 MSTORE PUSH1 0x41 PUSH1 0x4 MSTORE PUSH1 0x24 PUSH1 0x0 REVERT JUMPDEST PUSH2 0x2004 DUP1 PUSH3 0x391 PUSH1 0x0 CODECOPY PUSH1 0x0 RETURN INVALID PUSH1 0x80 PUSH1 0x40 MSTORE PUSH1 0x4 CALLDATASIZE LT PUSH2 0x204 JUMPI PUSH1 0x0 CALLDATALOAD PUSH1 0xE0 SHR DUP1 PUSH4 0x841718A6 GT PUSH2 0x118 JUMPI DUP1 PUSH4 0xC4E9374D GT PUSH2 0xA0 JUMPI DUP1 PUSH4 0xE1B5A272 GT PUSH2 0x6F JUMPI DUP1 PUSH4 0xE1B5A272 EQ PUSH2 0x5A2 JUMPI DUP1 PUSH4 0xE985E9C5 EQ PUSH2 0x5B8 JUMPI DUP1 PUSH4 0xEAE9C95D EQ PUSH2 0x601 JUMPI DUP1 PUSH4 0xF2FDE38B EQ PUSH2 0x617 JUMPI DUP1 PUSH4 0xFDB4953A EQ PUSH2 0x637 JUMPI PUSH1 0x0 DUP1 REVERT JUMPDEST DUP1 PUSH4 0xC4E9374D EQ PUSH2 0x537 JUMPI DUP1 PUSH4 0xC87B56DD EQ PUSH2 0x557 JUMPI DUP1 PUSH4 0xC8ECA562 EQ PUSH2 0x577 JUMPI DUP1 PUSH4 0xD111515D EQ PUSH2 0x58D JUMPI PUSH1 0x0 DUP1 REVERT JUMPDEST DUP1 PUSH4 0x95D89B41 GT PUSH2 0xE7 JUMPI DUP1 PUSH4 0x95D89B41 EQ PUSH2 0x4AF JUMPI DUP1 PUSH4 0xA0712D68 EQ PUSH2 0x4C4 JUMPI DUP1 PUSH4 0xA22CB465 EQ PUSH2 0x4D7 JUMPI DUP1 PUSH4 0xB0551AC4 EQ PUSH2 0x4F7 JUMPI DUP1 PUSH4 0xB88D4FDE EQ PUSH2 0x517 JUMPI PUSH1 0x0 DUP1 REVERT JUMPDEST DUP1 PUSH4 0x841718A6 EQ PUSH2 0x431 JUMPI DUP1 PUSH4 0x8B85E43D EQ PUSH2 0x451 JUMPI DUP1 PUSH4 0x8DA5CB5B EQ PUSH2 0x471 JUMPI DUP1 PUSH4 0x91B7F5ED EQ PUSH2 0x48F JUMPI PUSH1 0x0 DUP1 REVERT JUMPDEST DUP1 PUSH4 0x408CBF94 GT PUSH2 0x19B JUMPI DUP1 PUSH4 0x616CDB1E GT PUSH2 0x16A JUMPI DUP1 PUSH4 0x616CDB1E EQ PUSH2 0x3A2 JUMPI DUP1 PUSH4 0x6352211E EQ PUSH2 0x3C2 JUMPI DUP1 PUSH4 0x70A08231 EQ PUSH2 0x3E2 JUMPI DUP1 PUSH4 0x715018A6 EQ PUSH2 0x402 JUMPI DUP1 PUSH4 0x76D02B71 EQ PUSH2 0x417 JUMPI PUSH1 0x0 DUP1 REVERT JUMPDEST DUP1 PUSH4 0x408CBF94 EQ PUSH2 0x32C JUMPI DUP1 PUSH4 0x42842E0E EQ PUSH2 0x34C JUMPI DUP1 PUSH4 0x5381F6E2 EQ PUSH2 0x36C JUMPI DUP1 PUSH4 0x55F804B3 EQ PUSH2 0x382 JUMPI PUSH1 0x0 DUP1 REVERT JUMPDEST DUP1 PUSH4 0x18160DDD GT PUSH2 0x1D7 JUMPI DUP1 PUSH4 0x18160DDD EQ PUSH2 0x2BA JUMPI DUP1 PUSH4 0x23B872DD EQ PUSH2 0x2E1 JUMPI DUP1 PUSH4 0x28CB250F EQ PUSH2 0x301 JUMPI DUP1 PUSH4 0x3CCFD60B EQ PUSH2 0x317 JUMPI PUSH1 0x0 DUP1 REVERT JUMPDEST DUP1 PUSH4 0x1FFC9A7 EQ PUSH2 0x209 JUMPI DUP1 PUSH4 0x6FDDE03 EQ PUSH2 0x23E JUMPI DUP1 PUSH4 0x81812FC EQ PUSH2 0x260 JUMPI DUP1 PUSH4 0x95EA7B3 EQ PUSH2 0x298 JUMPI JUMPDEST PUSH1 0x0 DUP1 REVERT JUMPDEST CALLVALUE DUP1 ISZERO PUSH2 0x215 JUMPI PUSH1 0x0 DUP1 REVERT JUMPDEST POP PUSH2 0x229 PUSH2 0x224 CALLDATASIZE PUSH1 0x4 PUSH2 0x1CDC JUMP JUMPDEST PUSH2 0x651 JUMP JUMPDEST PUSH1 0x40 MLOAD SWAP1 ISZERO ISZERO DUP2 MSTORE PUSH1 0x20 ADD JUMPDEST PUSH1 0x40 MLOAD DUP1 SWAP2 SUB SWAP1 RETURN JUMPDEST CALLVALUE DUP1 ISZERO PUSH2 0x24A JUMPI PUSH1 0x0 DUP1 REVERT JUMPDEST POP PUSH2 0x253 PUSH2 0x6A3 JUMP JUMPDEST PUSH1 0x40 MLOAD PUSH2 0x235 SWAP2 SWAP1 PUSH2 0x1E20 JUMP JUMPDEST CALLVALUE DUP1 ISZERO PUSH2 0x26C JUMPI PUSH1 0x0 DUP1 REVERT JUMPDEST POP PUSH2 0x280 PUSH2 0x27B CALLDATASIZE PUSH1 0x4 PUSH2 0x1D5F JUMP JUMPDEST PUSH2 0x735 JUMP JUMPDEST PUSH1 0x40 MLOAD PUSH1 0x1 PUSH1 0x1 PUSH1 0xA0 SHL SUB SWAP1 SWAP2 AND DUP2 MSTORE PUSH1 0x20 ADD PUSH2 0x235 JUMP JUMPDEST CALLVALUE DUP1 ISZERO PUSH2 0x2A4 JUMPI PUSH1 0x0 DUP1 REVERT JUMPDEST POP PUSH2 0x2B8 PUSH2 0x2B3 CALLDATASIZE PUSH1 0x4 PUSH2 0x1C97 JUMP JUMPDEST PUSH2 0x779 JUMP JUMPDEST STOP JUMPDEST CALLVALUE DUP1 ISZERO PUSH2 0x2C6 JUMPI PUSH1 0x0 DUP1 REVERT JUMPDEST POP PUSH1 0x1 SLOAD PUSH1 0x0 SLOAD SUB PUSH1 0x0 NOT ADD JUMPDEST PUSH1 0x40 MLOAD SWAP1 DUP2 MSTORE PUSH1 0x20 ADD PUSH2 0x235 JUMP JUMPDEST CALLVALUE DUP1 ISZERO PUSH2 0x2ED JUMPI PUSH1 0x0 DUP1 REVERT JUMPDEST POP PUSH2 0x2B8 PUSH2 0x2FC CALLDATASIZE PUSH1 0x4 PUSH2 0x1BB5 JUMP JUMPDEST PUSH2 0x807 JUMP JUMPDEST CALLVALUE DUP1 ISZERO PUSH2 0x30D JUMPI PUSH1 0x0 DUP1 REVERT JUMPDEST POP PUSH2 0x2D3 PUSH1 0xE SLOAD DUP2 JUMP JUMPDEST CALLVALUE DUP1 ISZERO PUSH2 0x323 JUMPI PUSH1 0x0 DUP1 REVERT JUMPDEST POP PUSH2 0x2B8 PUSH2 0x812 JUMP JUMPDEST CALLVALUE DUP1 ISZERO PUSH2 0x338 JUMPI PUSH1 0x0 DUP1 REVERT JUMPDEST POP PUSH2 0x2B8 PUSH2 0x347 CALLDATASIZE PUSH1 0x4 PUSH2 0x1C97 JUMP JUMPDEST PUSH2 0x8C4 JUMP JUMPDEST CALLVALUE DUP1 ISZERO PUSH2 0x358 JUMPI PUSH1 0x0 DUP1 REVERT JUMPDEST POP PUSH2 0x2B8 PUSH2 0x367 CALLDATASIZE PUSH1 0x4 PUSH2 0x1BB5 JUMP JUMPDEST PUSH2 0x9A4 JUMP JUMPDEST CALLVALUE DUP1 ISZERO PUSH2 0x378 JUMPI PUSH1 0x0 DUP1 REVERT JUMPDEST POP PUSH2 0x2D3 PUSH1 0xD SLOAD DUP2 JUMP JUMPDEST CALLVALUE DUP1 ISZERO PUSH2 0x38E JUMPI PUSH1 0x0 DUP1 REVERT JUMPDEST POP PUSH2 0x2B8 PUSH2 0x39D CALLDATASIZE PUSH1 0x4 PUSH2 0x1D16 JUMP JUMPDEST PUSH2 0x9BF JUMP JUMPDEST CALLVALUE DUP1 ISZERO PUSH2 0x3AE JUMPI PUSH1 0x0 DUP1 REVERT JUMPDEST POP PUSH2 0x2B8 PUSH2 0x3BD CALLDATASIZE PUSH1 0x4 PUSH2 0x1D5F JUMP JUMPDEST PUSH2 0xA46 JUMP JUMPDEST CALLVALUE DUP1 ISZERO PUSH2 0x3CE JUMPI PUSH1 0x0 DUP1 REVERT JUMPDEST POP PUSH2 0x280 PUSH2 0x3DD CALLDATASIZE PUSH1 0x4 PUSH2 0x1D5F JUMP JUMPDEST PUSH2 0xA75 JUMP JUMPDEST CALLVALUE DUP1 ISZERO PUSH2 0x3EE JUMPI PUSH1 0x0 DUP1 REVERT JUMPDEST POP PUSH2 0x2D3 PUSH2 0x3FD CALLDATASIZE PUSH1 0x4 PUSH2 0x1B67 JUMP JUMPDEST PUSH2 0xA87 JUMP JUMPDEST CALLVALUE DUP1 ISZERO PUSH2 0x40E JUMPI PUSH1 0x0 DUP1 REVERT JUMPDEST POP PUSH2 0x2B8 PUSH2 0xAD6 JUMP JUMPDEST CALLVALUE DUP1 ISZERO PUSH2 0x423 JUMPI PUSH1 0x0 DUP1 REVERT JUMPDEST POP PUSH1 0xF SLOAD PUSH2 0x229 SWAP1 PUSH1 0xFF AND DUP2 JUMP JUMPDEST CALLVALUE DUP1 ISZERO PUSH2 0x43D JUMPI PUSH1 0x0 DUP1 REVERT JUMPDEST POP PUSH2 0x2B8 PUSH2 0x44C CALLDATASIZE PUSH1 0x4 PUSH2 0x1CC1 JUMP JUMPDEST PUSH2 0xB0C JUMP JUMPDEST CALLVALUE DUP1 ISZERO PUSH2 0x45D JUMPI PUSH1 0x0 DUP1 REVERT JUMPDEST POP PUSH2 0x2B8 PUSH2 0x46C CALLDATASIZE PUSH1 0x4 PUSH2 0x1D5F JUMP JUMPDEST PUSH2 0xB49 JUMP JUMPDEST CALLVALUE DUP1 ISZERO PUSH2 0x47D JUMPI PUSH1 0x0 DUP1 REVERT JUMPDEST POP PUSH1 0x8 SLOAD PUSH1 0x1 PUSH1 0x1 PUSH1 0xA0 SHL SUB AND PUSH2 0x280 JUMP JUMPDEST CALLVALUE DUP1 ISZERO PUSH2 0x49B JUMPI PUSH1 0x0 DUP1 REVERT JUMPDEST POP PUSH2 0x2B8 PUSH2 0x4AA CALLDATASIZE PUSH1 0x4 PUSH2 0x1D5F JUMP JUMPDEST PUSH2 0xB78 JUMP JUMPDEST CALLVALUE DUP1 ISZERO PUSH2 0x4BB JUMPI PUSH1 0x0 DUP1 REVERT JUMPDEST POP PUSH2 0x253 PUSH2 0xBA7 JUMP JUMPDEST PUSH2 0x2B8 PUSH2 0x4D2 CALLDATASIZE PUSH1 0x4 PUSH2 0x1D5F JUMP JUMPDEST PUSH2 0xBB6 JUMP JUMPDEST CALLVALUE DUP1 ISZERO PUSH2 0x4E3 JUMPI PUSH1 0x0 DUP1 REVERT JUMPDEST POP PUSH2 0x2B8 PUSH2 0x4F2 CALLDATASIZE PUSH1 0x4 PUSH2 0x1C6D JUMP JUMPDEST PUSH2 0xD91 JUMP JUMPDEST CALLVALUE DUP1 ISZERO PUSH2 0x503 JUMPI PUSH1 0x0 DUP1 REVERT JUMPDEST POP PUSH2 0x2B8 PUSH2 0x512 CALLDATASIZE PUSH1 0x4 PUSH2 0x1D5F JUMP JUMPDEST PUSH2 0xE27 JUMP JUMPDEST CALLVALUE DUP1 ISZERO PUSH2 0x523 JUMPI PUSH1 0x0 DUP1 REVERT JUMPDEST POP PUSH2 0x2B8 PUSH2 0x532 CALLDATASIZE PUSH1 0x4 PUSH2 0x1BF1 JUMP JUMPDEST PUSH2 0xE56 JUMP JUMPDEST CALLVALUE DUP1 ISZERO PUSH2 0x543 JUMPI PUSH1 0x0 DUP1 REVERT JUMPDEST POP PUSH2 0x2B8 PUSH2 0x552 CALLDATASIZE PUSH1 0x4 PUSH2 0x1D5F JUMP JUMPDEST PUSH2 0xEA7 JUMP JUMPDEST CALLVALUE DUP1 ISZERO PUSH2 0x563 JUMPI PUSH1 0x0 DUP1 REVERT JUMPDEST POP PUSH2 0x253 PUSH2 0x572 CALLDATASIZE PUSH1 0x4 PUSH2 0x1D5F JUMP JUMPDEST PUSH2 0xF6B JUMP JUMPDEST CALLVALUE DUP1 ISZERO PUSH2 0x583 JUMPI PUSH1 0x0 DUP1 REVERT JUMPDEST POP PUSH2 0x2D3 PUSH1 0xA SLOAD DUP2 JUMP JUMPDEST CALLVALUE DUP1 ISZERO PUSH2 0x599 JUMPI PUSH1 0x0 DUP1 REVERT JUMPDEST POP PUSH2 0x2B8 PUSH2 0xFF0 JUMP JUMPDEST CALLVALUE DUP1 ISZERO PUSH2 0x5AE JUMPI PUSH1 0x0 DUP1 REVERT JUMPDEST POP PUSH2 0x2D3 PUSH1 0x10 SLOAD DUP2 JUMP JUMPDEST CALLVALUE DUP1 ISZERO PUSH2 0x5C4 JUMPI PUSH1 0x0 DUP1 REVERT JUMPDEST POP PUSH2 0x229 PUSH2 0x5D3 CALLDATASIZE PUSH1 0x4 PUSH2 0x1B82 JUMP JUMPDEST PUSH1 0x1 PUSH1 0x1 PUSH1 0xA0 SHL SUB SWAP2 DUP3 AND PUSH1 0x0 SWAP1 DUP2 MSTORE PUSH1 0x7 PUSH1 0x20 SWAP1 DUP2 MSTORE PUSH1 0x40 DUP1 DUP4 KECCAK256 SWAP4 SWAP1 SWAP5 AND DUP3 MSTORE SWAP2 SWAP1 SWAP2 MSTORE KECCAK256 SLOAD PUSH1 0xFF AND SWAP1 JUMP JUMPDEST CALLVALUE DUP1 ISZERO PUSH2 0x60D JUMPI PUSH1 0x0 DUP1 REVERT JUMPDEST POP PUSH2 0x2D3 PUSH1 0xB SLOAD DUP2 JUMP JUMPDEST CALLVALUE DUP1 ISZERO PUSH2 0x623 JUMPI PUSH1 0x0 DUP1 REVERT JUMPDEST POP PUSH2 0x2B8 PUSH2 0x632 CALLDATASIZE PUSH1 0x4 PUSH2 0x1B67 JUMP JUMPDEST PUSH2 0x1029 JUMP JUMPDEST CALLVALUE DUP1 ISZERO PUSH2 0x643 JUMPI PUSH1 0x0 DUP1 REVERT JUMPDEST POP PUSH1 0x11 SLOAD PUSH2 0x229 SWAP1 PUSH1 0xFF AND DUP2 JUMP JUMPDEST PUSH1 0x0 PUSH1 0x1 PUSH1 0x1 PUSH1 0xE0 SHL SUB NOT DUP3 AND PUSH4 0x80AC58CD PUSH1 0xE0 SHL EQ DUP1 PUSH2 0x682 JUMPI POP PUSH1 0x1 PUSH1 0x1 PUSH1 0xE0 SHL SUB NOT DUP3 AND PUSH4 0x5B5E139F PUSH1 0xE0 SHL EQ JUMPDEST DUP1 PUSH2 0x69D JUMPI POP PUSH4 0x1FFC9A7 PUSH1 0xE0 SHL PUSH1 0x1 PUSH1 0x1 PUSH1 0xE0 SHL SUB NOT DUP4 AND EQ JUMPDEST SWAP3 SWAP2 POP POP JUMP JUMPDEST PUSH1 0x60 PUSH1 0x2 DUP1 SLOAD PUSH2 0x6B2 SWAP1 PUSH2 0x1EF6 JUMP JUMPDEST DUP1 PUSH1 0x1F ADD PUSH1 0x20 DUP1 SWAP2 DIV MUL PUSH1 0x20 ADD PUSH1 0x40 MLOAD SWAP1 DUP2 ADD PUSH1 0x40 MSTORE DUP1 SWAP3 SWAP2 SWAP1 DUP2 DUP2 MSTORE PUSH1 0x20 ADD DUP3 DUP1 SLOAD PUSH2 0x6DE SWAP1 PUSH2 0x1EF6 JUMP JUMPDEST DUP1 ISZERO PUSH2 0x72B JUMPI DUP1 PUSH1 0x1F LT PUSH2 0x700 JUMPI PUSH2 0x100 DUP1 DUP4 SLOAD DIV MUL DUP4 MSTORE SWAP2 PUSH1 0x20 ADD SWAP2 PUSH2 0x72B JUMP JUMPDEST DUP3 ADD SWAP2 SWAP1 PUSH1 0x0 MSTORE PUSH1 0x20 PUSH1 0x0 KECCAK256 SWAP1 JUMPDEST DUP2 SLOAD DUP2 MSTORE SWAP1 PUSH1 0x1 ADD SWAP1 PUSH1 0x20 ADD DUP1 DUP4 GT PUSH2 0x70E JUMPI DUP3 SWAP1 SUB PUSH1 0x1F AND DUP3 ADD SWAP2 JUMPDEST POP POP POP POP POP SWAP1 POP SWAP1 JUMP JUMPDEST PUSH1 0x0 PUSH2 0x740 DUP3 PUSH2 0x10C4 JUMP JUMPDEST PUSH2 0x75D JUMPI PUSH1 0x40 MLOAD PUSH4 0x33D1C039 PUSH1 0xE2 SHL DUP2 MSTORE PUSH1 0x4 ADD PUSH1 0x40 MLOAD DUP1 SWAP2 SUB SWAP1 REVERT JUMPDEST POP PUSH1 0x0 SWAP1 DUP2 MSTORE PUSH1 0x6 PUSH1 0x20 MSTORE PUSH1 0x40 SWAP1 KECCAK256 SLOAD PUSH1 0x1 PUSH1 0x1 PUSH1 0xA0 SHL SUB AND SWAP1 JUMP JUMPDEST PUSH1 0x0 PUSH2 0x784 DUP3 PUSH2 0xA75 JUMP JUMPDEST SWAP1 POP DUP1 PUSH1 0x1 PUSH1 0x1 PUSH1 0xA0 SHL SUB AND DUP4 PUSH1 0x1 PUSH1 0x1 PUSH1 0xA0 SHL SUB AND EQ ISZERO PUSH2 0x7B9 JUMPI PUSH1 0x40 MLOAD PUSH4 0x250FDEE3 PUSH1 0xE2 SHL DUP2 MSTORE PUSH1 0x4 ADD PUSH1 0x40 MLOAD DUP1 SWAP2 SUB SWAP1 REVERT JUMPDEST CALLER PUSH1 0x1 PUSH1 0x1 PUSH1 0xA0 SHL SUB DUP3 AND EQ DUP1 ISZERO SWAP1 PUSH2 0x7D9 JUMPI POP PUSH2 0x7D7 DUP2 CALLER PUSH2 0x5D3 JUMP JUMPDEST ISZERO JUMPDEST ISZERO PUSH2 0x7F7 JUMPI PUSH1 0x40 MLOAD PUSH4 0x67D9DCA1 PUSH1 0xE1 SHL DUP2 MSTORE PUSH1 0x4 ADD PUSH1 0x40 MLOAD DUP1 SWAP2 SUB SWAP1 REVERT JUMPDEST PUSH2 0x802 DUP4 DUP4 DUP4 PUSH2 0x10FD JUMP JUMPDEST POP POP POP JUMP JUMPDEST PUSH2 0x802 DUP4 DUP4 DUP4 PUSH2 0x1159 JUMP JUMPDEST PUSH1 0x8 SLOAD PUSH1 0x1 PUSH1 0x1 PUSH1 0xA0 SHL SUB AND CALLER EQ PUSH2 0x845 JUMPI PUSH1 0x40 MLOAD PUSH3 0x461BCD PUSH1 0xE5 SHL DUP2 MSTORE PUSH1 0x4 ADD PUSH2 0x83C SWAP1 PUSH2 0x1E33 JUMP JUMPDEST PUSH1 0x40 MLOAD DUP1 SWAP2 SUB SWAP1 REVERT JUMPDEST PUSH1 0x2 PUSH1 0x9 SLOAD EQ ISZERO PUSH2 0x898 JUMPI PUSH1 0x40 MLOAD PUSH3 0x461BCD PUSH1 0xE5 SHL DUP2 MSTORE PUSH1 0x20 PUSH1 0x4 DUP3 ADD MSTORE PUSH1 0x1F PUSH1 0x24 DUP3 ADD MSTORE PUSH32 0x5265656E7472616E637947756172643A207265656E7472616E742063616C6C00 PUSH1 0x44 DUP3 ADD MSTORE PUSH1 0x64 ADD PUSH2 0x83C JUMP JUMPDEST PUSH1 0x2 PUSH1 0x9 SSTORE SELFBALANCE PUSH2 0x8BC PUSH20 0x2E45A3053639CE97F43B4761CA9332EA7B5ADB8A DUP3 PUSH2 0x136F JUMP JUMPDEST POP PUSH1 0x1 PUSH1 0x9 SSTORE JUMP JUMPDEST DUP1 PUSH1 0x0 DUP2 GT DUP1 ISZERO PUSH2 0x8D7 JUMPI POP PUSH1 0xE SLOAD DUP2 GT ISZERO JUMPDEST PUSH2 0x91A JUMPI PUSH1 0x40 MLOAD PUSH3 0x461BCD PUSH1 0xE5 SHL DUP2 MSTORE PUSH1 0x20 PUSH1 0x4 DUP3 ADD MSTORE PUSH1 0x14 PUSH1 0x24 DUP3 ADD MSTORE PUSH20 0x496E76616C6964206D696E7420616D6F756E7421 PUSH1 0x60 SHL PUSH1 0x44 DUP3 ADD MSTORE PUSH1 0x64 ADD PUSH2 0x83C JUMP JUMPDEST PUSH1 0xB SLOAD DUP2 PUSH1 0x0 SLOAD PUSH2 0x92B SWAP2 SWAP1 PUSH2 0x1E68 JUMP JUMPDEST GT ISZERO PUSH2 0x970 JUMPI PUSH1 0x40 MLOAD PUSH3 0x461BCD PUSH1 0xE5 SHL DUP2 MSTORE PUSH1 0x20 PUSH1 0x4 DUP3 ADD MSTORE PUSH1 0x14 PUSH1 0x24 DUP3 ADD MSTORE PUSH20 0x4D617820737570706C7920657863656564656421 PUSH1 0x60 SHL PUSH1 0x44 DUP3 ADD MSTORE PUSH1 0x64 ADD PUSH2 0x83C JUMP JUMPDEST PUSH1 0x8 SLOAD PUSH1 0x1 PUSH1 0x1 PUSH1 0xA0 SHL SUB AND CALLER EQ PUSH2 0x99A JUMPI PUSH1 0x40 MLOAD PUSH3 0x461BCD PUSH1 0xE5 SHL DUP2 MSTORE PUSH1 0x4 ADD PUSH2 0x83C SWAP1 PUSH2 0x1E33 JUMP JUMPDEST PUSH2 0x802 DUP4 DUP4 PUSH2 0x1488 JUMP JUMPDEST PUSH2 0x802 DUP4 DUP4 DUP4 PUSH1 0x40 MLOAD DUP1 PUSH1 0x20 ADD PUSH1 0x40 MSTORE DUP1 PUSH1 0x0 DUP2 MSTORE POP PUSH2 0xE56 JUMP JUMPDEST PUSH1 0x8 SLOAD PUSH1 0x1 PUSH1 0x1 PUSH1 0xA0 SHL SUB AND CALLER EQ PUSH2 0x9E9 JUMPI PUSH1 0x40 MLOAD PUSH3 0x461BCD PUSH1 0xE5 SHL DUP2 MSTORE PUSH1 0x4 ADD PUSH2 0x83C SWAP1 PUSH2 0x1E33 JUMP JUMPDEST PUSH1 0x11 SLOAD PUSH1 0xFF AND ISZERO PUSH2 0xA2F JUMPI PUSH1 0x40 MLOAD PUSH3 0x461BCD PUSH1 0xE5 SHL DUP2 MSTORE PUSH1 0x20 PUSH1 0x4 DUP3 ADD MSTORE PUSH1 0x10 PUSH1 0x24 DUP3 ADD MSTORE PUSH16 0x4D657461646174612066726F7A656E21 PUSH1 0x80 SHL PUSH1 0x44 DUP3 ADD MSTORE PUSH1 0x64 ADD PUSH2 0x83C JUMP JUMPDEST DUP1 MLOAD PUSH2 0xA42 SWAP1 PUSH1 0xC SWAP1 PUSH1 0x20 DUP5 ADD SWAP1 PUSH2 0x1A2C JUMP JUMPDEST POP POP JUMP JUMPDEST PUSH1 0x8 SLOAD PUSH1 0x1 PUSH1 0x1 PUSH1 0xA0 SHL SUB AND CALLER EQ PUSH2 0xA70 JUMPI PUSH1 0x40 MLOAD PUSH3 0x461BCD PUSH1 0xE5 SHL DUP2 MSTORE PUSH1 0x4 ADD PUSH2 0x83C SWAP1 PUSH2 0x1E33 JUMP JUMPDEST PUSH1 0xE SSTORE JUMP JUMPDEST PUSH1 0x0 PUSH2 0xA80 DUP3 PUSH2 0x14A2 JUMP JUMPDEST MLOAD SWAP3 SWAP2 POP POP JUMP JUMPDEST PUSH1 0x0 PUSH1 0x1 PUSH1 0x1 PUSH1 0xA0 SHL SUB DUP3 AND PUSH2 0xAB0 JUMPI PUSH1 0x40 MLOAD PUSH4 0x23D3AD81 PUSH1 0xE2 SHL DUP2 MSTORE PUSH1 0x4 ADD PUSH1 0x40 MLOAD DUP1 SWAP2 SUB SWAP1 REVERT JUMPDEST POP PUSH1 0x1 PUSH1 0x1 PUSH1 0xA0 SHL SUB AND PUSH1 0x0 SWAP1 DUP2 MSTORE PUSH1 0x5 PUSH1 0x20 MSTORE PUSH1 0x40 SWAP1 KECCAK256 SLOAD PUSH8 0xFFFFFFFFFFFFFFFF AND SWAP1 JUMP JUMPDEST PUSH1 0x8 SLOAD PUSH1 0x1 PUSH1 0x1 PUSH1 0xA0 SHL SUB AND CALLER EQ PUSH2 0xB00 JUMPI PUSH1 0x40 MLOAD PUSH3 0x461BCD PUSH1 0xE5 SHL DUP2 MSTORE PUSH1 0x4 ADD PUSH2 0x83C SWAP1 PUSH2 0x1E33 JUMP JUMPDEST PUSH2 0xB0A PUSH1 0x0 PUSH2 0x15CB JUMP JUMPDEST JUMP JUMPDEST PUSH1 0x8 SLOAD PUSH1 0x1 PUSH1 0x1 PUSH1 0xA0 SHL SUB AND CALLER EQ PUSH2 0xB36 JUMPI PUSH1 0x40 MLOAD PUSH3 0x461BCD PUSH1 0xE5 SHL DUP2 MSTORE PUSH1 0x4 ADD PUSH2 0x83C SWAP1 PUSH2 0x1E33 JUMP JUMPDEST PUSH1 0xF DUP1 SLOAD PUSH1 0xFF NOT AND SWAP2 ISZERO ISZERO SWAP2 SWAP1 SWAP2 OR SWAP1 SSTORE JUMP JUMPDEST PUSH1 0x8 SLOAD PUSH1 0x1 PUSH1 0x1 PUSH1 0xA0 SHL SUB AND CALLER EQ PUSH2 0xB73 JUMPI PUSH1 0x40 MLOAD PUSH3 0x461BCD PUSH1 0xE5 SHL DUP2 MSTORE PUSH1 0x4 ADD PUSH2 0x83C SWAP1 PUSH2 0x1E33 JUMP JUMPDEST PUSH1 0x10 SSTORE JUMP JUMPDEST PUSH1 0x8 SLOAD PUSH1 0x1 PUSH1 0x1 PUSH1 0xA0 SHL SUB AND CALLER EQ PUSH2 0xBA2 JUMPI PUSH1 0x40 MLOAD PUSH3 0x461BCD PUSH1 0xE5 SHL DUP2 MSTORE PUSH1 0x4 ADD PUSH2 0x83C SWAP1 PUSH2 0x1E33 JUMP JUMPDEST PUSH1 0xA SSTORE JUMP JUMPDEST PUSH1 0x60 PUSH1 0x3 DUP1 SLOAD PUSH2 0x6B2 SWAP1 PUSH2 0x1EF6 JUMP JUMPDEST DUP1 PUSH1 0x0 DUP2 GT DUP1 ISZERO PUSH2 0xBC9 JUMPI POP PUSH1 0xE SLOAD DUP2 GT ISZERO JUMPDEST PUSH2 0xC0C JUMPI PUSH1 0x40 MLOAD PUSH3 0x461BCD PUSH1 0xE5 SHL DUP2 MSTORE PUSH1 0x20 PUSH1 0x4 DUP3 ADD MSTORE PUSH1 0x14 PUSH1 0x24 DUP3 ADD MSTORE PUSH20 0x496E76616C6964206D696E7420616D6F756E7421 PUSH1 0x60 SHL PUSH1 0x44 DUP3 ADD MSTORE PUSH1 0x64 ADD PUSH2 0x83C JUMP JUMPDEST PUSH1 0xB SLOAD DUP2 PUSH1 0x0 SLOAD PUSH2 0xC1D SWAP2 SWAP1 PUSH2 0x1E68 JUMP JUMPDEST GT ISZERO PUSH2 0xC62 JUMPI PUSH1 0x40 MLOAD PUSH3 0x461BCD PUSH1 0xE5 SHL DUP2 MSTORE PUSH1 0x20 PUSH1 0x4 DUP3 ADD MSTORE PUSH1 0x14 PUSH1 0x24 DUP3 ADD MSTORE PUSH20 0x4D617820737570706C7920657863656564656421 PUSH1 0x60 SHL PUSH1 0x44 DUP3 ADD MSTORE PUSH1 0x64 ADD PUSH2 0x83C JUMP JUMPDEST PUSH1 0xF SLOAD PUSH1 0xFF AND PUSH2 0xCAA JUMPI PUSH1 0x40 MLOAD PUSH3 0x461BCD PUSH1 0xE5 SHL DUP2 MSTORE PUSH1 0x20 PUSH1 0x4 DUP3 ADD MSTORE PUSH1 0x13 PUSH1 0x24 DUP3 ADD MSTORE PUSH19 0x53616C65206973206E6F742061637469766521 PUSH1 0x68 SHL PUSH1 0x44 DUP3 ADD MSTORE PUSH1 0x64 ADD PUSH2 0x83C JUMP JUMPDEST PUSH1 0x0 DUP3 PUSH1 0xA SLOAD PUSH2 0xCBA SWAP2 SWAP1 PUSH2 0x1E94 JUMP JUMPDEST SWAP1 POP PUSH1 0x10 SLOAD PUSH1 0x0 SLOAD LT ISZERO PUSH2 0xD41 JUMPI CALLER PUSH1 0x0 SWAP1 DUP2 MSTORE PUSH1 0x12 PUSH1 0x20 MSTORE PUSH1 0x40 DUP2 KECCAK256 SLOAD PUSH1 0xD SLOAD PUSH2 0xCE5 SWAP2 SWAP1 PUSH2 0x1EB3 JUMP JUMPDEST SWAP1 POP DUP1 ISZERO PUSH2 0xD3F JUMPI DUP1 DUP5 LT PUSH2 0xD1C JUMPI PUSH1 0xA SLOAD PUSH2 0xD01 SWAP1 DUP3 PUSH2 0x1E94 JUMP JUMPDEST PUSH2 0xD0B SWAP1 DUP4 PUSH2 0x1EB3 JUMP JUMPDEST SWAP2 POP PUSH2 0xD17 CALLER DUP3 PUSH2 0x161D JUMP JUMPDEST PUSH2 0xD3F JUMP JUMPDEST PUSH1 0xA SLOAD PUSH2 0xD29 SWAP1 DUP6 PUSH2 0x1E94 JUMP JUMPDEST PUSH2 0xD33 SWAP1 DUP4 PUSH2 0x1EB3 JUMP JUMPDEST SWAP2 POP PUSH2 0xD3F CALLER DUP6 PUSH2 0x161D JUMP JUMPDEST POP JUMPDEST DUP1 CALLVALUE LT ISZERO PUSH2 0xD87 JUMPI PUSH1 0x40 MLOAD PUSH3 0x461BCD PUSH1 0xE5 SHL DUP2 MSTORE PUSH1 0x20 PUSH1 0x4 DUP3 ADD MSTORE PUSH1 0x13 PUSH1 0x24 DUP3 ADD MSTORE PUSH19 0x496E73756666696369656E742066756E647321 PUSH1 0x68 SHL PUSH1 0x44 DUP3 ADD MSTORE PUSH1 0x64 ADD PUSH2 0x83C JUMP JUMPDEST PUSH2 0x802 CALLER DUP5 PUSH2 0x1488 JUMP JUMPDEST PUSH1 0x1 PUSH1 0x1 PUSH1 0xA0 SHL SUB DUP3 AND CALLER EQ ISZERO PUSH2 0xDBB JUMPI PUSH1 0x40 MLOAD PUSH4 0xB06307DB PUSH1 0xE0 SHL DUP2 MSTORE PUSH1 0x4 ADD PUSH1 0x40 MLOAD DUP1 SWAP2 SUB SWAP1 REVERT JUMPDEST CALLER PUSH1 0x0 DUP2 DUP2 MSTORE PUSH1 0x7 PUSH1 0x20 SWAP1 DUP2 MSTORE PUSH1 0x40 DUP1 DUP4 KECCAK256 PUSH1 0x1 PUSH1 0x1 PUSH1 0xA0 SHL SUB DUP8 AND DUP1 DUP6 MSTORE SWAP1 DUP4 MSTORE SWAP3 DUP2 SWAP1 KECCAK256 DUP1 SLOAD PUSH1 0xFF NOT AND DUP7 ISZERO ISZERO SWAP1 DUP2 OR SWAP1 SWAP2 SSTORE SWAP1 MLOAD SWAP1 DUP2 MSTORE SWAP2 SWAP3 SWAP2 PUSH32 0x17307EAB39AB6107E8899845AD3D59BD9653F200F220920489CA2B5937696C31 SWAP2 ADD PUSH1 0x40 MLOAD DUP1 SWAP2 SUB SWAP1 LOG3 POP POP JUMP JUMPDEST PUSH1 0x8 SLOAD PUSH1 0x1 PUSH1 0x1 PUSH1 0xA0 SHL SUB AND CALLER EQ PUSH2 0xE51 JUMPI PUSH1 0x40 MLOAD PUSH3 0x461BCD PUSH1 0xE5 SHL DUP2 MSTORE PUSH1 0x4 ADD PUSH2 0x83C SWAP1 PUSH2 0x1E33 JUMP JUMPDEST PUSH1 0xD SSTORE JUMP JUMPDEST PUSH2 0xE61 DUP5 DUP5 DUP5 PUSH2 0x1159 JUMP JUMPDEST PUSH1 0x1 PUSH1 0x1 PUSH1 0xA0 SHL SUB DUP4 AND EXTCODESIZE ISZERO ISZERO DUP1 ISZERO PUSH2 0xE83 JUMPI POP PUSH2 0xE81 DUP5 DUP5 DUP5 DUP5 PUSH2 0x164E JUMP JUMPDEST ISZERO JUMPDEST ISZERO PUSH2 0xEA1 JUMPI PUSH1 0x40 MLOAD PUSH4 0x68D2BF6B PUSH1 0xE1 SHL DUP2 MSTORE PUSH1 0x4 ADD PUSH1 0x40 MLOAD DUP1 SWAP2 SUB SWAP1 REVERT JUMPDEST POP POP POP POP JUMP JUMPDEST PUSH1 0x8 SLOAD PUSH1 0x1 PUSH1 0x1 PUSH1 0xA0 SHL SUB AND CALLER EQ PUSH2 0xED1 JUMPI PUSH1 0x40 MLOAD PUSH3 0x461BCD PUSH1 0xE5 SHL DUP2 MSTORE PUSH1 0x4 ADD PUSH2 0x83C SWAP1 PUSH2 0x1E33 JUMP JUMPDEST PUSH1 0xB SLOAD DUP2 LT PUSH2 0xF1B JUMPI PUSH1 0x40 MLOAD PUSH3 0x461BCD PUSH1 0xE5 SHL DUP2 MSTORE PUSH1 0x20 PUSH1 0x4 DUP3 ADD MSTORE PUSH1 0x16 PUSH1 0x24 DUP3 ADD MSTORE PUSH22 0x496E76616C6964206E6577206D617820737570706C79 PUSH1 0x50 SHL PUSH1 0x44 DUP3 ADD MSTORE PUSH1 0x64 ADD PUSH2 0x83C JUMP JUMPDEST PUSH1 0x0 SLOAD DUP2 LT ISZERO PUSH2 0xF66 JUMPI PUSH1 0x40 MLOAD PUSH3 0x461BCD PUSH1 0xE5 SHL DUP2 MSTORE PUSH1 0x20 PUSH1 0x4 DUP3 ADD MSTORE PUSH1 0x16 PUSH1 0x24 DUP3 ADD MSTORE PUSH22 0x496E76616C6964206E6577206D617820737570706C79 PUSH1 0x50 SHL PUSH1 0x44 DUP3 ADD MSTORE PUSH1 0x64 ADD PUSH2 0x83C JUMP JUMPDEST PUSH1 0xB SSTORE JUMP JUMPDEST PUSH1 0x60 PUSH2 0xF76 DUP3 PUSH2 0x10C4 JUMP JUMPDEST PUSH2 0xF93 JUMPI PUSH1 0x40 MLOAD PUSH4 0xA14C4B5 PUSH1 0xE4 SHL DUP2 MSTORE PUSH1 0x4 ADD PUSH1 0x40 MLOAD DUP1 SWAP2 SUB SWAP1 REVERT JUMPDEST PUSH1 0x0 PUSH2 0xF9D PUSH2 0x1746 JUMP JUMPDEST SWAP1 POP DUP1 MLOAD PUSH1 0x0 EQ ISZERO PUSH2 0xFBE JUMPI PUSH1 0x40 MLOAD DUP1 PUSH1 0x20 ADD PUSH1 0x40 MSTORE DUP1 PUSH1 0x0 DUP2 MSTORE POP PUSH2 0xFE9 JUMP JUMPDEST DUP1 PUSH2 0xFC8 DUP5 PUSH2 0x1755 JUMP JUMPDEST PUSH1 0x40 MLOAD PUSH1 0x20 ADD PUSH2 0xFD9 SWAP3 SWAP2 SWAP1 PUSH2 0x1DA4 JUMP JUMPDEST PUSH1 0x40 MLOAD PUSH1 0x20 DUP2 DUP4 SUB SUB DUP2 MSTORE SWAP1 PUSH1 0x40 MSTORE JUMPDEST SWAP4 SWAP3 POP POP POP JUMP JUMPDEST PUSH1 0x8 SLOAD PUSH1 0x1 PUSH1 0x1 PUSH1 0xA0 SHL SUB AND CALLER EQ PUSH2 0x101A JUMPI PUSH1 0x40 MLOAD PUSH3 0x461BCD PUSH1 0xE5 SHL DUP2 MSTORE PUSH1 0x4 ADD PUSH2 0x83C SWAP1 PUSH2 0x1E33 JUMP JUMPDEST PUSH1 0x11 DUP1 SLOAD PUSH1 0xFF NOT AND PUSH1 0x1 OR SWAP1 SSTORE JUMP JUMPDEST PUSH1 0x8 SLOAD PUSH1 0x1 PUSH1 0x1 PUSH1 0xA0 SHL SUB AND CALLER EQ PUSH2 0x1053 JUMPI PUSH1 0x40 MLOAD PUSH3 0x461BCD PUSH1 0xE5 SHL DUP2 MSTORE PUSH1 0x4 ADD PUSH2 0x83C SWAP1 PUSH2 0x1E33 JUMP JUMPDEST PUSH1 0x1 PUSH1 0x1 PUSH1 0xA0 SHL SUB DUP2 AND PUSH2 0x10B8 JUMPI PUSH1 0x40 MLOAD PUSH3 0x461BCD PUSH1 0xE5 SHL DUP2 MSTORE PUSH1 0x20 PUSH1 0x4 DUP3 ADD MSTORE PUSH1 0x26 PUSH1 0x24 DUP3 ADD MSTORE PUSH32 0x4F776E61626C653A206E6577206F776E657220697320746865207A65726F2061 PUSH1 0x44 DUP3 ADD MSTORE PUSH6 0x646472657373 PUSH1 0xD0 SHL PUSH1 0x64 DUP3 ADD MSTORE PUSH1 0x84 ADD PUSH2 0x83C JUMP JUMPDEST PUSH2 0x10C1 DUP2 PUSH2 0x15CB JUMP JUMPDEST POP JUMP JUMPDEST PUSH1 0x0 DUP2 PUSH1 0x1 GT ISZERO DUP1 ISZERO PUSH2 0x10D8 JUMPI POP PUSH1 0x0 SLOAD DUP3 LT JUMPDEST DUP1 ISZERO PUSH2 0x69D JUMPI POP POP PUSH1 0x0 SWAP1 DUP2 MSTORE PUSH1 0x4 PUSH1 0x20 MSTORE PUSH1 0x40 SWAP1 KECCAK256 SLOAD PUSH1 0x1 PUSH1 0xE0 SHL SWAP1 DIV PUSH1 0xFF AND ISZERO SWAP1 JUMP JUMPDEST PUSH1 0x0 DUP3 DUP2 MSTORE PUSH1 0x6 PUSH1 0x20 MSTORE PUSH1 0x40 DUP1 DUP3 KECCAK256 DUP1 SLOAD PUSH1 0x1 PUSH1 0x1 PUSH1 0xA0 SHL SUB NOT AND PUSH1 0x1 PUSH1 0x1 PUSH1 0xA0 SHL SUB DUP8 DUP2 AND SWAP2 DUP3 OR SWAP1 SWAP3 SSTORE SWAP2 MLOAD DUP6 SWAP4 SWAP2 DUP6 AND SWAP2 PUSH32 0x8C5BE1E5EBEC7D5BD14F71427D1E84F3DD0314C0F7B2291E5B200AC8C7C3B925 SWAP2 LOG4 POP POP POP JUMP JUMPDEST PUSH1 0x0 PUSH2 0x1164 DUP3 PUSH2 0x14A2 JUMP JUMPDEST DUP1 MLOAD SWAP1 SWAP2 POP PUSH1 0x0 SWAP1 PUSH1 0x1 PUSH1 0x1 PUSH1 0xA0 SHL SUB AND CALLER PUSH1 0x1 PUSH1 0x1 PUSH1 0xA0 SHL SUB AND EQ DUP1 PUSH2 0x1192 JUMPI POP DUP2 MLOAD PUSH2 0x1192 SWAP1 CALLER PUSH2 0x5D3 JUMP JUMPDEST DUP1 PUSH2 0x11AD JUMPI POP CALLER PUSH2 0x11A2 DUP5 PUSH2 0x735 JUMP JUMPDEST PUSH1 0x1 PUSH1 0x1 PUSH1 0xA0 SHL SUB AND EQ JUMPDEST SWAP1 POP DUP1 PUSH2 0x11CD JUMPI PUSH1 0x40 MLOAD PUSH4 0x2CE44B5F PUSH1 0xE1 SHL DUP2 MSTORE PUSH1 0x4 ADD PUSH1 0x40 MLOAD DUP1 SWAP2 SUB SWAP1 REVERT JUMPDEST DUP5 PUSH1 0x1 PUSH1 0x1 PUSH1 0xA0 SHL SUB AND DUP3 PUSH1 0x0 ADD MLOAD PUSH1 0x1 PUSH1 0x1 PUSH1 0xA0 SHL SUB AND EQ PUSH2 0x1202 JUMPI PUSH1 0x40 MLOAD PUSH3 0xA11481 PUSH1 0xE8 SHL DUP2 MSTORE PUSH1 0x4 ADD PUSH1 0x40 MLOAD DUP1 SWAP2 SUB SWAP1 REVERT JUMPDEST PUSH1 0x1 PUSH1 0x1 PUSH1 0xA0 SHL SUB DUP5 AND PUSH2 0x1229 JUMPI PUSH1 0x40 MLOAD PUSH4 0x3A954ECD PUSH1 0xE2 SHL DUP2 MSTORE PUSH1 0x4 ADD PUSH1 0x40 MLOAD DUP1 SWAP2 SUB SWAP1 REVERT JUMPDEST PUSH2 0x1239 PUSH1 0x0 DUP5 DUP5 PUSH1 0x0 ADD MLOAD PUSH2 0x10FD JUMP JUMPDEST PUSH1 0x1 PUSH1 0x1 PUSH1 0xA0 SHL SUB DUP6 DUP2 AND PUSH1 0x0 SWAP1 DUP2 MSTORE PUSH1 0x5 PUSH1 0x20 SWAP1 DUP2 MSTORE PUSH1 0x40 DUP1 DUP4 KECCAK256 DUP1 SLOAD PUSH8 0xFFFFFFFFFFFFFFFF NOT DUP1 DUP3 AND PUSH8 0xFFFFFFFFFFFFFFFF SWAP3 DUP4 AND PUSH1 0x0 NOT ADD DUP4 AND OR SWAP1 SWAP3 SSTORE DUP10 DUP7 AND DUP1 DUP7 MSTORE DUP4 DUP7 KECCAK256 DUP1 SLOAD SWAP4 DUP5 AND SWAP4 DUP4 AND PUSH1 0x1 SWAP1 DUP2 ADD DUP5 AND SWAP5 SWAP1 SWAP5 OR SWAP1 SSTORE DUP10 DUP7 MSTORE PUSH1 0x4 SWAP1 SWAP5 MSTORE DUP3 DUP6 KECCAK256 DUP1 SLOAD PUSH1 0x1 PUSH1 0x1 PUSH1 0xE0 SHL SUB NOT AND SWAP1 SWAP5 OR PUSH1 0x1 PUSH1 0xA0 SHL TIMESTAMP SWAP1 SWAP3 AND SWAP2 SWAP1 SWAP2 MUL OR SWAP1 SWAP3 SSTORE SWAP1 DUP7 ADD DUP1 DUP4 MSTORE SWAP2 KECCAK256 SLOAD SWAP1 SWAP2 AND PUSH2 0x1325 JUMPI PUSH1 0x0 SLOAD DUP2 LT ISZERO PUSH2 0x1325 JUMPI DUP3 MLOAD PUSH1 0x0 DUP3 DUP2 MSTORE PUSH1 0x4 PUSH1 0x20 SWAP1 DUP2 MSTORE PUSH1 0x40 SWAP1 SWAP2 KECCAK256 DUP1 SLOAD SWAP2 DUP7 ADD MLOAD PUSH8 0xFFFFFFFFFFFFFFFF AND PUSH1 0x1 PUSH1 0xA0 SHL MUL PUSH1 0x1 PUSH1 0x1 PUSH1 0xE0 SHL SUB NOT SWAP1 SWAP3 AND PUSH1 0x1 PUSH1 0x1 PUSH1 0xA0 SHL SUB SWAP1 SWAP4 AND SWAP3 SWAP1 SWAP3 OR OR SWAP1 SSTORE JUMPDEST POP DUP3 DUP5 PUSH1 0x1 PUSH1 0x1 PUSH1 0xA0 SHL SUB AND DUP7 PUSH1 0x1 PUSH1 0x1 PUSH1 0xA0 SHL SUB AND PUSH32 0xDDF252AD1BE2C89B69C2B068FC378DAA952BA7F163C4A11628F55A4DF523B3EF PUSH1 0x40 MLOAD PUSH1 0x40 MLOAD DUP1 SWAP2 SUB SWAP1 LOG4 JUMPDEST POP POP POP POP POP JUMP JUMPDEST DUP1 SELFBALANCE LT ISZERO PUSH2 0x13BF JUMPI PUSH1 0x40 MLOAD PUSH3 0x461BCD PUSH1 0xE5 SHL DUP2 MSTORE PUSH1 0x20 PUSH1 0x4 DUP3 ADD MSTORE PUSH1 0x1D PUSH1 0x24 DUP3 ADD MSTORE PUSH32 0x416464726573733A20696E73756666696369656E742062616C616E6365000000 PUSH1 0x44 DUP3 ADD MSTORE PUSH1 0x64 ADD PUSH2 0x83C JUMP JUMPDEST PUSH1 0x0 DUP3 PUSH1 0x1 PUSH1 0x1 PUSH1 0xA0 SHL SUB AND DUP3 PUSH1 0x40 MLOAD PUSH1 0x0 PUSH1 0x40 MLOAD DUP1 DUP4 SUB DUP2 DUP6 DUP8 GAS CALL SWAP3 POP POP POP RETURNDATASIZE DUP1 PUSH1 0x0 DUP2 EQ PUSH2 0x140C JUMPI PUSH1 0x40 MLOAD SWAP2 POP PUSH1 0x1F NOT PUSH1 0x3F RETURNDATASIZE ADD AND DUP3 ADD PUSH1 0x40 MSTORE RETURNDATASIZE DUP3 MSTORE RETURNDATASIZE PUSH1 0x0 PUSH1 0x20 DUP5 ADD RETURNDATACOPY PUSH2 0x1411 JUMP JUMPDEST PUSH1 0x60 SWAP2 POP JUMPDEST POP POP SWAP1 POP DUP1 PUSH2 0x802 JUMPI PUSH1 0x40 MLOAD PUSH3 0x461BCD PUSH1 0xE5 SHL DUP2 MSTORE PUSH1 0x20 PUSH1 0x4 DUP3 ADD MSTORE PUSH1 0x3A PUSH1 0x24 DUP3 ADD MSTORE PUSH32 0x416464726573733A20756E61626C6520746F2073656E642076616C75652C2072 PUSH1 0x44 DUP3 ADD MSTORE PUSH32 0x6563697069656E74206D61792068617665207265766572746564000000000000 PUSH1 0x64 DUP3 ADD MSTORE PUSH1 0x84 ADD PUSH2 0x83C JUMP JUMPDEST PUSH2 0xA42 DUP3 DUP3 PUSH1 0x40 MLOAD DUP1 PUSH1 0x20 ADD PUSH1 0x40 MSTORE DUP1 PUSH1 0x0 DUP2 MSTORE POP PUSH2 0x1853 JUMP JUMPDEST PUSH1 0x40 DUP1 MLOAD PUSH1 0x60 DUP2 ADD DUP3 MSTORE PUSH1 0x0 DUP1 DUP3 MSTORE PUSH1 0x20 DUP3 ADD DUP2 SWAP1 MSTORE SWAP2 DUP2 ADD SWAP2 SWAP1 SWAP2 MSTORE DUP2 DUP1 PUSH1 0x1 GT ISZERO DUP1 ISZERO PUSH2 0x14D2 JUMPI POP PUSH1 0x0 SLOAD DUP2 LT JUMPDEST ISZERO PUSH2 0x15B2 JUMPI PUSH1 0x0 DUP2 DUP2 MSTORE PUSH1 0x4 PUSH1 0x20 SWAP1 DUP2 MSTORE PUSH1 0x40 SWAP2 DUP3 SWAP1 KECCAK256 DUP3 MLOAD PUSH1 0x60 DUP2 ADD DUP5 MSTORE SWAP1 SLOAD PUSH1 0x1 PUSH1 0x1 PUSH1 0xA0 SHL SUB DUP2 AND DUP3 MSTORE PUSH1 0x1 PUSH1 0xA0 SHL DUP2 DIV PUSH8 0xFFFFFFFFFFFFFFFF AND SWAP3 DUP3 ADD SWAP3 SWAP1 SWAP3 MSTORE PUSH1 0x1 PUSH1 0xE0 SHL SWAP1 SWAP2 DIV PUSH1 0xFF AND ISZERO ISZERO SWAP2 DUP2 ADD DUP3 SWAP1 MSTORE SWAP1 PUSH2 0x15B0 JUMPI DUP1 MLOAD PUSH1 0x1 PUSH1 0x1 PUSH1 0xA0 SHL SUB AND ISZERO PUSH2 0x1546 JUMPI SWAP4 SWAP3 POP POP POP JUMP JUMPDEST POP PUSH1 0x0 NOT ADD PUSH1 0x0 DUP2 DUP2 MSTORE PUSH1 0x4 PUSH1 0x20 SWAP1 DUP2 MSTORE PUSH1 0x40 SWAP2 DUP3 SWAP1 KECCAK256 DUP3 MLOAD PUSH1 0x60 DUP2 ADD DUP5 MSTORE SWAP1 SLOAD PUSH1 0x1 PUSH1 0x1 PUSH1 0xA0 SHL SUB DUP2 AND DUP1 DUP4 MSTORE PUSH1 0x1 PUSH1 0xA0 SHL DUP3 DIV PUSH8 0xFFFFFFFFFFFFFFFF AND SWAP4 DUP4 ADD SWAP4 SWAP1 SWAP4 MSTORE PUSH1 0x1 PUSH1 0xE0 SHL SWAP1 DIV PUSH1 0xFF AND ISZERO ISZERO SWAP3 DUP2 ADD SWAP3 SWAP1 SWAP3 MSTORE ISZERO PUSH2 0x15AB JUMPI SWAP4 SWAP3 POP POP POP JUMP JUMPDEST PUSH2 0x1546 JUMP JUMPDEST POP JUMPDEST PUSH1 0x40 MLOAD PUSH4 0x6F96CDA1 PUSH1 0xE1 SHL DUP2 MSTORE PUSH1 0x4 ADD PUSH1 0x40 MLOAD DUP1 SWAP2 SUB SWAP1 REVERT JUMPDEST PUSH1 0x8 DUP1 SLOAD PUSH1 0x1 PUSH1 0x1 PUSH1 0xA0 SHL SUB DUP4 DUP2 AND PUSH1 0x1 PUSH1 0x1 PUSH1 0xA0 SHL SUB NOT DUP4 AND DUP2 OR SWAP1 SWAP4 SSTORE PUSH1 0x40 MLOAD SWAP2 AND SWAP2 SWAP1 DUP3 SWAP1 PUSH32 0x8BE0079C531659141344CD1FD0A4F28419497F9722A3DAAFE3B4186F6B6457E0 SWAP1 PUSH1 0x0 SWAP1 LOG3 POP POP JUMP JUMPDEST PUSH1 0x1 PUSH1 0x1 PUSH1 0xA0 SHL SUB DUP3 AND PUSH1 0x0 SWAP1 DUP2 MSTORE PUSH1 0x12 PUSH1 0x20 MSTORE PUSH1 0x40 DUP2 KECCAK256 DUP1 SLOAD DUP4 SWAP3 SWAP1 PUSH2 0x1645 SWAP1 DUP5 SWAP1 PUSH2 0x1E68 JUMP JUMPDEST SWAP1 SWAP2 SSTORE POP POP POP POP JUMP JUMPDEST PUSH1 0x40 MLOAD PUSH4 0xA85BD01 PUSH1 0xE1 SHL DUP2 MSTORE PUSH1 0x0 SWAP1 PUSH1 0x1 PUSH1 0x1 PUSH1 0xA0 SHL SUB DUP6 AND SWAP1 PUSH4 0x150B7A02 SWAP1 PUSH2 0x1683 SWAP1 CALLER SWAP1 DUP10 SWAP1 DUP9 SWAP1 DUP9 SWAP1 PUSH1 0x4 ADD PUSH2 0x1DE3 JUMP JUMPDEST PUSH1 0x20 PUSH1 0x40 MLOAD DUP1 DUP4 SUB DUP2 PUSH1 0x0 DUP8 DUP1 EXTCODESIZE ISZERO DUP1 ISZERO PUSH2 0x169D JUMPI PUSH1 0x0 DUP1 REVERT JUMPDEST POP GAS CALL SWAP3 POP POP POP DUP1 ISZERO PUSH2 0x16CD JUMPI POP PUSH1 0x40 DUP1 MLOAD PUSH1 0x1F RETURNDATASIZE SWAP1 DUP2 ADD PUSH1 0x1F NOT AND DUP3 ADD SWAP1 SWAP3 MSTORE PUSH2 0x16CA SWAP2 DUP2 ADD SWAP1 PUSH2 0x1CF9 JUMP JUMPDEST PUSH1 0x1 JUMPDEST PUSH2 0x1728 JUMPI RETURNDATASIZE DUP1 DUP1 ISZERO PUSH2 0x16FB JUMPI PUSH1 0x40 MLOAD SWAP2 POP PUSH1 0x1F NOT PUSH1 0x3F RETURNDATASIZE ADD AND DUP3 ADD PUSH1 0x40 MSTORE RETURNDATASIZE DUP3 MSTORE RETURNDATASIZE PUSH1 0x0 PUSH1 0x20 DUP5 ADD RETURNDATACOPY PUSH2 0x1700 JUMP JUMPDEST PUSH1 0x60 SWAP2 POP JUMPDEST POP DUP1 MLOAD PUSH2 0x1720 JUMPI PUSH1 0x40 MLOAD PUSH4 0x68D2BF6B PUSH1 0xE1 SHL DUP2 MSTORE PUSH1 0x4 ADD PUSH1 0x40 MLOAD DUP1 SWAP2 SUB SWAP1 REVERT JUMPDEST DUP1 MLOAD DUP2 PUSH1 0x20 ADD REVERT JUMPDEST PUSH1 0x1 PUSH1 0x1 PUSH1 0xE0 SHL SUB NOT AND PUSH4 0xA85BD01 PUSH1 0xE1 SHL EQ SWAP1 POP JUMPDEST SWAP5 SWAP4 POP POP POP POP JUMP JUMPDEST PUSH1 0x60 PUSH1 0xC DUP1 SLOAD PUSH2 0x6B2 SWAP1 PUSH2 0x1EF6 JUMP JUMPDEST PUSH1 0x60 DUP2 PUSH2 0x1779 JUMPI POP POP PUSH1 0x40 DUP1 MLOAD DUP1 DUP3 ADD SWAP1 SWAP2 MSTORE PUSH1 0x1 DUP2 MSTORE PUSH1 0x3 PUSH1 0xFC SHL PUSH1 0x20 DUP3 ADD MSTORE SWAP1 JUMP JUMPDEST DUP2 PUSH1 0x0 JUMPDEST DUP2 ISZERO PUSH2 0x17A3 JUMPI DUP1 PUSH2 0x178D DUP2 PUSH2 0x1F31 JUMP JUMPDEST SWAP2 POP PUSH2 0x179C SWAP1 POP PUSH1 0xA DUP4 PUSH2 0x1E80 JUMP JUMPDEST SWAP2 POP PUSH2 0x177D JUMP JUMPDEST PUSH1 0x0 DUP2 PUSH8 0xFFFFFFFFFFFFFFFF DUP2 GT ISZERO PUSH2 0x17BE JUMPI PUSH2 0x17BE PUSH2 0x1FA2 JUMP JUMPDEST PUSH1 0x40 MLOAD SWAP1 DUP1 DUP3 MSTORE DUP1 PUSH1 0x1F ADD PUSH1 0x1F NOT AND PUSH1 0x20 ADD DUP3 ADD PUSH1 0x40 MSTORE DUP1 ISZERO PUSH2 0x17E8 JUMPI PUSH1 0x20 DUP3 ADD DUP2 DUP1 CALLDATASIZE DUP4 CALLDATACOPY ADD SWAP1 POP JUMPDEST POP SWAP1 POP JUMPDEST DUP5 ISZERO PUSH2 0x173E JUMPI PUSH2 0x17FD PUSH1 0x1 DUP4 PUSH2 0x1EB3 JUMP JUMPDEST SWAP2 POP PUSH2 0x180A PUSH1 0xA DUP7 PUSH2 0x1F4C JUMP JUMPDEST PUSH2 0x1815 SWAP1 PUSH1 0x30 PUSH2 0x1E68 JUMP JUMPDEST PUSH1 0xF8 SHL DUP2 DUP4 DUP2 MLOAD DUP2 LT PUSH2 0x182A JUMPI PUSH2 0x182A PUSH2 0x1F8C JUMP JUMPDEST PUSH1 0x20 ADD ADD SWAP1 PUSH1 0x1 PUSH1 0x1 PUSH1 0xF8 SHL SUB NOT AND SWAP1 DUP2 PUSH1 0x0 BYTE SWAP1 MSTORE8 POP PUSH2 0x184C PUSH1 0xA DUP7 PUSH2 0x1E80 JUMP JUMPDEST SWAP5 POP PUSH2 0x17EC JUMP JUMPDEST PUSH2 0x802 DUP4 DUP4 DUP4 PUSH1 0x1 PUSH1 0x0 SLOAD PUSH1 0x1 PUSH1 0x1 PUSH1 0xA0 SHL SUB DUP6 AND PUSH2 0x1884 JUMPI PUSH1 0x40 MLOAD PUSH3 0x2E0763 PUSH1 0xE8 SHL DUP2 MSTORE PUSH1 0x4 ADD PUSH1 0x40 MLOAD DUP1 SWAP2 SUB SWAP1 REVERT JUMPDEST DUP4 PUSH2 0x18A2 JUMPI PUSH1 0x40 MLOAD PUSH4 0xB562E8DD PUSH1 0xE0 SHL DUP2 MSTORE PUSH1 0x4 ADD PUSH1 0x40 MLOAD DUP1 SWAP2 SUB SWAP1 REVERT JUMPDEST PUSH1 0x1 PUSH1 0x1 PUSH1 0xA0 SHL SUB DUP6 AND PUSH1 0x0 DUP2 DUP2 MSTORE PUSH1 0x5 PUSH1 0x20 SWAP1 DUP2 MSTORE PUSH1 0x40 DUP1 DUP4 KECCAK256 DUP1 SLOAD PUSH16 0xFFFFFFFFFFFFFFFFFFFFFFFFFFFFFFFF NOT DUP2 AND PUSH8 0xFFFFFFFFFFFFFFFF DUP1 DUP4 AND DUP13 ADD DUP2 AND SWAP2 DUP3 OR PUSH9 0x10000000000000000 PUSH8 0xFFFFFFFFFFFFFFFF NOT SWAP1 SWAP5 AND SWAP1 SWAP3 OR DUP4 SWAP1 DIV DUP2 AND DUP13 ADD DUP2 AND SWAP1 SWAP3 MUL OR SWAP1 SWAP2 SSTORE DUP6 DUP5 MSTORE PUSH1 0x4 SWAP1 SWAP3 MSTORE SWAP1 SWAP2 KECCAK256 DUP1 SLOAD PUSH1 0x1 PUSH1 0x1 PUSH1 0xE0 SHL SUB NOT AND SWAP1 SWAP3 OR PUSH1 0x1 PUSH1 0xA0 SHL TIMESTAMP SWAP1 SWAP3 AND SWAP2 SWAP1 SWAP2 MUL OR SWAP1 SSTORE DUP1 DUP1 DUP6 ADD DUP4 DUP1 ISZERO PUSH2 0x1954 JUMPI POP PUSH1 0x1 PUSH1 0x1 PUSH1 0xA0 SHL SUB DUP8 AND EXTCODESIZE ISZERO ISZERO JUMPDEST ISZERO PUSH2 0x19DD JUMPI JUMPDEST PUSH1 0x40 MLOAD DUP3 SWAP1 PUSH1 0x1 PUSH1 0x1 PUSH1 0xA0 SHL SUB DUP10 AND SWAP1 PUSH1 0x0 SWAP1 PUSH32 0xDDF252AD1BE2C89B69C2B068FC378DAA952BA7F163C4A11628F55A4DF523B3EF SWAP1 DUP3 SWAP1 LOG4 PUSH2 0x19A5 PUSH1 0x0 DUP9 DUP5 DUP1 PUSH1 0x1 ADD SWAP6 POP DUP9 PUSH2 0x164E JUMP JUMPDEST PUSH2 0x19C2 JUMPI PUSH1 0x40 MLOAD PUSH4 0x68D2BF6B PUSH1 0xE1 SHL DUP2 MSTORE PUSH1 0x4 ADD PUSH1 0x40 MLOAD DUP1 SWAP2 SUB SWAP1 REVERT JUMPDEST DUP1 DUP3 EQ ISZERO PUSH2 0x195A JUMPI DUP3 PUSH1 0x0 SLOAD EQ PUSH2 0x19D8 JUMPI PUSH1 0x0 DUP1 REVERT JUMPDEST PUSH2 0x1A23 JUMP JUMPDEST JUMPDEST PUSH1 0x40 MLOAD PUSH1 0x1 DUP4 ADD SWAP3 SWAP1 PUSH1 0x1 PUSH1 0x1 PUSH1 0xA0 SHL SUB DUP10 AND SWAP1 PUSH1 0x0 SWAP1 PUSH32 0xDDF252AD1BE2C89B69C2B068FC378DAA952BA7F163C4A11628F55A4DF523B3EF SWAP1 DUP3 SWAP1 LOG4 DUP1 DUP3 EQ ISZERO PUSH2 0x19DE JUMPI JUMPDEST POP PUSH1 0x0 SSTORE PUSH2 0x1368 JUMP JUMPDEST DUP3 DUP1 SLOAD PUSH2 0x1A38 SWAP1 PUSH2 0x1EF6 JUMP JUMPDEST SWAP1 PUSH1 0x0 MSTORE PUSH1 0x20 PUSH1 0x0 KECCAK256 SWAP1 PUSH1 0x1F ADD PUSH1 0x20 SWAP1 DIV DUP2 ADD SWAP3 DUP3 PUSH2 0x1A5A JUMPI PUSH1 0x0 DUP6 SSTORE PUSH2 0x1AA0 JUMP JUMPDEST DUP3 PUSH1 0x1F LT PUSH2 0x1A73 JUMPI DUP1 MLOAD PUSH1 0xFF NOT AND DUP4 DUP1 ADD OR DUP6 SSTORE PUSH2 0x1AA0 JUMP JUMPDEST DUP3 DUP1 ADD PUSH1 0x1 ADD DUP6 SSTORE DUP3 ISZERO PUSH2 0x1AA0 JUMPI SWAP2 DUP3 ADD JUMPDEST DUP3 DUP2 GT ISZERO PUSH2 0x1AA0 JUMPI DUP3 MLOAD DUP3 SSTORE SWAP2 PUSH1 0x20 ADD SWAP2 SWAP1 PUSH1 0x1 ADD SWAP1 PUSH2 0x1A85 JUMP JUMPDEST POP PUSH2 0x1AAC SWAP3 SWAP2 POP PUSH2 0x1AB0 JUMP JUMPDEST POP SWAP1 JUMP JUMPDEST JUMPDEST DUP1 DUP3 GT ISZERO PUSH2 0x1AAC JUMPI PUSH1 0x0 DUP2 SSTORE PUSH1 0x1 ADD PUSH2 0x1AB1 JUMP JUMPDEST PUSH1 0x0 PUSH8 0xFFFFFFFFFFFFFFFF DUP1 DUP5 GT ISZERO PUSH2 0x1AE0 JUMPI PUSH2 0x1AE0 PUSH2 0x1FA2 JUMP JUMPDEST PUSH1 0x40 MLOAD PUSH1 0x1F DUP6 ADD PUSH1 0x1F NOT SWAP1 DUP2 AND PUSH1 0x3F ADD AND DUP2 ADD SWAP1 DUP3 DUP3 GT DUP2 DUP4 LT OR ISZERO PUSH2 0x1B08 JUMPI PUSH2 0x1B08 PUSH2 0x1FA2 JUMP JUMPDEST DUP2 PUSH1 0x40 MSTORE DUP1 SWAP4 POP DUP6 DUP2 MSTORE DUP7 DUP7 DUP7 ADD GT ISZERO PUSH2 0x1B21 JUMPI PUSH1 0x0 DUP1 REVERT JUMPDEST DUP6 DUP6 PUSH1 0x20 DUP4 ADD CALLDATACOPY PUSH1 0x0 PUSH1 0x20 DUP8 DUP4 ADD ADD MSTORE POP POP POP SWAP4 SWAP3 POP POP POP JUMP JUMPDEST DUP1 CALLDATALOAD PUSH1 0x1 PUSH1 0x1 PUSH1 0xA0 SHL SUB DUP2 AND DUP2 EQ PUSH2 0x1B52 JUMPI PUSH1 0x0 DUP1 REVERT JUMPDEST SWAP2 SWAP1 POP JUMP JUMPDEST DUP1 CALLDATALOAD DUP1 ISZERO ISZERO DUP2 EQ PUSH2 0x1B52 JUMPI PUSH1 0x0 DUP1 REVERT JUMPDEST PUSH1 0x0 PUSH1 0x20 DUP3 DUP5 SUB SLT ISZERO PUSH2 0x1B79 JUMPI PUSH1 0x0 DUP1 REVERT JUMPDEST PUSH2 0xFE9 DUP3 PUSH2 0x1B3B JUMP JUMPDEST PUSH1 0x0 DUP1 PUSH1 0x40 DUP4 DUP6 SUB SLT ISZERO PUSH2 0x1B95 JUMPI PUSH1 0x0 DUP1 REVERT JUMPDEST PUSH2 0x1B9E DUP4 PUSH2 0x1B3B JUMP JUMPDEST SWAP2 POP PUSH2 0x1BAC PUSH1 0x20 DUP5 ADD PUSH2 0x1B3B JUMP JUMPDEST SWAP1 POP SWAP3 POP SWAP3 SWAP1 POP JUMP JUMPDEST PUSH1 0x0 DUP1 PUSH1 0x0 PUSH1 0x60 DUP5 DUP7 SUB SLT ISZERO PUSH2 0x1BCA JUMPI PUSH1 0x0 DUP1 REVERT JUMPDEST PUSH2 0x1BD3 DUP5 PUSH2 0x1B3B JUMP JUMPDEST SWAP3 POP PUSH2 0x1BE1 PUSH1 0x20 DUP6 ADD PUSH2 0x1B3B JUMP JUMPDEST SWAP2 POP PUSH1 0x40 DUP5 ADD CALLDATALOAD SWAP1 POP SWAP3 POP SWAP3 POP SWAP3 JUMP JUMPDEST PUSH1 0x0 DUP1 PUSH1 0x0 DUP1 PUSH1 0x80 DUP6 DUP8 SUB SLT ISZERO PUSH2 0x1C07 JUMPI PUSH1 0x0 DUP1 REVERT JUMPDEST PUSH2 0x1C10 DUP6 PUSH2 0x1B3B JUMP JUMPDEST SWAP4 POP PUSH2 0x1C1E PUSH1 0x20 DUP7 ADD PUSH2 0x1B3B JUMP JUMPDEST SWAP3 POP PUSH1 0x40 DUP6 ADD CALLDATALOAD SWAP2 POP PUSH1 0x60 DUP6 ADD CALLDATALOAD PUSH8 0xFFFFFFFFFFFFFFFF DUP2 GT ISZERO PUSH2 0x1C41 JUMPI PUSH1 0x0 DUP1 REVERT JUMPDEST DUP6 ADD PUSH1 0x1F DUP2 ADD DUP8 SGT PUSH2 0x1C52 JUMPI PUSH1 0x0 DUP1 REVERT JUMPDEST PUSH2 0x1C61 DUP8 DUP3 CALLDATALOAD PUSH1 0x20 DUP5 ADD PUSH2 0x1AC5 JUMP JUMPDEST SWAP2 POP POP SWAP3 SWAP6 SWAP2 SWAP5 POP SWAP3 POP JUMP JUMPDEST PUSH1 0x0 DUP1 PUSH1 0x40 DUP4 DUP6 SUB SLT ISZERO PUSH2 0x1C80 JUMPI PUSH1 0x0 DUP1 REVERT JUMPDEST PUSH2 0x1C89 DUP4 PUSH2 0x1B3B JUMP JUMPDEST SWAP2 POP PUSH2 0x1BAC PUSH1 0x20 DUP5 ADD PUSH2 0x1B57 JUMP JUMPDEST PUSH1 0x0 DUP1 PUSH1 0x40 DUP4 DUP6 SUB SLT ISZERO PUSH2 0x1CAA JUMPI PUSH1 0x0 DUP1 REVERT JUMPDEST PUSH2 0x1CB3 DUP4 PUSH2 0x1B3B JUMP JUMPDEST SWAP5 PUSH1 0x20 SWAP4 SWAP1 SWAP4 ADD CALLDATALOAD SWAP4 POP POP POP JUMP JUMPDEST PUSH1 0x0 PUSH1 0x20 DUP3 DUP5 SUB SLT ISZERO PUSH2 0x1CD3 JUMPI PUSH1 0x0 DUP1 REVERT JUMPDEST PUSH2 0xFE9 DUP3 PUSH2 0x1B57 JUMP JUMPDEST PUSH1 0x0 PUSH1 0x20 DUP3 DUP5 SUB SLT ISZERO PUSH2 0x1CEE JUMPI PUSH1 0x0 DUP1 REVERT JUMPDEST DUP2 CALLDATALOAD PUSH2 0xFE9 DUP2 PUSH2 0x1FB8 JUMP JUMPDEST PUSH1 0x0 PUSH1 0x20 DUP3 DUP5 SUB SLT ISZERO PUSH2 0x1D0B JUMPI PUSH1 0x0 DUP1 REVERT JUMPDEST DUP2 MLOAD PUSH2 0xFE9 DUP2 PUSH2 0x1FB8 JUMP JUMPDEST PUSH1 0x0 PUSH1 0x20 DUP3 DUP5 SUB SLT ISZERO PUSH2 0x1D28 JUMPI PUSH1 0x0 DUP1 REVERT JUMPDEST DUP2 CALLDATALOAD PUSH8 0xFFFFFFFFFFFFFFFF DUP2 GT ISZERO PUSH2 0x1D3F JUMPI PUSH1 0x0 DUP1 REVERT JUMPDEST DUP3 ADD PUSH1 0x1F DUP2 ADD DUP5 SGT PUSH2 0x1D50 JUMPI PUSH1 0x0 DUP1 REVERT JUMPDEST PUSH2 0x173E DUP5 DUP3 CALLDATALOAD PUSH1 0x20 DUP5 ADD PUSH2 0x1AC5 JUMP JUMPDEST PUSH1 0x0 PUSH1 0x20 DUP3 DUP5 SUB SLT ISZERO PUSH2 0x1D71 JUMPI PUSH1 0x0 DUP1 REVERT JUMPDEST POP CALLDATALOAD SWAP2 SWAP1 POP JUMP JUMPDEST PUSH1 0x0 DUP2 MLOAD DUP1 DUP5 MSTORE PUSH2 0x1D90 DUP2 PUSH1 0x20 DUP7 ADD PUSH1 0x20 DUP7 ADD PUSH2 0x1ECA JUMP JUMPDEST PUSH1 0x1F ADD PUSH1 0x1F NOT AND SWAP3 SWAP1 SWAP3 ADD PUSH1 0x20 ADD SWAP3 SWAP2 POP POP JUMP JUMPDEST PUSH1 0x0 DUP4 MLOAD PUSH2 0x1DB6 DUP2 DUP5 PUSH1 0x20 DUP9 ADD PUSH2 0x1ECA JUMP JUMPDEST DUP4 MLOAD SWAP1 DUP4 ADD SWAP1 PUSH2 0x1DCA DUP2 DUP4 PUSH1 0x20 DUP9 ADD PUSH2 0x1ECA JUMP JUMPDEST PUSH5 0x173539B7B7 PUSH1 0xD9 SHL SWAP2 ADD SWAP1 DUP2 MSTORE PUSH1 0x5 ADD SWAP5 SWAP4 POP POP POP POP JUMP JUMPDEST PUSH1 0x1 PUSH1 0x1 PUSH1 0xA0 SHL SUB DUP6 DUP2 AND DUP3 MSTORE DUP5 AND PUSH1 0x20 DUP3 ADD MSTORE PUSH1 0x40 DUP2 ADD DUP4 SWAP1 MSTORE PUSH1 0x80 PUSH1 0x60 DUP3 ADD DUP2 SWAP1 MSTORE PUSH1 0x0 SWAP1 PUSH2 0x1E16 SWAP1 DUP4 ADD DUP5 PUSH2 0x1D78 JUMP JUMPDEST SWAP7 SWAP6 POP POP POP POP POP POP JUMP JUMPDEST PUSH1 0x20 DUP2 MSTORE PUSH1 0x0 PUSH2 0xFE9 PUSH1 0x20 DUP4 ADD DUP5 PUSH2 0x1D78 JUMP JUMPDEST PUSH1 0x20 DUP1 DUP3 MSTORE DUP2 DUP2 ADD MSTORE PUSH32 0x4F776E61626C653A2063616C6C6572206973206E6F7420746865206F776E6572 PUSH1 0x40 DUP3 ADD MSTORE PUSH1 0x60 ADD SWAP1 JUMP JUMPDEST PUSH1 0x0 DUP3 NOT DUP3 GT ISZERO PUSH2 0x1E7B JUMPI PUSH2 0x1E7B PUSH2 0x1F60 JUMP JUMPDEST POP ADD SWAP1 JUMP JUMPDEST PUSH1 0x0 DUP3 PUSH2 0x1E8F JUMPI PUSH2 0x1E8F PUSH2 0x1F76 JUMP JUMPDEST POP DIV SWAP1 JUMP JUMPDEST PUSH1 0x0 DUP2 PUSH1 0x0 NOT DIV DUP4 GT DUP3 ISZERO ISZERO AND ISZERO PUSH2 0x1EAE JUMPI PUSH2 0x1EAE PUSH2 0x1F60 JUMP JUMPDEST POP MUL SWAP1 JUMP JUMPDEST PUSH1 0x0 DUP3 DUP3 LT ISZERO PUSH2 0x1EC5 JUMPI PUSH2 0x1EC5 PUSH2 0x1F60 JUMP JUMPDEST POP SUB SWAP1 JUMP JUMPDEST PUSH1 0x0 JUMPDEST DUP4 DUP2 LT ISZERO PUSH2 0x1EE5 JUMPI DUP2 DUP2 ADD MLOAD DUP4 DUP3 ADD MSTORE PUSH1 0x20 ADD PUSH2 0x1ECD JUMP JUMPDEST DUP4 DUP2 GT ISZERO PUSH2 0xEA1 JUMPI POP POP PUSH1 0x0 SWAP2 ADD MSTORE JUMP JUMPDEST PUSH1 0x1 DUP2 DUP2 SHR SWAP1 DUP3 AND DUP1 PUSH2 0x1F0A JUMPI PUSH1 0x7F DUP3 AND SWAP2 POP JUMPDEST PUSH1 0x20 DUP3 LT DUP2 EQ ISZERO PUSH2 0x1F2B JUMPI PUSH4 0x4E487B71 PUSH1 0xE0 SHL PUSH1 0x0 MSTORE PUSH1 0x22 PUSH1 0x4 MSTORE PUSH1 0x24 PUSH1 0x0 REVERT JUMPDEST POP SWAP2 SWAP1 POP JUMP JUMPDEST PUSH1 0x0 PUSH1 0x0 NOT DUP3 EQ ISZERO PUSH2 0x1F45 JUMPI PUSH2 0x1F45 PUSH2 0x1F60 JUMP JUMPDEST POP PUSH1 0x1 ADD SWAP1 JUMP JUMPDEST PUSH1 0x0 DUP3 PUSH2 0x1F5B JUMPI PUSH2 0x1F5B PUSH2 0x1F76 JUMP JUMPDEST POP MOD SWAP1 JUMP JUMPDEST PUSH4 0x4E487B71 PUSH1 0xE0 SHL PUSH1 0x0 MSTORE PUSH1 0x11 PUSH1 0x4 MSTORE PUSH1 0x24 PUSH1 0x0 REVERT JUMPDEST PUSH4 0x4E487B71 PUSH1 0xE0 SHL PUSH1 0x0 MSTORE PUSH1 0x12 PUSH1 0x4 MSTORE PUSH1 0x24 PUSH1 0x0 REVERT JUMPDEST PUSH4 0x4E487B71 PUSH1 0xE0 SHL PUSH1 0x0 MSTORE PUSH1 0x32 PUSH1 0x4 MSTORE PUSH1 0x24 PUSH1 0x0 REVERT JUMPDEST PUSH4 0x4E487B71 PUSH1 0xE0 SHL PUSH1 0x0 MSTORE PUSH1 0x41 PUSH1 0x4 MSTORE PUSH1 0x24 PUSH1 0x0 REVERT JUMPDEST PUSH1 0x1 PUSH1 0x1 PUSH1 0xE0 SHL SUB NOT DUP2 AND DUP2 EQ PUSH2 0x10C1 JUMPI PUSH1 0x0 DUP1 REVERT INVALID LOG2 PUSH5 0x6970667358 0x22 SLT KECCAK256 0xD0 JUMPI 0xD1 DUP6 0xEC PUSH3 0x4E9AEF 0xB7 0xCA STATICCALL SWAP2 PUSH30 0xB8C968109482985087F3D30848648BD9B03C64736F6C6343000807003300 "
				},
				"gasEstimates": {
					"creation": {
						"codeDepositCost": "1639200",
						"executionCost": "infinite",
						"totalCost": "infinite"
					},
					"external": {
						"IS_SALE_ACTIVE()": "2432",
						"METADATA_FROZEN()": "2431",
						"approve(address,uint256)": "infinite",
						"balanceOf(address)": "2684",
						"budPrice()": "2384",
						"freeBudAllowedUntil()": "2339",
						"freeBudPerWallet()": "2385",
						"freezeMetadata()": "26619",
						"getApproved(uint256)": "6993",
						"isApprovedForAll(address,address)": "infinite",
						"lowerMaxSupply(uint256)": "28758",
						"maxBudPerTrans()": "2385",
						"maxbuds()": "2383",
						"mint(uint256)": "infinite",
						"mintOwner(address,uint256)": "infinite",
						"name()": "infinite",
						"owner()": "2421",
						"ownerOf(uint256)": "infinite",
						"renounceOwnership()": "28228",
						"safeTransferFrom(address,address,uint256)": "infinite",
						"safeTransferFrom(address,address,uint256,bytes)": "infinite",
						"setApprovalForAll(address,bool)": "infinite",
						"setBaseURI(string)": "infinite",
						"setFreeMintAllowance(uint256)": "24575",
						"setFreeMintAllowedUntil(uint256)": "24532",
						"setMaxMintPerTx(uint256)": "24509",
						"setPrice(uint256)": "24576",
						"setSaleActive(bool)": "26715",
						"supportsInterface(bytes4)": "557",
						"symbol()": "infinite",
						"tokenURI(uint256)": "infinite",
						"totalSupply()": "4442",
						"transferFrom(address,address,uint256)": "infinite",
						"transferOwnership(address)": "28422",
						"withdraw()": "infinite"
					},
					"internal": {
						"_baseURI()": "infinite",
						"updateFreeMintCount(address,uint256)": "24404"
					}
				},
				"methodIdentifiers": {
					"IS_SALE_ACTIVE()": "76d02b71",
					"METADATA_FROZEN()": "fdb4953a",
					"approve(address,uint256)": "095ea7b3",
					"balanceOf(address)": "70a08231",
					"budPrice()": "c8eca562",
					"freeBudAllowedUntil()": "e1b5a272",
					"freeBudPerWallet()": "5381f6e2",
					"freezeMetadata()": "d111515d",
					"getApproved(uint256)": "081812fc",
					"isApprovedForAll(address,address)": "e985e9c5",
					"lowerMaxSupply(uint256)": "c4e9374d",
					"maxBudPerTrans()": "28cb250f",
					"maxbuds()": "eae9c95d",
					"mint(uint256)": "a0712d68",
					"mintOwner(address,uint256)": "408cbf94",
					"name()": "06fdde03",
					"owner()": "8da5cb5b",
					"ownerOf(uint256)": "6352211e",
					"renounceOwnership()": "715018a6",
					"safeTransferFrom(address,address,uint256)": "42842e0e",
					"safeTransferFrom(address,address,uint256,bytes)": "b88d4fde",
					"setApprovalForAll(address,bool)": "a22cb465",
					"setBaseURI(string)": "55f804b3",
					"setFreeMintAllowance(uint256)": "b0551ac4",
					"setFreeMintAllowedUntil(uint256)": "8b85e43d",
					"setMaxMintPerTx(uint256)": "616cdb1e",
					"setPrice(uint256)": "91b7f5ed",
					"setSaleActive(bool)": "841718a6",
					"supportsInterface(bytes4)": "01ffc9a7",
					"symbol()": "95d89b41",
					"tokenURI(uint256)": "c87b56dd",
					"totalSupply()": "18160ddd",
					"transferFrom(address,address,uint256)": "23b872dd",
					"transferOwnership(address)": "f2fde38b",
					"withdraw()": "3ccfd60b"
				}
			},
			"storageLayout": {
				"storage": [
					{
						"astId": 947,
						"contract": "StonersTown Contract/STW.sol:StonersTownWtf",
						"label": "_currentIndex",
						"offset": 0,
						"slot": "0",
						"type": "t_uint256"
					},
					{
						"astId": 949,
						"contract": "StonersTown Contract/STW.sol:StonersTownWtf",
						"label": "_burnCounter",
						"offset": 0,
						"slot": "1",
						"type": "t_uint256"
					},
					{
						"astId": 951,
						"contract": "StonersTown Contract/STW.sol:StonersTownWtf",
						"label": "_name",
						"offset": 0,
						"slot": "2",
						"type": "t_string_storage"
					},
					{
						"astId": 953,
						"contract": "StonersTown Contract/STW.sol:StonersTownWtf",
						"label": "_symbol",
						"offset": 0,
						"slot": "3",
						"type": "t_string_storage"
					},
					{
						"astId": 958,
						"contract": "StonersTown Contract/STW.sol:StonersTownWtf",
						"label": "_ownerships",
						"offset": 0,
						"slot": "4",
						"type": "t_mapping(t_uint256,t_struct(TokenOwnership)936_storage)"
					},
					{
						"astId": 963,
						"contract": "StonersTown Contract/STW.sol:StonersTownWtf",
						"label": "_addressData",
						"offset": 0,
						"slot": "5",
						"type": "t_mapping(t_address,t_struct(AddressData)945_storage)"
					},
					{
						"astId": 967,
						"contract": "StonersTown Contract/STW.sol:StonersTownWtf",
						"label": "_tokenApprovals",
						"offset": 0,
						"slot": "6",
						"type": "t_mapping(t_uint256,t_address)"
					},
					{
						"astId": 973,
						"contract": "StonersTown Contract/STW.sol:StonersTownWtf",
						"label": "_operatorApprovals",
						"offset": 0,
						"slot": "7",
						"type": "t_mapping(t_address,t_mapping(t_address,t_bool))"
					},
					{
						"astId": 268,
						"contract": "StonersTown Contract/STW.sol:StonersTownWtf",
						"label": "_owner",
						"offset": 0,
						"slot": "8",
						"type": "t_address"
					},
					{
						"astId": 10,
						"contract": "StonersTown Contract/STW.sol:StonersTownWtf",
						"label": "_status",
						"offset": 0,
						"slot": "9",
						"type": "t_uint256"
					},
					{
						"astId": 2196,
						"contract": "StonersTown Contract/STW.sol:StonersTownWtf",
						"label": "budPrice",
						"offset": 0,
						"slot": "10",
						"type": "t_uint256"
					},
					{
						"astId": 2198,
						"contract": "StonersTown Contract/STW.sol:StonersTownWtf",
						"label": "maxbuds",
						"offset": 0,
						"slot": "11",
						"type": "t_uint256"
					},
					{
						"astId": 2200,
						"contract": "StonersTown Contract/STW.sol:StonersTownWtf",
						"label": "weedStore",
						"offset": 0,
						"slot": "12",
						"type": "t_string_storage"
					},
					{
						"astId": 2202,
						"contract": "StonersTown Contract/STW.sol:StonersTownWtf",
						"label": "freeBudPerWallet",
						"offset": 0,
						"slot": "13",
						"type": "t_uint256"
					},
					{
						"astId": 2204,
						"contract": "StonersTown Contract/STW.sol:StonersTownWtf",
						"label": "maxBudPerTrans",
						"offset": 0,
						"slot": "14",
						"type": "t_uint256"
					},
					{
						"astId": 2206,
						"contract": "StonersTown Contract/STW.sol:StonersTownWtf",
						"label": "IS_SALE_ACTIVE",
						"offset": 0,
						"slot": "15",
						"type": "t_bool"
					},
					{
						"astId": 2208,
						"contract": "StonersTown Contract/STW.sol:StonersTownWtf",
						"label": "freeBudAllowedUntil",
						"offset": 0,
						"slot": "16",
						"type": "t_uint256"
					},
					{
						"astId": 2210,
						"contract": "StonersTown Contract/STW.sol:StonersTownWtf",
						"label": "METADATA_FROZEN",
						"offset": 0,
						"slot": "17",
						"type": "t_bool"
					},
					{
						"astId": 2214,
						"contract": "StonersTown Contract/STW.sol:StonersTownWtf",
						"label": "freeMintCountMap",
						"offset": 0,
						"slot": "18",
						"type": "t_mapping(t_address,t_uint256)"
					}
				],
				"types": {
					"t_address": {
						"encoding": "inplace",
						"label": "address",
						"numberOfBytes": "20"
					},
					"t_bool": {
						"encoding": "inplace",
						"label": "bool",
						"numberOfBytes": "1"
					},
					"t_mapping(t_address,t_bool)": {
						"encoding": "mapping",
						"key": "t_address",
						"label": "mapping(address => bool)",
						"numberOfBytes": "32",
						"value": "t_bool"
					},
					"t_mapping(t_address,t_mapping(t_address,t_bool))": {
						"encoding": "mapping",
						"key": "t_address",
						"label": "mapping(address => mapping(address => bool))",
						"numberOfBytes": "32",
						"value": "t_mapping(t_address,t_bool)"
					},
					"t_mapping(t_address,t_struct(AddressData)945_storage)": {
						"encoding": "mapping",
						"key": "t_address",
						"label": "mapping(address => struct ERC721A.AddressData)",
						"numberOfBytes": "32",
						"value": "t_struct(AddressData)945_storage"
					},
					"t_mapping(t_address,t_uint256)": {
						"encoding": "mapping",
						"key": "t_address",
						"label": "mapping(address => uint256)",
						"numberOfBytes": "32",
						"value": "t_uint256"
					},
					"t_mapping(t_uint256,t_address)": {
						"encoding": "mapping",
						"key": "t_uint256",
						"label": "mapping(uint256 => address)",
						"numberOfBytes": "32",
						"value": "t_address"
					},
					"t_mapping(t_uint256,t_struct(TokenOwnership)936_storage)": {
						"encoding": "mapping",
						"key": "t_uint256",
						"label": "mapping(uint256 => struct ERC721A.TokenOwnership)",
						"numberOfBytes": "32",
						"value": "t_struct(TokenOwnership)936_storage"
					},
					"t_string_storage": {
						"encoding": "bytes",
						"label": "string",
						"numberOfBytes": "32"
					},
					"t_struct(AddressData)945_storage": {
						"encoding": "inplace",
						"label": "struct ERC721A.AddressData",
						"members": [
							{
								"astId": 938,
								"contract": "StonersTown Contract/STW.sol:StonersTownWtf",
								"label": "balance",
								"offset": 0,
								"slot": "0",
								"type": "t_uint64"
							},
							{
								"astId": 940,
								"contract": "StonersTown Contract/STW.sol:StonersTownWtf",
								"label": "numberMinted",
								"offset": 8,
								"slot": "0",
								"type": "t_uint64"
							},
							{
								"astId": 942,
								"contract": "StonersTown Contract/STW.sol:StonersTownWtf",
								"label": "numberBurned",
								"offset": 16,
								"slot": "0",
								"type": "t_uint64"
							},
							{
								"astId": 944,
								"contract": "StonersTown Contract/STW.sol:StonersTownWtf",
								"label": "aux",
								"offset": 24,
								"slot": "0",
								"type": "t_uint64"
							}
						],
						"numberOfBytes": "32"
					},
					"t_struct(TokenOwnership)936_storage": {
						"encoding": "inplace",
						"label": "struct ERC721A.TokenOwnership",
						"members": [
							{
								"astId": 931,
								"contract": "StonersTown Contract/STW.sol:StonersTownWtf",
								"label": "addr",
								"offset": 0,
								"slot": "0",
								"type": "t_address"
							},
							{
								"astId": 933,
								"contract": "StonersTown Contract/STW.sol:StonersTownWtf",
								"label": "startTimestamp",
								"offset": 20,
								"slot": "0",
								"type": "t_uint64"
							},
							{
								"astId": 935,
								"contract": "StonersTown Contract/STW.sol:StonersTownWtf",
								"label": "burned",
								"offset": 28,
								"slot": "0",
								"type": "t_bool"
							}
						],
						"numberOfBytes": "32"
					},
					"t_uint256": {
						"encoding": "inplace",
						"label": "uint256",
						"numberOfBytes": "32"
					},
					"t_uint64": {
						"encoding": "inplace",
						"label": "uint64",
						"numberOfBytes": "8"
					}
				}
			},
			"userdoc": {
				"kind": "user",
				"methods": {
					"setPrice(uint256)": {
						"notice": "SETTERS *"
					}
				},
				"version": 1
			}
		}
	}
}